{
  "contractName": "FwarMarketStorage",
  "abi": [
    {
      "inputs": [],
      "name": "feeRate",
      "outputs": [
        {
          "internalType": "uint256",
          "name": "",
          "type": "uint256"
        }
      ],
      "stateMutability": "view",
      "type": "function"
    },
    {
      "inputs": [],
      "name": "feeTo",
      "outputs": [
        {
          "internalType": "address",
          "name": "",
          "type": "address"
        }
      ],
      "stateMutability": "view",
      "type": "function"
    },
    {
      "inputs": [],
      "name": "maxExpirationTime",
      "outputs": [
        {
          "internalType": "uint256",
          "name": "",
          "type": "uint256"
        }
      ],
      "stateMutability": "view",
      "type": "function"
    },
    {
      "inputs": [],
      "name": "minExpirationTime",
      "outputs": [
        {
          "internalType": "uint256",
          "name": "",
          "type": "uint256"
        }
      ],
      "stateMutability": "view",
      "type": "function"
    }
  ],
  "bytecode": "0x608060405234801561001057600080fd5b5061014d806100206000396000f3fe608060405234801561001057600080fd5b506004361061004c5760003560e01c8063017e7e581461005157806331b412d714610085578063978bbdb9146100a3578063f541b382146100c1575b600080fd5b6100596100df565b604051808273ffffffffffffffffffffffffffffffffffffffff16815260200191505060405180910390f35b61008d610105565b6040518082815260200191505060405180910390f35b6100ab61010b565b6040518082815260200191505060405180910390f35b6100c9610111565b6040518082815260200191505060405180910390f35b600660009054906101000a900473ffffffffffffffffffffffffffffffffffffffff1681565b60015481565b60075481565b6000548156fea264697066735822122039608b8e8b75c4311a4d454da382adad1e3a9dacad6f9cd6fb9face90583f22b64736f6c634300060c0033",
  "immutableReferences": {},
  "source": "// SPDX-License-Identifier: MIT\npragma solidity 0.6.12;\n\nimport \"@openzeppelin/contracts/math/SafeMath.sol\";\nimport \"@openzeppelin/contracts/utils/EnumerableSet.sol\";\n\ncontract FwarMarketStorage {\n    using SafeMath for uint256;\n    using EnumerableSet for EnumerableSet.UintSet;\n\n    struct OrderInfo {\n        // NFT owner\n        address owner;\n        // NFT contract address\n        address nftContract;\n        // NFT Ids\n        uint[] nftIds;\n        // pay token;\n        address token;\n        // pay amount;\n        uint price;\n        // order expiration time\n        uint expiration;\n        // order expiration time\n        uint createTime;\n    }\n\n    uint public maxExpirationTime;\n\n    uint public minExpirationTime;\n\n\n    EnumerableSet.UintSet internal orderIds;\n\n    mapping(uint => OrderInfo) orders;\n\n    mapping(uint => mapping(address => uint)) sellingNFT;\n\n    // version 2 add\n\n    address public feeTo;\n\n    // fee rate scaled by 1e12\n    uint public feeRate; \n}",
  "sourcePath": "/Users/badung1870/Working/Node/FwarProject/SourceCode/SmartContracts/Fwar/FwarMarket/contracts/FwarMarketStorage.sol",
  "compiler": {
    "name": "solc",
    "version": "0.6.12+commit.27d51765.Emscripten.clang"
  },
  "schemaVersion": "3.4.3",
  "updatedAt": "2021-09-28T18:45:45.080Z",
  "devdoc": {
    "kind": "dev",
    "methods": {},
    "version": 1
  },
  "userdoc": {
    "kind": "user",
    "methods": {},
    "version": 1
  }
}