{
  "contractName": "FwarMarketDelegate",
  "abi": [
    {
      "anonymous": false,
      "inputs": [
        {
          "indexed": true,
          "internalType": "uint256",
          "name": "_orderId",
          "type": "uint256"
        },
        {
          "indexed": false,
          "internalType": "uint256[]",
          "name": "_nftIds",
          "type": "uint256[]"
        },
        {
          "indexed": true,
          "internalType": "address",
          "name": "_buyer",
          "type": "address"
        },
        {
          "indexed": false,
          "internalType": "address",
          "name": "_seller",
          "type": "address"
        },
        {
          "indexed": false,
          "internalType": "address",
          "name": "_nftContract",
          "type": "address"
        },
        {
          "indexed": false,
          "internalType": "address",
          "name": "_token",
          "type": "address"
        },
        {
          "indexed": true,
          "internalType": "uint256",
          "name": "price",
          "type": "uint256"
        }
      ],
      "name": "BuyOrder",
      "type": "event"
    },
    {
      "anonymous": false,
      "inputs": [
        {
          "indexed": false,
          "internalType": "uint256[]",
          "name": "_nftIds",
          "type": "uint256[]"
        }
      ],
      "name": "CancelOrder",
      "type": "event"
    },
    {
      "anonymous": false,
      "inputs": [
        {
          "indexed": true,
          "internalType": "uint256",
          "name": "_orderId",
          "type": "uint256"
        },
        {
          "indexed": false,
          "internalType": "uint256[]",
          "name": "_nftIds",
          "type": "uint256[]"
        },
        {
          "indexed": true,
          "internalType": "address",
          "name": "_seller",
          "type": "address"
        },
        {
          "indexed": false,
          "internalType": "address",
          "name": "_nftContract",
          "type": "address"
        },
        {
          "indexed": false,
          "internalType": "address",
          "name": "_token",
          "type": "address"
        },
        {
          "indexed": true,
          "internalType": "uint256",
          "name": "price",
          "type": "uint256"
        }
      ],
      "name": "CleanOrder",
      "type": "event"
    },
    {
      "anonymous": false,
      "inputs": [
        {
          "indexed": true,
          "internalType": "address",
          "name": "_nftContract",
          "type": "address"
        },
        {
          "indexed": false,
          "internalType": "uint256[]",
          "name": "_nftIds",
          "type": "uint256[]"
        },
        {
          "indexed": true,
          "internalType": "address",
          "name": "_token",
          "type": "address"
        },
        {
          "indexed": true,
          "internalType": "uint256",
          "name": "_price",
          "type": "uint256"
        },
        {
          "indexed": false,
          "internalType": "uint256",
          "name": "_expiration",
          "type": "uint256"
        },
        {
          "indexed": false,
          "internalType": "uint256",
          "name": "_orderId",
          "type": "uint256"
        }
      ],
      "name": "CreateOrder",
      "type": "event"
    },
    {
      "anonymous": false,
      "inputs": [
        {
          "indexed": true,
          "internalType": "bytes32",
          "name": "role",
          "type": "bytes32"
        },
        {
          "indexed": true,
          "internalType": "bytes32",
          "name": "previousAdminRole",
          "type": "bytes32"
        },
        {
          "indexed": true,
          "internalType": "bytes32",
          "name": "newAdminRole",
          "type": "bytes32"
        }
      ],
      "name": "RoleAdminChanged",
      "type": "event"
    },
    {
      "anonymous": false,
      "inputs": [
        {
          "indexed": true,
          "internalType": "bytes32",
          "name": "role",
          "type": "bytes32"
        },
        {
          "indexed": true,
          "internalType": "address",
          "name": "account",
          "type": "address"
        },
        {
          "indexed": true,
          "internalType": "address",
          "name": "sender",
          "type": "address"
        }
      ],
      "name": "RoleGranted",
      "type": "event"
    },
    {
      "anonymous": false,
      "inputs": [
        {
          "indexed": true,
          "internalType": "bytes32",
          "name": "role",
          "type": "bytes32"
        },
        {
          "indexed": true,
          "internalType": "address",
          "name": "account",
          "type": "address"
        },
        {
          "indexed": true,
          "internalType": "address",
          "name": "sender",
          "type": "address"
        }
      ],
      "name": "RoleRevoked",
      "type": "event"
    },
    {
      "inputs": [],
      "name": "DEFAULT_ADMIN_ROLE",
      "outputs": [
        {
          "internalType": "bytes32",
          "name": "",
          "type": "bytes32"
        }
      ],
      "stateMutability": "view",
      "type": "function",
      "constant": true
    },
    {
      "inputs": [],
      "name": "feeRate",
      "outputs": [
        {
          "internalType": "uint256",
          "name": "",
          "type": "uint256"
        }
      ],
      "stateMutability": "view",
      "type": "function",
      "constant": true
    },
    {
      "inputs": [],
      "name": "feeTo",
      "outputs": [
        {
          "internalType": "address",
          "name": "",
          "type": "address"
        }
      ],
      "stateMutability": "view",
      "type": "function",
      "constant": true
    },
    {
      "inputs": [
        {
          "internalType": "bytes32",
          "name": "role",
          "type": "bytes32"
        }
      ],
      "name": "getRoleAdmin",
      "outputs": [
        {
          "internalType": "bytes32",
          "name": "",
          "type": "bytes32"
        }
      ],
      "stateMutability": "view",
      "type": "function",
      "constant": true
    },
    {
      "inputs": [
        {
          "internalType": "bytes32",
          "name": "role",
          "type": "bytes32"
        },
        {
          "internalType": "uint256",
          "name": "index",
          "type": "uint256"
        }
      ],
      "name": "getRoleMember",
      "outputs": [
        {
          "internalType": "address",
          "name": "",
          "type": "address"
        }
      ],
      "stateMutability": "view",
      "type": "function",
      "constant": true
    },
    {
      "inputs": [
        {
          "internalType": "bytes32",
          "name": "role",
          "type": "bytes32"
        }
      ],
      "name": "getRoleMemberCount",
      "outputs": [
        {
          "internalType": "uint256",
          "name": "",
          "type": "uint256"
        }
      ],
      "stateMutability": "view",
      "type": "function",
      "constant": true
    },
    {
      "inputs": [
        {
          "internalType": "bytes32",
          "name": "role",
          "type": "bytes32"
        },
        {
          "internalType": "address",
          "name": "account",
          "type": "address"
        }
      ],
      "name": "grantRole",
      "outputs": [],
      "stateMutability": "nonpayable",
      "type": "function"
    },
    {
      "inputs": [
        {
          "internalType": "bytes32",
          "name": "role",
          "type": "bytes32"
        },
        {
          "internalType": "address",
          "name": "account",
          "type": "address"
        }
      ],
      "name": "hasRole",
      "outputs": [
        {
          "internalType": "bool",
          "name": "",
          "type": "bool"
        }
      ],
      "stateMutability": "view",
      "type": "function",
      "constant": true
    },
    {
      "inputs": [],
      "name": "maxExpirationTime",
      "outputs": [
        {
          "internalType": "uint256",
          "name": "",
          "type": "uint256"
        }
      ],
      "stateMutability": "view",
      "type": "function",
      "constant": true
    },
    {
      "inputs": [],
      "name": "minExpirationTime",
      "outputs": [
        {
          "internalType": "uint256",
          "name": "",
          "type": "uint256"
        }
      ],
      "stateMutability": "view",
      "type": "function",
      "constant": true
    },
    {
      "inputs": [
        {
          "internalType": "bytes32",
          "name": "role",
          "type": "bytes32"
        },
        {
          "internalType": "address",
          "name": "account",
          "type": "address"
        }
      ],
      "name": "renounceRole",
      "outputs": [],
      "stateMutability": "nonpayable",
      "type": "function"
    },
    {
      "inputs": [
        {
          "internalType": "bytes32",
          "name": "role",
          "type": "bytes32"
        },
        {
          "internalType": "address",
          "name": "account",
          "type": "address"
        }
      ],
      "name": "revokeRole",
      "outputs": [],
      "stateMutability": "nonpayable",
      "type": "function"
    },
    {
      "inputs": [
        {
          "internalType": "address",
          "name": "admin",
          "type": "address"
        }
      ],
      "name": "initialize",
      "outputs": [],
      "stateMutability": "payable",
      "type": "function",
      "payable": true
    },
    {
      "inputs": [
        {
          "internalType": "uint256",
          "name": "_minExpirationTime",
          "type": "uint256"
        },
        {
          "internalType": "uint256",
          "name": "_maxExpirationTime",
          "type": "uint256"
        }
      ],
      "name": "configExpiration",
      "outputs": [],
      "stateMutability": "nonpayable",
      "type": "function"
    },
    {
      "inputs": [
        {
          "internalType": "address",
          "name": "_feeTo",
          "type": "address"
        },
        {
          "internalType": "uint256",
          "name": "_feeRate",
          "type": "uint256"
        }
      ],
      "name": "configFee",
      "outputs": [],
      "stateMutability": "nonpayable",
      "type": "function"
    },
    {
      "inputs": [
        {
          "internalType": "address",
          "name": "_nftContract",
          "type": "address"
        },
        {
          "internalType": "uint256[]",
          "name": "_nftIds",
          "type": "uint256[]"
        },
        {
          "internalType": "address",
          "name": "_token",
          "type": "address"
        },
        {
          "internalType": "uint256",
          "name": "_price",
          "type": "uint256"
        },
        {
          "internalType": "uint256",
          "name": "_expiration",
          "type": "uint256"
        }
      ],
      "name": "createOrder",
      "outputs": [],
      "stateMutability": "nonpayable",
      "type": "function"
    },
    {
      "inputs": [
        {
          "internalType": "address",
          "name": "_nftContract",
          "type": "address"
        },
        {
          "internalType": "uint256[]",
          "name": "_nftIds",
          "type": "uint256[]"
        },
        {
          "internalType": "address",
          "name": "_token",
          "type": "address"
        }
      ],
      "name": "cancelOrder",
      "outputs": [],
      "stateMutability": "nonpayable",
      "type": "function"
    },
    {
      "inputs": [
        {
          "internalType": "uint256",
          "name": "_orderId",
          "type": "uint256"
        }
      ],
      "name": "buyOrder",
      "outputs": [],
      "stateMutability": "nonpayable",
      "type": "function"
    },
    {
      "inputs": [],
      "name": "orderCount",
      "outputs": [
        {
          "internalType": "uint256",
          "name": "",
          "type": "uint256"
        }
      ],
      "stateMutability": "view",
      "type": "function",
      "constant": true
    },
    {
      "inputs": [
        {
          "internalType": "uint256",
          "name": "index",
          "type": "uint256"
        }
      ],
      "name": "getOrderId",
      "outputs": [
        {
          "internalType": "uint256",
          "name": "orderId",
          "type": "uint256"
        },
        {
          "internalType": "bool",
          "name": "isValid",
          "type": "bool"
        }
      ],
      "stateMutability": "view",
      "type": "function",
      "constant": true
    },
    {
      "inputs": [
        {
          "internalType": "uint256",
          "name": "orderId",
          "type": "uint256"
        }
      ],
      "name": "getOrderById",
      "outputs": [
        {
          "internalType": "address",
          "name": "owner",
          "type": "address"
        },
        {
          "internalType": "uint256[]",
          "name": "nftIds",
          "type": "uint256[]"
        },
        {
          "internalType": "address",
          "name": "token",
          "type": "address"
        },
        {
          "internalType": "uint256",
          "name": "price",
          "type": "uint256"
        },
        {
          "internalType": "uint256",
          "name": "expiration",
          "type": "uint256"
        },
        {
          "internalType": "uint256",
          "name": "createTime",
          "type": "uint256"
        }
      ],
      "stateMutability": "view",
      "type": "function",
      "constant": true
    },
    {
      "inputs": [
        {
          "internalType": "uint256",
          "name": "orderId",
          "type": "uint256"
        }
      ],
      "name": "checkOrderValid",
      "outputs": [
        {
          "internalType": "bool",
          "name": "",
          "type": "bool"
        }
      ],
      "stateMutability": "view",
      "type": "function",
      "constant": true
    },
    {
      "inputs": [
        {
          "internalType": "int256",
          "name": "from",
          "type": "int256"
        },
        {
          "internalType": "int256",
          "name": "to",
          "type": "int256"
        }
      ],
      "name": "cleanInvalidOrders",
      "outputs": [],
      "stateMutability": "nonpayable",
      "type": "function"
    }
  ],
  "bytecode": "0x608060405234801561001057600080fd5b50613755806100206000396000f3fe6080604052600436106101405760003560e01c80638a7b919a116100b6578063c4d66de81161006f578063c4d66de814610740578063ca15c87314610784578063d547741f146107d3578063ecf62fdc1461082e578063f541b38214610908578063f615c2bf1461093357610140565b80638a7b919a146104ec5780639010d07c146105b257806391d1485414610621578063978bbdb9146106925780639d2166ae146106bd578063a217fddf1461071557610140565b806331b412d71161010857806331b412d71461029657806336568abe146102c157806342b50a7a1461031c5780636967f993146103fb5780636b3b9a5b1461044057806385376c8a1461049157610140565b8063017e7e581461014557806322f85eaa146101865780632453ffa8146101c1578063248a9ca3146101ec5780632f2ff15d1461023b575b600080fd5b34801561015157600080fd5b5061015a610978565b604051808273ffffffffffffffffffffffffffffffffffffffff16815260200191505060405180910390f35b34801561019257600080fd5b506101bf600480360360208110156101a957600080fd5b810190808035906020019092919050505061099e565b005b3480156101cd57600080fd5b506101d6610f41565b6040518082815260200191505060405180910390f35b3480156101f857600080fd5b506102256004803603602081101561020f57600080fd5b8101908080359060200190929190505050610f52565b6040518082815260200191505060405180910390f35b34801561024757600080fd5b506102946004803603604081101561025e57600080fd5b8101908080359060200190929190803573ffffffffffffffffffffffffffffffffffffffff169060200190929190505050610f72565b005b3480156102a257600080fd5b506102ab610ffc565b6040518082815260200191505060405180910390f35b3480156102cd57600080fd5b5061031a600480360360408110156102e457600080fd5b8101908080359060200190929190803573ffffffffffffffffffffffffffffffffffffffff169060200190929190505050611002565b005b34801561032857600080fd5b506103556004803603602081101561033f57600080fd5b810190808035906020019092919050505061109b565b604051808773ffffffffffffffffffffffffffffffffffffffff168152602001806020018673ffffffffffffffffffffffffffffffffffffffff168152602001858152602001848152602001838152602001828103825287818151815260200191508051906020019060200280838360005b838110156103e25780820151818401526020810190506103c7565b5050505090500197505050505050505060405180910390f35b34801561040757600080fd5b5061043e6004803603604081101561041e57600080fd5b81019080803590602001909291908035906020019092919050505061117e565b005b34801561044c57600080fd5b506104796004803603602081101561046357600080fd5b81019080803590602001909291905050506111a6565b60405180821515815260200191505060405180910390f35b34801561049d57600080fd5b506104ea600480360360408110156104b457600080fd5b81019080803573ffffffffffffffffffffffffffffffffffffffff16906020019092919080359060200190929190505050611445565b005b3480156104f857600080fd5b506105b06004803603606081101561050f57600080fd5b81019080803573ffffffffffffffffffffffffffffffffffffffff1690602001909291908035906020019064010000000081111561054c57600080fd5b82018360208201111561055e57600080fd5b8035906020019184602083028401116401000000008311171561058057600080fd5b9091929391929390803573ffffffffffffffffffffffffffffffffffffffff1690602001909291905050506114a7565b005b3480156105be57600080fd5b506105f5600480360360408110156105d557600080fd5b810190808035906020019092919080359060200190929190505050611858565b604051808273ffffffffffffffffffffffffffffffffffffffff16815260200191505060405180910390f35b34801561062d57600080fd5b5061067a6004803603604081101561064457600080fd5b8101908080359060200190929190803573ffffffffffffffffffffffffffffffffffffffff16906020019092919050505061188a565b60405180821515815260200191505060405180910390f35b34801561069e57600080fd5b506106a76118bc565b6040518082815260200191505060405180910390f35b3480156106c957600080fd5b506106f6600480360360208110156106e057600080fd5b81019080803590602001909291905050506118c2565b6040518083815260200182151581526020019250505060405180910390f35b34801561072157600080fd5b5061072a6118f1565b6040518082815260200191505060405180910390f35b6107826004803603602081101561075657600080fd5b81019080803573ffffffffffffffffffffffffffffffffffffffff1690602001909291905050506118f8565b005b34801561079057600080fd5b506107bd600480360360208110156107a757600080fd5b8101908080359060200190929190505050611a18565b6040518082815260200191505060405180910390f35b3480156107df57600080fd5b5061082c600480360360408110156107f657600080fd5b8101908080359060200190929190803573ffffffffffffffffffffffffffffffffffffffff169060200190929190505050611a3f565b005b34801561083a57600080fd5b50610906600480360360a081101561085157600080fd5b81019080803573ffffffffffffffffffffffffffffffffffffffff1690602001909291908035906020019064010000000081111561088e57600080fd5b8201836020820111156108a057600080fd5b803590602001918460208302840111640100000000831117156108c257600080fd5b9091929391929390803573ffffffffffffffffffffffffffffffffffffffff1690602001909291908035906020019092919080359060200190929190505050611ac9565b005b34801561091457600080fd5b5061091d61260b565b6040518082815260200191505060405180910390f35b34801561093f57600080fd5b506109766004803603604081101561095657600080fd5b810190808035906020019092919080359060200190929190505050612611565b005b600860009054906101000a900473ffffffffffffffffffffffffffffffffffffffff1681565b6109a7816111a6565b610a19576040517f08c379a00000000000000000000000000000000000000000000000000000000081526004018080602001828103825260128152602001807f6f72646572206973206e6f742076616c6964000000000000000000000000000081525060200191505060405180910390fd5b610a216134c6565b600660008381526020019081526020016000206040518060e00160405290816000820160009054906101000a900473ffffffffffffffffffffffffffffffffffffffff1673ffffffffffffffffffffffffffffffffffffffff1673ffffffffffffffffffffffffffffffffffffffff1681526020016001820160009054906101000a900473ffffffffffffffffffffffffffffffffffffffff1673ffffffffffffffffffffffffffffffffffffffff1673ffffffffffffffffffffffffffffffffffffffff16815260200160028201805480602002602001604051908101604052809291908181526020018280548015610b3a57602002820191906000526020600020905b815481526020019060010190808311610b26575b505050505081526020016003820160009054906101000a900473ffffffffffffffffffffffffffffffffffffffff1673ffffffffffffffffffffffffffffffffffffffff1673ffffffffffffffffffffffffffffffffffffffff16815260200160048201548152602001600582015481526020016006820154815250509050610bcd826004612a6490919063ffffffff16565b5060066000838152602001908152602001600020600080820160006101000a81549073ffffffffffffffffffffffffffffffffffffffff02191690556001820160006101000a81549073ffffffffffffffffffffffffffffffffffffffff0219169055600282016000610c409190613545565b6003820160006101000a81549073ffffffffffffffffffffffffffffffffffffffff021916905560048201600090556005820160009055600682016000905550506000816080015190506000610cb864e8d4a51000610caa60095485612a7e90919063ffffffff16565b612b0490919063ffffffff16565b9050610d0d33600860009054906101000a900473ffffffffffffffffffffffffffffffffffffffff1683866060015173ffffffffffffffffffffffffffffffffffffffff16612b8d909392919063ffffffff16565b610d58338460000151610d2d848760800151612c4e90919063ffffffff16565b866060015173ffffffffffffffffffffffffffffffffffffffff16612b8d909392919063ffffffff16565b60005b836040015151811015610e3b57836020015173ffffffffffffffffffffffffffffffffffffffff166342842e0e85600001513387604001518581518110610d9e57fe5b60200260200101516040518463ffffffff1660e01b8152600401808473ffffffffffffffffffffffffffffffffffffffff1681526020018373ffffffffffffffffffffffffffffffffffffffff1681526020018281526020019350505050600060405180830381600087803b158015610e1657600080fd5b505af1158015610e2a573d6000803e3d6000fd5b505050508080600101915050610d5b565b5082608001513373ffffffffffffffffffffffffffffffffffffffff16857ff7e635981964511d001a05bcef6b8d34da1521d32fd3ca8987500de472e95289866040015187600001518860200151896060015160405180806020018573ffffffffffffffffffffffffffffffffffffffff1681526020018473ffffffffffffffffffffffffffffffffffffffff1681526020018373ffffffffffffffffffffffffffffffffffffffff168152602001828103825286818151815260200191508051906020019060200280838360005b83811015610f25578082015181840152602081019050610f0a565b505050509050019550505050505060405180910390a450505050565b6000610f4d6004612cd1565b905090565b600060016000838152602001908152602001600020600201549050919050565b610f996001600084815260200190815260200160002060020154610f94612ce6565b61188a565b610fee576040517f08c379a000000000000000000000000000000000000000000000000000000000815260040180806020018281038252602f8152602001806135f3602f913960400191505060405180910390fd5b610ff88282612cee565b5050565b60035481565b61100a612ce6565b73ffffffffffffffffffffffffffffffffffffffff168173ffffffffffffffffffffffffffffffffffffffff161461108d576040517f08c379a000000000000000000000000000000000000000000000000000000000815260040180806020018281038252602f8152602001806136f1602f913960400191505060405180910390fd5b6110978282612d82565b5050565b6000606060008060008060006006600089815260200190815260200160002090508060000160009054906101000a900473ffffffffffffffffffffffffffffffffffffffff1696508060020180548060200260200160405190810160405280929190818152602001828054801561113157602002820191906000526020600020905b81548152602001906001019080831161111d575b505050505095508060030160009054906101000a900473ffffffffffffffffffffffffffffffffffffffff1694508060040154935080600501549250806006015491505091939550919395565b61118b6000801b3361188a565b61119457600080fd5b80600281905550816003819055505050565b60008060066000848152602001908152602001600020905060005b8160020180549050811015611307578160000160009054906101000a900473ffffffffffffffffffffffffffffffffffffffff1673ffffffffffffffffffffffffffffffffffffffff168260010160009054906101000a900473ffffffffffffffffffffffffffffffffffffffff1673ffffffffffffffffffffffffffffffffffffffff16636352211e84600201848154811061125a57fe5b90600052602060002001546040518263ffffffff1660e01b81526004018082815260200191505060206040518083038186803b15801561129957600080fd5b505afa1580156112ad573d6000803e3d6000fd5b505050506040513d60208110156112c357600080fd5b810190808051906020019092919050505073ffffffffffffffffffffffffffffffffffffffff16146112fa57600092505050611440565b80806001019150506111c1565b508060010160009054906101000a900473ffffffffffffffffffffffffffffffffffffffff1673ffffffffffffffffffffffffffffffffffffffff1663e985e9c58260000160009054906101000a900473ffffffffffffffffffffffffffffffffffffffff16306040518363ffffffff1660e01b8152600401808373ffffffffffffffffffffffffffffffffffffffff1681526020018273ffffffffffffffffffffffffffffffffffffffff1681526020019250505060206040518083038186803b1580156113d557600080fd5b505afa1580156113e9573d6000803e3d6000fd5b505050506040513d60208110156113ff57600080fd5b810190808051906020019092919050505061141e576000915050611440565b428160050154826006015401101561143a576000915050611440565b60019150505b919050565b6114526000801b3361188a565b61145b57600080fd5b81600860006101000a81548173ffffffffffffffffffffffffffffffffffffffff021916908373ffffffffffffffffffffffffffffffffffffffff160217905550806009819055505050565b60003384848785604051602001808673ffffffffffffffffffffffffffffffffffffffff168152602001806020018473ffffffffffffffffffffffffffffffffffffffff1681526020018373ffffffffffffffffffffffffffffffffffffffff1681526020018281038252868682818152602001925060200280828437600081840152601f19601f82011690508083019250505096505050505050506040516020818303038152906040528051906020012060001c905060006006600083815260200190815260200160002060000160009054906101000a900473ffffffffffffffffffffffffffffffffffffffff169050600073ffffffffffffffffffffffffffffffffffffffff168173ffffffffffffffffffffffffffffffffffffffff16141561163c576040517f08c379a000000000000000000000000000000000000000000000000000000000815260040180806020018281038252600f8152602001807f6f72646572206e6f74206578697374000000000000000000000000000000000081525060200191505060405180910390fd5b3373ffffffffffffffffffffffffffffffffffffffff168173ffffffffffffffffffffffffffffffffffffffff16146116dd576040517f08c379a000000000000000000000000000000000000000000000000000000000815260040180806020018281038252600f8152602001807f6f72646572206e6f7420796f757273000000000000000000000000000000000081525060200191505060405180910390fd5b6116f1826004612a6490919063ffffffff16565b5060066000838152602001908152602001600020600080820160006101000a81549073ffffffffffffffffffffffffffffffffffffffff02191690556001820160006101000a81549073ffffffffffffffffffffffffffffffffffffffff02191690556002820160006117649190613545565b6003820160006101000a81549073ffffffffffffffffffffffffffffffffffffffff0219169055600482016000905560058201600090556006820160009055505060005b858590508110156117e957600760008787848181106117c357fe5b9050602002013581526020019081526020016000206000905580806001019150506117a8565b507fec3a996086a0593f0c6b978c3ad28db539089e1f1e79bef4f841664d4b93177d858560405180806020018281038252848482818152602001925060200280828437600081840152601f19601f820116905080830192505050935050505060405180910390a1505050505050565b60006118828260016000868152602001908152602001600020600001612e1690919063ffffffff16565b905092915050565b60006118b48260016000868152602001908152602001600020600001612e3090919063ffffffff16565b905092915050565b60095481565b60008060006118db846004612e6090919063ffffffff16565b9050806118e7826111a6565b9250925050915091565b6000801b81565b600060019054906101000a900460ff16806119175750611916612e7a565b5b8061192d575060008054906101000a900460ff16155b611982576040517f08c379a000000000000000000000000000000000000000000000000000000000815260040180806020018281038252602e815260200180613678602e913960400191505060405180910390fd5b60008060019054906101000a900460ff1615905080156119d2576001600060016101000a81548160ff02191690831515021790555060016000806101000a81548160ff0219169083151502179055505b6119df6000801b83612e8b565b62127500600281905550620151806003819055508015611a145760008060016101000a81548160ff0219169083151502179055505b5050565b6000611a3860016000848152602001908152602001600020600001612e99565b9050919050565b611a666001600084815260200190815260200160002060020154611a61612ce6565b61188a565b611abb576040517f08c379a00000000000000000000000000000000000000000000000000000000081526004018080602001828103825260308152602001806136486030913960400191505060405180910390fd5b611ac58282612d82565b5050565b8573ffffffffffffffffffffffffffffffffffffffff1663e985e9c533306040518363ffffffff1660e01b8152600401808373ffffffffffffffffffffffffffffffffffffffff1681526020018273ffffffffffffffffffffffffffffffffffffffff1681526020019250505060206040518083038186803b158015611b4e57600080fd5b505afa158015611b62573d6000803e3d6000fd5b505050506040513d6020811015611b7857600080fd5b8101908080519060200190929190505050611bfb576040517f08c379a00000000000000000000000000000000000000000000000000000000081526004018080602001828103825260128152602001807f4d75737420617070726f7665206669727374000000000000000000000000000081525060200191505060405180910390fd5b600254811115611c73576040517f08c379a00000000000000000000000000000000000000000000000000000000081526004018080602001828103825260148152602001807f65787069726174696f6e20746f6f206c6172676500000000000000000000000081525060200191505060405180910390fd5b600354811015611ceb576040517f08c379a00000000000000000000000000000000000000000000000000000000081526004018080602001828103825260148152602001807f65787069726174696f6e20746f6f20736d616c6c00000000000000000000000081525060200191505060405180910390fd5b6004858590501115611d65576040517f08c379a000000000000000000000000000000000000000000000000000000000815260040180806020018281038252601a8152602001807f616d6f756e742073656c6c696e67206e6674206578636565642000000000000081525060200191505060405180910390fd5b60005b85859050811015611fe2576000868683818110611d8157fe5b905060200201351415611dfc576040517f08c379a000000000000000000000000000000000000000000000000000000000815260040180806020018281038252600d8152602001807f5f6e6674496473206572726f720000000000000000000000000000000000000081525060200191505060405180910390fd5b3373ffffffffffffffffffffffffffffffffffffffff168773ffffffffffffffffffffffffffffffffffffffff16636352211e888885818110611e3b57fe5b905060200201356040518263ffffffff1660e01b81526004018082815260200191505060206040518083038186803b158015611e7657600080fd5b505afa158015611e8a573d6000803e3d6000fd5b505050506040513d6020811015611ea057600080fd5b810190808051906020019092919050505073ffffffffffffffffffffffffffffffffffffffff1614611f3a576040517f08c379a00000000000000000000000000000000000000000000000000000000081526004018080602001828103825260128152602001807f596f752068617665206e6f20616363657373000000000000000000000000000081525060200191505060405180910390fd5b600060076000888885818110611f4c57fe5b9050602002013581526020019081526020016000205414611fd5576040517f08c379a000000000000000000000000000000000000000000000000000000000815260040180806020018281038252600e8152602001807f6e66742069732073656c6c696e6700000000000000000000000000000000000081525060200191505060405180910390fd5b8080600101915050611d68565b5060003386868987604051602001808673ffffffffffffffffffffffffffffffffffffffff168152602001806020018473ffffffffffffffffffffffffffffffffffffffff1681526020018373ffffffffffffffffffffffffffffffffffffffff1681526020018281038252868682818152602001925060200280828437600081840152601f19601f82011690508083019250505096505050505050506040516020818303038152906040528051906020012060001c905060006006600083815260200190815260200160002060000160009054906101000a900473ffffffffffffffffffffffffffffffffffffffff169050600073ffffffffffffffffffffffffffffffffffffffff168173ffffffffffffffffffffffffffffffffffffffff161461211a57612115888888886114a7565b600090505b600073ffffffffffffffffffffffffffffffffffffffff168173ffffffffffffffffffffffffffffffffffffffff16146121bc576040517f08c379a000000000000000000000000000000000000000000000000000000000815260040180806020018281038252600b8152602001807f6f7264657220657869737400000000000000000000000000000000000000000081525060200191505060405180910390fd5b600073ffffffffffffffffffffffffffffffffffffffff168873ffffffffffffffffffffffffffffffffffffffff16141561225f576040517f08c379a00000000000000000000000000000000000000000000000000000000081526004018080602001828103825260128152602001807f5f6e6674436f6e7472616374206572726f72000000000000000000000000000081525060200191505060405180910390fd5b600073ffffffffffffffffffffffffffffffffffffffff168573ffffffffffffffffffffffffffffffffffffffff161415612302576040517f08c379a000000000000000000000000000000000000000000000000000000000815260040180806020018281038252600c8152602001807f5f746f6b656e206572726f72000000000000000000000000000000000000000081525060200191505060405180910390fd5b6000841415612379576040517f08c379a000000000000000000000000000000000000000000000000000000000815260040180806020018281038252600c8152602001807f5f7072696365206572726f72000000000000000000000000000000000000000081525060200191505060405180910390fd5b336006600084815260200190815260200160002060000160006101000a81548173ffffffffffffffffffffffffffffffffffffffff021916908373ffffffffffffffffffffffffffffffffffffffff160217905550876006600084815260200190815260200160002060010160006101000a81548173ffffffffffffffffffffffffffffffffffffffff021916908373ffffffffffffffffffffffffffffffffffffffff1602179055508686600660008581526020019081526020016000206002019190612448929190613566565b50846006600084815260200190815260200160002060030160006101000a81548173ffffffffffffffffffffffffffffffffffffffff021916908373ffffffffffffffffffffffffffffffffffffffff16021790555083600660008481526020019081526020016000206004018190555082600660008481526020019081526020016000206005018190555042600660008481526020019081526020016000206006018190555060005b878790508110156125465787878281811061250957fe5b90506020020135600760008a8a8581811061252057fe5b9050602002013581526020019081526020016000208190555080806001019150506124f2565b5061255b826004612eae90919063ffffffff16565b50838573ffffffffffffffffffffffffffffffffffffffff168973ffffffffffffffffffffffffffffffffffffffff167f1193a7c16621bd73622a9ac216ec8bc820ce50ea89f64c4a575c30c85d5742068a8a888860405180806020018481526020018381526020018281038252868682818152602001925060200280828437600081840152601f19601f8201169050808301925050509550505050505060405180910390a45050505050505050565b60025481565b81811215612687576040517f08c379a00000000000000000000000000000000000000000000000000000000081526004018080602001828103825260118152602001807f746f2073686f756c64203e3d2066726f6d00000000000000000000000000000081525060200191505060405180910390fd5b60008190505b828112612a5f5760006126aa826004612e6090919063ffffffff16565b90506126b5816111a6565b612a50576126c16134c6565b600660008381526020019081526020016000206040518060e00160405290816000820160009054906101000a900473ffffffffffffffffffffffffffffffffffffffff1673ffffffffffffffffffffffffffffffffffffffff1673ffffffffffffffffffffffffffffffffffffffff1681526020016001820160009054906101000a900473ffffffffffffffffffffffffffffffffffffffff1673ffffffffffffffffffffffffffffffffffffffff1673ffffffffffffffffffffffffffffffffffffffff168152602001600282018054806020026020016040519081016040528092919081815260200182805480156127da57602002820191906000526020600020905b8154815260200190600101908083116127c6575b505050505081526020016003820160009054906101000a900473ffffffffffffffffffffffffffffffffffffffff1673ffffffffffffffffffffffffffffffffffffffff1673ffffffffffffffffffffffffffffffffffffffff1681526020016004820154815260200160058201548152602001600682015481525050905061286d826004612a6490919063ffffffff16565b5060066000838152602001908152602001600020600080820160006101000a81549073ffffffffffffffffffffffffffffffffffffffff02191690556001820160006101000a81549073ffffffffffffffffffffffffffffffffffffffff02191690556002820160006128e09190613545565b6003820160006101000a81549073ffffffffffffffffffffffffffffffffffffffff0219169055600482016000905560058201600090556006820160009055505060005b81604001515181101561296c57600760008360400151838151811061294557fe5b60200260200101518152602001908152602001600020600090558080600101915050612924565b508060800151816000015173ffffffffffffffffffffffffffffffffffffffff16837f9a9aa1d7c42f50caf2407ac70974e40cdaba5d7ac78e26f7689fc5888abeebfa84604001518560200151866060015160405180806020018473ffffffffffffffffffffffffffffffffffffffff1681526020018373ffffffffffffffffffffffffffffffffffffffff168152602001828103825285818151815260200191508051906020019060200280838360005b83811015612a39578082015181840152602081019050612a1e565b5050505090500194505050505060405180910390a4505b5080806001900391505061268d565b505050565b6000612a76836000018360001b612ec8565b905092915050565b600080831415612a915760009050612afe565b6000828402905082848281612aa257fe5b0414612af9576040517f08c379a00000000000000000000000000000000000000000000000000000000081526004018080602001828103825260218152602001806136a66021913960400191505060405180910390fd5b809150505b92915050565b6000808211612b7b576040517f08c379a000000000000000000000000000000000000000000000000000000000815260040180806020018281038252601a8152602001807f536166654d6174683a206469766973696f6e206279207a65726f00000000000081525060200191505060405180910390fd5b818381612b8457fe5b04905092915050565b612c48846323b872dd60e01b858585604051602401808473ffffffffffffffffffffffffffffffffffffffff1681526020018373ffffffffffffffffffffffffffffffffffffffff1681526020018281526020019350505050604051602081830303815290604052907bffffffffffffffffffffffffffffffffffffffffffffffffffffffff19166020820180517bffffffffffffffffffffffffffffffffffffffffffffffffffffffff8381831617835250505050612fb0565b50505050565b600082821115612cc6576040517f08c379a000000000000000000000000000000000000000000000000000000000815260040180806020018281038252601e8152602001807f536166654d6174683a207375627472616374696f6e206f766572666c6f77000081525060200191505060405180910390fd5b818303905092915050565b6000612cdf8260000161309f565b9050919050565b600033905090565b612d1681600160008581526020019081526020016000206000016130b090919063ffffffff16565b15612d7e57612d23612ce6565b73ffffffffffffffffffffffffffffffffffffffff168173ffffffffffffffffffffffffffffffffffffffff16837f2f8788117e7eff1d82e926ec794901d17c78024a50270940304540a733656f0d60405160405180910390a45b5050565b612daa81600160008581526020019081526020016000206000016130e090919063ffffffff16565b15612e1257612db7612ce6565b73ffffffffffffffffffffffffffffffffffffffff168173ffffffffffffffffffffffffffffffffffffffff16837ff6391f5c32d9c69d2a47ea670b442974b53935d1edc7fd64eb21e047a839171b60405160405180910390a45b5050565b6000612e258360000183613110565b60001c905092915050565b6000612e58836000018373ffffffffffffffffffffffffffffffffffffffff1660001b613193565b905092915050565b6000612e6f8360000183613110565b60001c905092915050565b6000612e85306131b6565b15905090565b612e958282612cee565b5050565b6000612ea78260000161309f565b9050919050565b6000612ec0836000018360001b6131c9565b905092915050565b60008083600101600084815260200190815260200160002054905060008114612fa45760006001820390506000600186600001805490500390506000866000018281548110612f1357fe5b9060005260206000200154905080876000018481548110612f3057fe5b9060005260206000200181905550600183018760010160008381526020019081526020016000208190555086600001805480612f6857fe5b60019003818190600052602060002001600090559055866001016000878152602001908152602001600020600090556001945050505050612faa565b60009150505b92915050565b6060613012826040518060400160405280602081526020017f5361666545524332303a206c6f772d6c6576656c2063616c6c206661696c65648152508573ffffffffffffffffffffffffffffffffffffffff166132399092919063ffffffff16565b905060008151111561309a5780806020019051602081101561303357600080fd5b8101908080519060200190929190505050613099576040517f08c379a000000000000000000000000000000000000000000000000000000000815260040180806020018281038252602a8152602001806136c7602a913960400191505060405180910390fd5b5b505050565b600081600001805490509050919050565b60006130d8836000018373ffffffffffffffffffffffffffffffffffffffff1660001b6131c9565b905092915050565b6000613108836000018373ffffffffffffffffffffffffffffffffffffffff1660001b612ec8565b905092915050565b600081836000018054905011613171576040517f08c379a00000000000000000000000000000000000000000000000000000000081526004018080602001828103825260228152602001806135d16022913960400191505060405180910390fd5b82600001828154811061318057fe5b9060005260206000200154905092915050565b600080836001016000848152602001908152602001600020541415905092915050565b600080823b905060008111915050919050565b60006131d58383613193565b61322e578260000182908060018154018082558091505060019003906000526020600020016000909190919091505582600001805490508360010160008481526020019081526020016000208190555060019050613233565b600090505b92915050565b60606132488484600085613251565b90509392505050565b6060824710156132ac576040517f08c379a00000000000000000000000000000000000000000000000000000000081526004018080602001828103825260268152602001806136226026913960400191505060405180910390fd5b6132b5856131b6565b613327576040517f08c379a000000000000000000000000000000000000000000000000000000000815260040180806020018281038252601d8152602001807f416464726573733a2063616c6c20746f206e6f6e2d636f6e747261637400000081525060200191505060405180910390fd5b600060608673ffffffffffffffffffffffffffffffffffffffff1685876040518082805190602001908083835b602083106133775780518252602082019150602081019050602083039250613354565b6001836020036101000a03801982511681845116808217855250505050505090500191505060006040518083038185875af1925050503d80600081146133d9576040519150601f19603f3d011682016040523d82523d6000602084013e6133de565b606091505b50915091506133ee8282866133fa565b92505050949350505050565b6060831561340a578290506134bf565b60008351111561341d5782518084602001fd5b816040517f08c379a00000000000000000000000000000000000000000000000000000000081526004018080602001828103825283818151815260200191508051906020019080838360005b83811015613484578082015181840152602081019050613469565b50505050905090810190601f1680156134b15780820380516001836020036101000a031916815260200191505b509250505060405180910390fd5b9392505050565b6040518060e00160405280600073ffffffffffffffffffffffffffffffffffffffff168152602001600073ffffffffffffffffffffffffffffffffffffffff16815260200160608152602001600073ffffffffffffffffffffffffffffffffffffffff1681526020016000815260200160008152602001600081525090565b508054600082559060005260206000209081019061356391906135b3565b50565b8280548282559060005260206000209081019282156135a2579160200282015b828111156135a1578235825591602001919060010190613586565b5b5090506135af91906135b3565b5090565b5b808211156135cc5760008160009055506001016135b4565b509056fe456e756d657261626c655365743a20696e646578206f7574206f6620626f756e6473416363657373436f6e74726f6c3a2073656e646572206d75737420626520616e2061646d696e20746f206772616e74416464726573733a20696e73756666696369656e742062616c616e636520666f722063616c6c416363657373436f6e74726f6c3a2073656e646572206d75737420626520616e2061646d696e20746f207265766f6b65496e697469616c697a61626c653a20636f6e747261637420697320616c726561647920696e697469616c697a6564536166654d6174683a206d756c7469706c69636174696f6e206f766572666c6f775361666545524332303a204552433230206f7065726174696f6e20646964206e6f742073756363656564416363657373436f6e74726f6c3a2063616e206f6e6c792072656e6f756e636520726f6c657320666f722073656c66a264697066735822122027ff0fe2297b01abc7ce3ef7725ae37a15db02b05c649d2b87f9201eb504cfec64736f6c634300060c0033",
  "immutableReferences": {},
  "source": "// SPDX-License-Identifier: MIT\npragma solidity 0.6.12;\n\nimport \"@openzeppelin/contracts/math/SafeMath.sol\";\nimport \"@openzeppelin/contracts/token/ERC721/IERC721.sol\";\nimport \"@openzeppelin/contracts/token/ERC20/IERC20.sol\";\nimport \"@openzeppelin/contracts/token/ERC20/SafeERC20.sol\";\nimport \"@openzeppelin/contracts/access/AccessControl.sol\";\nimport \"@openzeppelin/contracts/proxy/Initializable.sol\";\nimport \"./FwarMarketStorage.sol\";\n\n\ncontract FwarMarketDelegate is Initializable, AccessControl, FwarMarketStorage {\n    using SafeERC20 for IERC20;\n\n    event CreateOrder(address indexed _nftContract, uint[] _nftIds, address indexed _token, uint indexed _price, uint _expiration, uint _orderId);\n\n    event CancelOrder(uint[] _nftIds);\n\n    event BuyOrder(uint indexed _orderId, uint[] _nftIds, address indexed _buyer, address _seller, address _nftContract, address _token, uint indexed price);\n    \n    event CleanOrder(uint indexed _orderId, uint[] _nftIds, address indexed _seller, address _nftContract, address _token, uint indexed price);\n\n    function initialize(address admin) public payable initializer {\n        _setupRole(DEFAULT_ADMIN_ROLE, admin);\n        maxExpirationTime = 14 days;\n        minExpirationTime = 1 days;\n    }\n\n    function configExpiration(uint _minExpirationTime, uint _maxExpirationTime) public {\n        require(hasRole(DEFAULT_ADMIN_ROLE, msg.sender));\n        maxExpirationTime = _maxExpirationTime;\n        minExpirationTime = _minExpirationTime;\n    }\n\n    function configFee(address _feeTo, uint _feeRate) public {\n        require(hasRole(DEFAULT_ADMIN_ROLE, msg.sender));\n        feeTo = _feeTo;\n        feeRate = _feeRate;\n    }\n\n    /// @dev createOrder is called by a seller\n    /// @param _nftContract is the NFT contract address\n    /// @param _nftIds is the array of nftId to sell\n    /// @param _expiration is the expiration of order in seconds\n    /// @param _token is the pay token contract address for buyer\n    /// @param _price is the amount of pay token\n    function createOrder(address _nftContract, uint[] calldata _nftIds, address _token, uint _price, uint _expiration) external {\n        require(IERC721(_nftContract).isApprovedForAll(msg.sender, address(this)), \"Must approve first\");\n        require(_expiration <= maxExpirationTime, \"expiration too large\");\n        require(_expiration >= minExpirationTime, \"expiration too small\");\n        require(_nftIds.length <= 4, \"amount selling nft exceed \");\n        for (uint i = 0; i < _nftIds.length; i++) {\n            require(_nftIds[i] != 0, \"_nftIds error\");\n            require(IERC721(_nftContract).ownerOf(_nftIds[i]) == msg.sender, \"You have no access\");\n            require(sellingNFT[_nftIds[i]] == 0, \"nft is selling\");\n        }\n        uint orderId = uint(keccak256(abi.encode(msg.sender, _nftIds, _nftContract, _token)));\n        address owner = orders[orderId].owner;\n        if (owner != address(0)) {\n            cancelOrder(_nftContract, _nftIds, _token);\n            owner = address(0);\n        }\n        require(owner == address(0), \"order exist\");\n        require(_nftContract != address(0), \"_nftContract error\");\n        require(_token != address(0), \"_token error\");\n        require(_price != 0, \"_price error\");\n\n        orders[orderId].owner = msg.sender;\n        orders[orderId].nftContract = _nftContract;\n        orders[orderId].nftIds = _nftIds;\n        orders[orderId].token = _token;\n        orders[orderId].price = _price;\n        orders[orderId].expiration = _expiration;\n        orders[orderId].createTime = block.timestamp;\n\n        for (uint i = 0; i < _nftIds.length; i++) {\n            sellingNFT[_nftIds[i]] = _nftIds[i];\n        }\n        orderIds.add(orderId);\n\n        emit CreateOrder(_nftContract, _nftIds, _token, _price, _expiration, orderId);\n    }\n\n    /// @param _nftContract is the NFT contract address\n    /// @param _nftIds is the array of nftId\n    /// @param _token is the pay token contract address for buyer\n    function cancelOrder(address _nftContract, uint[] calldata _nftIds, address _token) public {\n        uint orderId = uint(keccak256(abi.encode(msg.sender, _nftIds, _nftContract, _token)));\n        address owner = orders[orderId].owner;\n        require(owner != address(0), \"order not exist\");\n        require(owner == msg.sender, \"order not yours\");\n        orderIds.remove(orderId);\n        delete orders[orderId];\n\n        for (uint i = 0; i < _nftIds.length; i++) {\n            delete sellingNFT[_nftIds[i]];\n        }\n\n        emit CancelOrder(_nftIds);\n    }\n\n    function buyOrder(uint _orderId) external {\n        require(checkOrderValid(_orderId), \"order is not valid\");\n        OrderInfo memory order = orders[_orderId];\n\n        orderIds.remove(_orderId);\n        delete orders[_orderId];\n\n        uint total = order.price;\n        uint fee = total.mul(feeRate).div(1e12);\n\n        // transfer fee\n        IERC20(order.token).safeTransferFrom(msg.sender, feeTo, fee);\n\n        IERC20(order.token).safeTransferFrom(msg.sender, order.owner, order.price.sub(fee));\n        for (uint i = 0; i < order.nftIds.length; i++) {\n            IERC721(order.nftContract).safeTransferFrom(order.owner, msg.sender, order.nftIds[i]);\n        }\n        \n        emit BuyOrder(_orderId, order.nftIds, msg.sender, order.owner, order.nftContract, order.token, order.price);\n    }\n\n    function orderCount() public view returns (uint) {\n        return orderIds.length();\n    }\n\n    function getOrderId(uint index) public view returns (uint orderId, bool isValid) {\n        uint id = orderIds.at(index);\n        return (id, checkOrderValid(id));\n    }\n\n    function getOrderById(uint orderId) public view returns (address owner, uint[] memory nftIds, address token, uint price, uint expiration, uint createTime) {\n        OrderInfo storage info = orders[orderId];\n        owner = info.owner;\n        nftIds = info.nftIds;\n        token = info.token;\n        price = info.price;\n        expiration = info.expiration;\n        createTime = info.createTime;\n    }\n\n    function checkOrderValid(uint orderId) public view returns (bool) {\n        OrderInfo storage info = orders[orderId];\n        for (uint i = 0; i < info.nftIds.length; i++) {\n            if (IERC721(info.nftContract).ownerOf(info.nftIds[i]) != info.owner) {\n                return false;\n            }\n        }\n\n        if (!IERC721(info.nftContract).isApprovedForAll(info.owner, address(this))) {\n            return false;\n        }\n\n        if (info.createTime + info.expiration < block.timestamp) {\n            return false;\n        }\n\n        return true;\n    }\n\n    function cleanInvalidOrders(int from, int to) public {\n        require(to >= from, \"to should >= from\");\n        for (int i=to; i>= from; i--) {\n            uint orderId = orderIds.at(uint(i));\n            if (!checkOrderValid(orderId)) {\n                OrderInfo memory info = orders[orderId];\n                orderIds.remove(orderId);\n                delete orders[orderId];\n                for (uint j = 0; j < info.nftIds.length; j++) {\n                    delete sellingNFT[info.nftIds[j]];\n                }\n                emit CleanOrder(orderId, info.nftIds, info.owner, info.nftContract, info.token, info.price);\n            }\n        }\n    }\n}\n",
  "sourcePath": "/Users/badung1870/Working/Node/Fwar/FwarMarket/contracts/FwarMarketDelegate.sol",
  "compiler": {
    "name": "solc",
    "version": "0.6.12+commit.27d51765.Emscripten.clang"
  },
  "schemaVersion": "3.4.3",
  "updatedAt": "2021-09-23T10:49:56.394Z",
  "networkType": "ethereum",
  "devdoc": {
    "kind": "dev",
    "methods": {
      "cancelOrder(address,uint256[],address)": {
        "params": {
          "_nftContract": "is the NFT contract address",
          "_nftIds": "is the array of nftId",
          "_token": "is the pay token contract address for buyer"
        }
      },
      "createOrder(address,uint256[],address,uint256,uint256)": {
        "details": "createOrder is called by a seller",
        "params": {
          "_expiration": "is the expiration of order in seconds",
          "_nftContract": "is the NFT contract address",
          "_nftIds": "is the array of nftId to sell",
          "_price": "is the amount of pay token",
          "_token": "is the pay token contract address for buyer"
        }
      },
      "getRoleAdmin(bytes32)": {
        "details": "Returns the admin role that controls `role`. See {grantRole} and {revokeRole}. To change a role's admin, use {_setRoleAdmin}."
      },
      "getRoleMember(bytes32,uint256)": {
        "details": "Returns one of the accounts that have `role`. `index` must be a value between 0 and {getRoleMemberCount}, non-inclusive. Role bearers are not sorted in any particular way, and their ordering may change at any point. WARNING: When using {getRoleMember} and {getRoleMemberCount}, make sure you perform all queries on the same block. See the following https://forum.openzeppelin.com/t/iterating-over-elements-on-enumerableset-in-openzeppelin-contracts/2296[forum post] for more information."
      },
      "getRoleMemberCount(bytes32)": {
        "details": "Returns the number of accounts that have `role`. Can be used together with {getRoleMember} to enumerate all bearers of a role."
      },
      "grantRole(bytes32,address)": {
        "details": "Grants `role` to `account`. If `account` had not been already granted `role`, emits a {RoleGranted} event. Requirements: - the caller must have ``role``'s admin role."
      },
      "hasRole(bytes32,address)": {
        "details": "Returns `true` if `account` has been granted `role`."
      },
      "renounceRole(bytes32,address)": {
        "details": "Revokes `role` from the calling account. Roles are often managed via {grantRole} and {revokeRole}: this function's purpose is to provide a mechanism for accounts to lose their privileges if they are compromised (such as when a trusted device is misplaced). If the calling account had been granted `role`, emits a {RoleRevoked} event. Requirements: - the caller must be `account`."
      },
      "revokeRole(bytes32,address)": {
        "details": "Revokes `role` from `account`. If `account` had been granted `role`, emits a {RoleRevoked} event. Requirements: - the caller must have ``role``'s admin role."
      }
    },
    "version": 1
  },
  "userdoc": {
    "kind": "user",
    "methods": {},
    "version": 1
  }
}