{
  "contractName": "FwarMarketDelegate",
  "abi": [
    {
      "anonymous": false,
      "inputs": [
        {
          "indexed": true,
          "internalType": "uint256",
          "name": "_orderId",
          "type": "uint256"
        },
        {
          "indexed": false,
          "internalType": "uint256[]",
          "name": "_nftIds",
          "type": "uint256[]"
        },
        {
          "indexed": true,
          "internalType": "address",
          "name": "_buyer",
          "type": "address"
        },
        {
          "indexed": false,
          "internalType": "address",
          "name": "_seller",
          "type": "address"
        },
        {
          "indexed": false,
          "internalType": "address",
          "name": "_nftContract",
          "type": "address"
        },
        {
          "indexed": false,
          "internalType": "address",
          "name": "_token",
          "type": "address"
        },
        {
          "indexed": true,
          "internalType": "uint256",
          "name": "price",
          "type": "uint256"
        }
      ],
      "name": "BuyOrder",
      "type": "event"
    },
    {
      "anonymous": false,
      "inputs": [
        {
          "indexed": true,
          "internalType": "address",
          "name": "_owner",
          "type": "address"
        },
        {
          "indexed": true,
          "internalType": "address",
          "name": "_nftContract",
          "type": "address"
        },
        {
          "indexed": true,
          "internalType": "uint256",
          "name": "_orderId",
          "type": "uint256"
        },
        {
          "indexed": false,
          "internalType": "uint256[]",
          "name": "_nftIds",
          "type": "uint256[]"
        }
      ],
      "name": "CancelOrder",
      "type": "event"
    },
    {
      "anonymous": false,
      "inputs": [
        {
          "indexed": true,
          "internalType": "uint256",
          "name": "_orderId",
          "type": "uint256"
        },
        {
          "indexed": false,
          "internalType": "uint256[]",
          "name": "_nftIds",
          "type": "uint256[]"
        },
        {
          "indexed": true,
          "internalType": "address",
          "name": "_seller",
          "type": "address"
        },
        {
          "indexed": false,
          "internalType": "address",
          "name": "_nftContract",
          "type": "address"
        },
        {
          "indexed": false,
          "internalType": "address",
          "name": "_token",
          "type": "address"
        },
        {
          "indexed": true,
          "internalType": "uint256",
          "name": "price",
          "type": "uint256"
        }
      ],
      "name": "CleanOrder",
      "type": "event"
    },
    {
      "anonymous": false,
      "inputs": [
        {
          "indexed": false,
          "internalType": "address",
          "name": "_owner",
          "type": "address"
        },
        {
          "indexed": true,
          "internalType": "address",
          "name": "_nftContract",
          "type": "address"
        },
        {
          "indexed": false,
          "internalType": "uint256[]",
          "name": "_nftIds",
          "type": "uint256[]"
        },
        {
          "indexed": true,
          "internalType": "address",
          "name": "_token",
          "type": "address"
        },
        {
          "indexed": true,
          "internalType": "uint256",
          "name": "_price",
          "type": "uint256"
        },
        {
          "indexed": false,
          "internalType": "uint256",
          "name": "_expiration",
          "type": "uint256"
        },
        {
          "indexed": false,
          "internalType": "uint256",
          "name": "_orderId",
          "type": "uint256"
        }
      ],
      "name": "CreateOrder",
      "type": "event"
    },
    {
      "anonymous": false,
      "inputs": [
        {
          "indexed": true,
          "internalType": "bytes32",
          "name": "role",
          "type": "bytes32"
        },
        {
          "indexed": true,
          "internalType": "bytes32",
          "name": "previousAdminRole",
          "type": "bytes32"
        },
        {
          "indexed": true,
          "internalType": "bytes32",
          "name": "newAdminRole",
          "type": "bytes32"
        }
      ],
      "name": "RoleAdminChanged",
      "type": "event"
    },
    {
      "anonymous": false,
      "inputs": [
        {
          "indexed": true,
          "internalType": "bytes32",
          "name": "role",
          "type": "bytes32"
        },
        {
          "indexed": true,
          "internalType": "address",
          "name": "account",
          "type": "address"
        },
        {
          "indexed": true,
          "internalType": "address",
          "name": "sender",
          "type": "address"
        }
      ],
      "name": "RoleGranted",
      "type": "event"
    },
    {
      "anonymous": false,
      "inputs": [
        {
          "indexed": true,
          "internalType": "bytes32",
          "name": "role",
          "type": "bytes32"
        },
        {
          "indexed": true,
          "internalType": "address",
          "name": "account",
          "type": "address"
        },
        {
          "indexed": true,
          "internalType": "address",
          "name": "sender",
          "type": "address"
        }
      ],
      "name": "RoleRevoked",
      "type": "event"
    },
    {
      "inputs": [],
      "name": "DEFAULT_ADMIN_ROLE",
      "outputs": [
        {
          "internalType": "bytes32",
          "name": "",
          "type": "bytes32"
        }
      ],
      "stateMutability": "view",
      "type": "function"
    },
    {
      "inputs": [],
      "name": "feeRate",
      "outputs": [
        {
          "internalType": "uint256",
          "name": "",
          "type": "uint256"
        }
      ],
      "stateMutability": "view",
      "type": "function"
    },
    {
      "inputs": [],
      "name": "feeTo",
      "outputs": [
        {
          "internalType": "address",
          "name": "",
          "type": "address"
        }
      ],
      "stateMutability": "view",
      "type": "function"
    },
    {
      "inputs": [
        {
          "internalType": "bytes32",
          "name": "role",
          "type": "bytes32"
        }
      ],
      "name": "getRoleAdmin",
      "outputs": [
        {
          "internalType": "bytes32",
          "name": "",
          "type": "bytes32"
        }
      ],
      "stateMutability": "view",
      "type": "function"
    },
    {
      "inputs": [
        {
          "internalType": "bytes32",
          "name": "role",
          "type": "bytes32"
        },
        {
          "internalType": "uint256",
          "name": "index",
          "type": "uint256"
        }
      ],
      "name": "getRoleMember",
      "outputs": [
        {
          "internalType": "address",
          "name": "",
          "type": "address"
        }
      ],
      "stateMutability": "view",
      "type": "function"
    },
    {
      "inputs": [
        {
          "internalType": "bytes32",
          "name": "role",
          "type": "bytes32"
        }
      ],
      "name": "getRoleMemberCount",
      "outputs": [
        {
          "internalType": "uint256",
          "name": "",
          "type": "uint256"
        }
      ],
      "stateMutability": "view",
      "type": "function"
    },
    {
      "inputs": [
        {
          "internalType": "bytes32",
          "name": "role",
          "type": "bytes32"
        },
        {
          "internalType": "address",
          "name": "account",
          "type": "address"
        }
      ],
      "name": "grantRole",
      "outputs": [],
      "stateMutability": "nonpayable",
      "type": "function"
    },
    {
      "inputs": [
        {
          "internalType": "bytes32",
          "name": "role",
          "type": "bytes32"
        },
        {
          "internalType": "address",
          "name": "account",
          "type": "address"
        }
      ],
      "name": "hasRole",
      "outputs": [
        {
          "internalType": "bool",
          "name": "",
          "type": "bool"
        }
      ],
      "stateMutability": "view",
      "type": "function"
    },
    {
      "inputs": [],
      "name": "maxExpirationTime",
      "outputs": [
        {
          "internalType": "uint256",
          "name": "",
          "type": "uint256"
        }
      ],
      "stateMutability": "view",
      "type": "function"
    },
    {
      "inputs": [],
      "name": "minExpirationTime",
      "outputs": [
        {
          "internalType": "uint256",
          "name": "",
          "type": "uint256"
        }
      ],
      "stateMutability": "view",
      "type": "function"
    },
    {
      "inputs": [
        {
          "internalType": "bytes32",
          "name": "role",
          "type": "bytes32"
        },
        {
          "internalType": "address",
          "name": "account",
          "type": "address"
        }
      ],
      "name": "renounceRole",
      "outputs": [],
      "stateMutability": "nonpayable",
      "type": "function"
    },
    {
      "inputs": [
        {
          "internalType": "bytes32",
          "name": "role",
          "type": "bytes32"
        },
        {
          "internalType": "address",
          "name": "account",
          "type": "address"
        }
      ],
      "name": "revokeRole",
      "outputs": [],
      "stateMutability": "nonpayable",
      "type": "function"
    },
    {
      "inputs": [
        {
          "internalType": "address",
          "name": "admin",
          "type": "address"
        }
      ],
      "name": "initialize",
      "outputs": [],
      "stateMutability": "payable",
      "type": "function"
    },
    {
      "inputs": [
        {
          "internalType": "uint256",
          "name": "_minExpirationTime",
          "type": "uint256"
        },
        {
          "internalType": "uint256",
          "name": "_maxExpirationTime",
          "type": "uint256"
        }
      ],
      "name": "configExpiration",
      "outputs": [],
      "stateMutability": "nonpayable",
      "type": "function"
    },
    {
      "inputs": [
        {
          "internalType": "address",
          "name": "_feeTo",
          "type": "address"
        },
        {
          "internalType": "uint256",
          "name": "_feeRate",
          "type": "uint256"
        }
      ],
      "name": "configFee",
      "outputs": [],
      "stateMutability": "nonpayable",
      "type": "function"
    },
    {
      "inputs": [],
      "name": "getFeeConfig",
      "outputs": [
        {
          "internalType": "address",
          "name": "feeTo",
          "type": "address"
        },
        {
          "internalType": "uint256",
          "name": "feeRate",
          "type": "uint256"
        }
      ],
      "stateMutability": "pure",
      "type": "function"
    },
    {
      "inputs": [
        {
          "internalType": "address",
          "name": "_nftContract",
          "type": "address"
        },
        {
          "internalType": "uint256[]",
          "name": "_nftIds",
          "type": "uint256[]"
        },
        {
          "internalType": "address",
          "name": "_token",
          "type": "address"
        },
        {
          "internalType": "uint256",
          "name": "_price",
          "type": "uint256"
        },
        {
          "internalType": "uint256",
          "name": "_expiration",
          "type": "uint256"
        }
      ],
      "name": "createOrder",
      "outputs": [],
      "stateMutability": "nonpayable",
      "type": "function"
    },
    {
      "inputs": [
        {
          "internalType": "address",
          "name": "_nftContract",
          "type": "address"
        },
        {
          "internalType": "uint256[]",
          "name": "_nftIds",
          "type": "uint256[]"
        },
        {
          "internalType": "address",
          "name": "_token",
          "type": "address"
        }
      ],
      "name": "cancelOrder",
      "outputs": [],
      "stateMutability": "nonpayable",
      "type": "function"
    },
    {
      "inputs": [
        {
          "internalType": "uint256",
          "name": "_orderId",
          "type": "uint256"
        }
      ],
      "name": "buyOrder",
      "outputs": [],
      "stateMutability": "nonpayable",
      "type": "function"
    },
    {
      "inputs": [],
      "name": "orderCount",
      "outputs": [
        {
          "internalType": "uint256",
          "name": "",
          "type": "uint256"
        }
      ],
      "stateMutability": "view",
      "type": "function"
    },
    {
      "inputs": [
        {
          "internalType": "uint256",
          "name": "index",
          "type": "uint256"
        }
      ],
      "name": "getOrderId",
      "outputs": [
        {
          "internalType": "uint256",
          "name": "orderId",
          "type": "uint256"
        },
        {
          "internalType": "bool",
          "name": "isValid",
          "type": "bool"
        }
      ],
      "stateMutability": "view",
      "type": "function"
    },
    {
      "inputs": [
        {
          "internalType": "uint256",
          "name": "orderId",
          "type": "uint256"
        }
      ],
      "name": "getOrderById",
      "outputs": [
        {
          "internalType": "address",
          "name": "owner",
          "type": "address"
        },
        {
          "internalType": "uint256[]",
          "name": "nftIds",
          "type": "uint256[]"
        },
        {
          "internalType": "address",
          "name": "token",
          "type": "address"
        },
        {
          "internalType": "uint256",
          "name": "price",
          "type": "uint256"
        },
        {
          "internalType": "uint256",
          "name": "expiration",
          "type": "uint256"
        },
        {
          "internalType": "uint256",
          "name": "createTime",
          "type": "uint256"
        }
      ],
      "stateMutability": "view",
      "type": "function"
    },
    {
      "inputs": [
        {
          "internalType": "uint256",
          "name": "orderId",
          "type": "uint256"
        }
      ],
      "name": "checkOrderValid",
      "outputs": [
        {
          "internalType": "bool",
          "name": "",
          "type": "bool"
        }
      ],
      "stateMutability": "view",
      "type": "function"
    },
    {
      "inputs": [
        {
          "internalType": "int256",
          "name": "from",
          "type": "int256"
        },
        {
          "internalType": "int256",
          "name": "to",
          "type": "int256"
        }
      ],
      "name": "cleanInvalidOrders",
      "outputs": [],
      "stateMutability": "nonpayable",
      "type": "function"
    }
  ],
  "bytecode": "0x608060405234801561001057600080fd5b50613a10806100206000396000f3fe60806040526004361061014b5760003560e01c80638a7b919a116100b6578063c4d66de81161006f578063c4d66de814610793578063ca15c873146107d7578063d547741f14610826578063ecf62fdc14610881578063f541b3821461095b578063f615c2bf146109865761014b565b80638a7b919a1461053f5780639010d07c1461060557806391d1485414610674578063978bbdb9146106e55780639d2166ae14610710578063a217fddf146107685761014b565b806336568abe1161010857806336568abe146102cc57806342b50a7a146103275780635fbbc0d2146104065780636967f9931461044e5780636b3b9a5b1461049357806385376c8a146104e45761014b565b8063017e7e581461015057806322f85eaa146101915780632453ffa8146101cc578063248a9ca3146101f75780632f2ff15d1461024657806331b412d7146102a1575b600080fd5b34801561015c57600080fd5b506101656109cb565b604051808273ffffffffffffffffffffffffffffffffffffffff16815260200191505060405180910390f35b34801561019d57600080fd5b506101ca600480360360208110156101b457600080fd5b81019080803590602001909291905050506109f1565b005b3480156101d857600080fd5b506101e1611058565b6040518082815260200191505060405180910390f35b34801561020357600080fd5b506102306004803603602081101561021a57600080fd5b8101908080359060200190929190505050611069565b6040518082815260200191505060405180910390f35b34801561025257600080fd5b5061029f6004803603604081101561026957600080fd5b8101908080359060200190929190803573ffffffffffffffffffffffffffffffffffffffff169060200190929190505050611089565b005b3480156102ad57600080fd5b506102b6611113565b6040518082815260200191505060405180910390f35b3480156102d857600080fd5b50610325600480360360408110156102ef57600080fd5b8101908080359060200190929190803573ffffffffffffffffffffffffffffffffffffffff169060200190929190505050611119565b005b34801561033357600080fd5b506103606004803603602081101561034a57600080fd5b81019080803590602001909291905050506111b2565b604051808773ffffffffffffffffffffffffffffffffffffffff168152602001806020018673ffffffffffffffffffffffffffffffffffffffff168152602001858152602001848152602001838152602001828103825287818151815260200191508051906020019060200280838360005b838110156103ed5780820151818401526020810190506103d2565b5050505090500197505050505050505060405180910390f35b34801561041257600080fd5b5061041b611295565b604051808373ffffffffffffffffffffffffffffffffffffffff1681526020018281526020019250505060405180910390f35b34801561045a57600080fd5b506104916004803603604081101561047157600080fd5b81019080803590602001909291908035906020019092919050505061129b565b005b34801561049f57600080fd5b506104cc600480360360208110156104b657600080fd5b81019080803590602001909291905050506112ca565b60405180821515815260200191505060405180910390f35b3480156104f057600080fd5b5061053d6004803603604081101561050757600080fd5b81019080803573ffffffffffffffffffffffffffffffffffffffff16906020019092919080359060200190929190505050611569565b005b34801561054b57600080fd5b506106036004803603606081101561056257600080fd5b81019080803573ffffffffffffffffffffffffffffffffffffffff1690602001909291908035906020019064010000000081111561059f57600080fd5b8201836020820111156105b157600080fd5b803590602001918460208302840111640100000000831117156105d357600080fd5b9091929391929390803573ffffffffffffffffffffffffffffffffffffffff1690602001909291905050506115d2565b005b34801561061157600080fd5b506106486004803603604081101561062857600080fd5b810190808035906020019092919080359060200190929190505050611a88565b604051808273ffffffffffffffffffffffffffffffffffffffff16815260200191505060405180910390f35b34801561068057600080fd5b506106cd6004803603604081101561069757600080fd5b8101908080359060200190929190803573ffffffffffffffffffffffffffffffffffffffff169060200190929190505050611aba565b60405180821515815260200191505060405180910390f35b3480156106f157600080fd5b506106fa611aec565b6040518082815260200191505060405180910390f35b34801561071c57600080fd5b506107496004803603602081101561073357600080fd5b8101908080359060200190929190505050611af2565b6040518083815260200182151581526020019250505060405180910390f35b34801561077457600080fd5b5061077d611b21565b6040518082815260200191505060405180910390f35b6107d5600480360360208110156107a957600080fd5b81019080803573ffffffffffffffffffffffffffffffffffffffff169060200190929190505050611b28565b005b3480156107e357600080fd5b50610810600480360360208110156107fa57600080fd5b8101908080359060200190929190505050611c48565b6040518082815260200191505060405180910390f35b34801561083257600080fd5b5061087f6004803603604081101561084957600080fd5b8101908080359060200190929190803573ffffffffffffffffffffffffffffffffffffffff169060200190929190505050611c6f565b005b34801561088d57600080fd5b50610959600480360360a08110156108a457600080fd5b81019080803573ffffffffffffffffffffffffffffffffffffffff169060200190929190803590602001906401000000008111156108e157600080fd5b8201836020820111156108f357600080fd5b8035906020019184602083028401116401000000008311171561091557600080fd5b9091929391929390803573ffffffffffffffffffffffffffffffffffffffff1690602001909291908035906020019092919080359060200190929190505050611cf9565b005b34801561096757600080fd5b5061097061285f565b6040518082815260200191505060405180910390f35b34801561099257600080fd5b506109c9600480360360408110156109a957600080fd5b810190808035906020019092919080359060200190929190505050612865565b005b600860009054906101000a900473ffffffffffffffffffffffffffffffffffffffff1681565b3273ffffffffffffffffffffffffffffffffffffffff16610a10612cf9565b73ffffffffffffffffffffffffffffffffffffffff1614610a99576040517f08c379a000000000000000000000000000000000000000000000000000000000815260040180806020018281038252601a8152602001807f63616e206e6f742063616c6c2066726f6d20636f6e747261637400000000000081525060200191505060405180910390fd5b610aa2816112ca565b610b14576040517f08c379a00000000000000000000000000000000000000000000000000000000081526004018080602001828103825260128152602001807f6f72646572206973206e6f742076616c6964000000000000000000000000000081525060200191505060405180910390fd5b610b1c61375b565b600660008381526020019081526020016000206040518060e00160405290816000820160009054906101000a900473ffffffffffffffffffffffffffffffffffffffff1673ffffffffffffffffffffffffffffffffffffffff1673ffffffffffffffffffffffffffffffffffffffff1681526020016001820160009054906101000a900473ffffffffffffffffffffffffffffffffffffffff1673ffffffffffffffffffffffffffffffffffffffff1673ffffffffffffffffffffffffffffffffffffffff16815260200160028201805480602002602001604051908101604052809291908181526020018280548015610c3557602002820191906000526020600020905b815481526020019060010190808311610c21575b505050505081526020016003820160009054906101000a900473ffffffffffffffffffffffffffffffffffffffff1673ffffffffffffffffffffffffffffffffffffffff1673ffffffffffffffffffffffffffffffffffffffff16815260200160048201548152602001600582015481526020016006820154815250509050610cc8826004612d0190919063ffffffff16565b5060066000838152602001908152602001600020600080820160006101000a81549073ffffffffffffffffffffffffffffffffffffffff02191690556001820160006101000a81549073ffffffffffffffffffffffffffffffffffffffff0219169055600282016000610d3b91906137da565b6003820160006101000a81549073ffffffffffffffffffffffffffffffffffffffff021916905560048201600090556005820160009055600682016000905550506000816080015190506000610db364e8d4a51000610da560095485612d1b90919063ffffffff16565b612da190919063ffffffff16565b9050610e0f610dc0612cf9565b600860009054906101000a900473ffffffffffffffffffffffffffffffffffffffff1683866060015173ffffffffffffffffffffffffffffffffffffffff16612e2a909392919063ffffffff16565b610e61610e1a612cf9565b8460000151610e36848760800151612eeb90919063ffffffff16565b866060015173ffffffffffffffffffffffffffffffffffffffff16612e2a909392919063ffffffff16565b60005b836040015151811015610f4b57836020015173ffffffffffffffffffffffffffffffffffffffff166342842e0e8560000151610e9e612cf9565b87604001518581518110610eae57fe5b60200260200101516040518463ffffffff1660e01b8152600401808473ffffffffffffffffffffffffffffffffffffffff1681526020018373ffffffffffffffffffffffffffffffffffffffff1681526020018281526020019350505050600060405180830381600087803b158015610f2657600080fd5b505af1158015610f3a573d6000803e3d6000fd5b505050508080600101915050610e64565b508260800151610f59612cf9565b73ffffffffffffffffffffffffffffffffffffffff16857ff7e635981964511d001a05bcef6b8d34da1521d32fd3ca8987500de472e95289866040015187600001518860200151896060015160405180806020018573ffffffffffffffffffffffffffffffffffffffff1681526020018473ffffffffffffffffffffffffffffffffffffffff1681526020018373ffffffffffffffffffffffffffffffffffffffff168152602001828103825286818151815260200191508051906020019060200280838360005b8381101561103c578082015181840152602081019050611021565b505050509050019550505050505060405180910390a450505050565b60006110646004612f6e565b905090565b600060016000838152602001908152602001600020600201549050919050565b6110b060016000848152602001908152602001600020600201546110ab612cf9565b611aba565b611105576040517f08c379a000000000000000000000000000000000000000000000000000000000815260040180806020018281038252602f815260200180613888602f913960400191505060405180910390fd5b61110f8282612f83565b5050565b60035481565b611121612cf9565b73ffffffffffffffffffffffffffffffffffffffff168173ffffffffffffffffffffffffffffffffffffffff16146111a4576040517f08c379a000000000000000000000000000000000000000000000000000000000815260040180806020018281038252602f8152602001806139ac602f913960400191505060405180910390fd5b6111ae8282613017565b5050565b6000606060008060008060006006600089815260200190815260200160002090508060000160009054906101000a900473ffffffffffffffffffffffffffffffffffffffff1696508060020180548060200260200160405190810160405280929190818152602001828054801561124857602002820191906000526020600020905b815481526020019060010190808311611234575b505050505095508060030160009054906101000a900473ffffffffffffffffffffffffffffffffffffffff1694508060040154935080600501549250806006015491505091939550919395565b60008091565b6112af6000801b6112aa612cf9565b611aba565b6112b857600080fd5b80600281905550816003819055505050565b60008060066000848152602001908152602001600020905060005b816002018054905081101561142b578160000160009054906101000a900473ffffffffffffffffffffffffffffffffffffffff1673ffffffffffffffffffffffffffffffffffffffff168260010160009054906101000a900473ffffffffffffffffffffffffffffffffffffffff1673ffffffffffffffffffffffffffffffffffffffff16636352211e84600201848154811061137e57fe5b90600052602060002001546040518263ffffffff1660e01b81526004018082815260200191505060206040518083038186803b1580156113bd57600080fd5b505afa1580156113d1573d6000803e3d6000fd5b505050506040513d60208110156113e757600080fd5b810190808051906020019092919050505073ffffffffffffffffffffffffffffffffffffffff161461141e57600092505050611564565b80806001019150506112e5565b508060010160009054906101000a900473ffffffffffffffffffffffffffffffffffffffff1673ffffffffffffffffffffffffffffffffffffffff1663e985e9c58260000160009054906101000a900473ffffffffffffffffffffffffffffffffffffffff16306040518363ffffffff1660e01b8152600401808373ffffffffffffffffffffffffffffffffffffffff1681526020018273ffffffffffffffffffffffffffffffffffffffff1681526020019250505060206040518083038186803b1580156114f957600080fd5b505afa15801561150d573d6000803e3d6000fd5b505050506040513d602081101561152357600080fd5b8101908080519060200190929190505050611542576000915050611564565b428160050154826006015401101561155e576000915050611564565b60019150505b919050565b61157d6000801b611578612cf9565b611aba565b61158657600080fd5b81600860006101000a81548173ffffffffffffffffffffffffffffffffffffffff021916908373ffffffffffffffffffffffffffffffffffffffff160217905550806009819055505050565b3273ffffffffffffffffffffffffffffffffffffffff166115f1612cf9565b73ffffffffffffffffffffffffffffffffffffffff161461165d576040517f08c379a00000000000000000000000000000000000000000000000000000000081526004018080602001828103825260268152602001806138dd6026913960400191505060405180910390fd5b6000611667612cf9565b84848785604051602001808673ffffffffffffffffffffffffffffffffffffffff168152602001806020018473ffffffffffffffffffffffffffffffffffffffff1681526020018373ffffffffffffffffffffffffffffffffffffffff1681526020018281038252868682818152602001925060200280828437600081840152601f19601f82011690508083019250505096505050505050506040516020818303038152906040528051906020012060001c905060006006600083815260200190815260200160002060000160009054906101000a900473ffffffffffffffffffffffffffffffffffffffff169050600073ffffffffffffffffffffffffffffffffffffffff168173ffffffffffffffffffffffffffffffffffffffff1614156117f9576040517f08c379a000000000000000000000000000000000000000000000000000000000815260040180806020018281038252600f8152602001807f6f72646572206e6f74206578697374000000000000000000000000000000000081525060200191505060405180910390fd5b611801612cf9565b73ffffffffffffffffffffffffffffffffffffffff168173ffffffffffffffffffffffffffffffffffffffff16146118a1576040517f08c379a000000000000000000000000000000000000000000000000000000000815260040180806020018281038252600f8152602001807f6f72646572206e6f7420796f757273000000000000000000000000000000000081525060200191505060405180910390fd5b6118b5826004612d0190919063ffffffff16565b5060066000838152602001908152602001600020600080820160006101000a81549073ffffffffffffffffffffffffffffffffffffffff02191690556001820160006101000a81549073ffffffffffffffffffffffffffffffffffffffff021916905560028201600061192891906137da565b6003820160006101000a81549073ffffffffffffffffffffffffffffffffffffffff0219169055600482016000905560058201600090556006820160009055505060005b858590508110156119ea576007600087878481811061198757fe5b90506020020135815260200190815260200160002060008873ffffffffffffffffffffffffffffffffffffffff1673ffffffffffffffffffffffffffffffffffffffff16815260200190815260200160002060009055808060010191505061196c565b50818673ffffffffffffffffffffffffffffffffffffffff168273ffffffffffffffffffffffffffffffffffffffff167f3b63a5b9b9b33835d523ff00b147a0224d3468ea8554f16591b79dc5fea192a1888860405180806020018281038252848482818152602001925060200280828437600081840152601f19601f820116905080830192505050935050505060405180910390a4505050505050565b6000611ab282600160008681526020019081526020016000206000016130ab90919063ffffffff16565b905092915050565b6000611ae482600160008681526020019081526020016000206000016130c590919063ffffffff16565b905092915050565b60095481565b6000806000611b0b8460046130f590919063ffffffff16565b905080611b17826112ca565b9250925050915091565b6000801b81565b600060019054906101000a900460ff1680611b475750611b4661310f565b5b80611b5d575060008054906101000a900460ff16155b611bb2576040517f08c379a000000000000000000000000000000000000000000000000000000000815260040180806020018281038252602e815260200180613933602e913960400191505060405180910390fd5b60008060019054906101000a900460ff161590508015611c02576001600060016101000a81548160ff02191690831515021790555060016000806101000a81548160ff0219169083151502179055505b611c0f6000801b83613120565b62127500600281905550620151806003819055508015611c445760008060016101000a81548160ff0219169083151502179055505b5050565b6000611c686001600084815260200190815260200160002060000161312e565b9050919050565b611c966001600084815260200190815260200160002060020154611c91612cf9565b611aba565b611ceb576040517f08c379a00000000000000000000000000000000000000000000000000000000081526004018080602001828103825260308152602001806139036030913960400191505060405180910390fd5b611cf58282613017565b5050565b3273ffffffffffffffffffffffffffffffffffffffff16611d18612cf9565b73ffffffffffffffffffffffffffffffffffffffff1614611d84576040517f08c379a00000000000000000000000000000000000000000000000000000000081526004018080602001828103825260268152602001806138dd6026913960400191505060405180910390fd5b8573ffffffffffffffffffffffffffffffffffffffff1663e985e9c5611da8612cf9565b306040518363ffffffff1660e01b8152600401808373ffffffffffffffffffffffffffffffffffffffff1681526020018273ffffffffffffffffffffffffffffffffffffffff1681526020019250505060206040518083038186803b158015611e1057600080fd5b505afa158015611e24573d6000803e3d6000fd5b505050506040513d6020811015611e3a57600080fd5b8101908080519060200190929190505050611ebd576040517f08c379a00000000000000000000000000000000000000000000000000000000081526004018080602001828103825260128152602001807f4d75737420617070726f7665206669727374000000000000000000000000000081525060200191505060405180910390fd5b600254811115611f35576040517f08c379a00000000000000000000000000000000000000000000000000000000081526004018080602001828103825260148152602001807f65787069726174696f6e20746f6f206c6172676500000000000000000000000081525060200191505060405180910390fd5b600354811015611fad576040517f08c379a00000000000000000000000000000000000000000000000000000000081526004018080602001828103825260148152602001807f65787069726174696f6e20746f6f20736d616c6c00000000000000000000000081525060200191505060405180910390fd5b6004858590501115612027576040517f08c379a000000000000000000000000000000000000000000000000000000000815260040180806020018281038252601a8152602001807f616d6f756e742073656c6c696e67206e6674206578636565642000000000000081525060200191505060405180910390fd5b600073ffffffffffffffffffffffffffffffffffffffff168673ffffffffffffffffffffffffffffffffffffffff1614156120ca576040517f08c379a00000000000000000000000000000000000000000000000000000000081526004018080602001828103825260128152602001807f5f6e6674436f6e7472616374206572726f72000000000000000000000000000081525060200191505060405180910390fd5b600073ffffffffffffffffffffffffffffffffffffffff168373ffffffffffffffffffffffffffffffffffffffff16141561216d576040517f08c379a000000000000000000000000000000000000000000000000000000000815260040180806020018281038252600c8152602001807f5f746f6b656e206572726f72000000000000000000000000000000000000000081525060200191505060405180910390fd5b60008214156121e4576040517f08c379a000000000000000000000000000000000000000000000000000000000815260040180806020018281038252600c8152602001807f5f7072696365206572726f72000000000000000000000000000000000000000081525060200191505060405180910390fd5b60005b858590508110156124a657600086868381811061220057fe5b90506020020135141561227b576040517f08c379a000000000000000000000000000000000000000000000000000000000815260040180806020018281038252600d8152602001807f5f6e6674496473206572726f720000000000000000000000000000000000000081525060200191505060405180910390fd5b612283612cf9565b73ffffffffffffffffffffffffffffffffffffffff168773ffffffffffffffffffffffffffffffffffffffff16636352211e8888858181106122c157fe5b905060200201356040518263ffffffff1660e01b81526004018082815260200191505060206040518083038186803b1580156122fc57600080fd5b505afa158015612310573d6000803e3d6000fd5b505050506040513d602081101561232657600080fd5b810190808051906020019092919050505073ffffffffffffffffffffffffffffffffffffffff16146123c0576040517f08c379a00000000000000000000000000000000000000000000000000000000081526004018080602001828103825260128152602001807f596f752068617665206e6f20616363657373000000000000000000000000000081525060200191505060405180910390fd5b6000600760008888858181106123d257fe5b90506020020135815260200190815260200160002060008973ffffffffffffffffffffffffffffffffffffffff1673ffffffffffffffffffffffffffffffffffffffff168152602001908152602001600020541415612499576040517f08c379a000000000000000000000000000000000000000000000000000000000815260040180806020018281038252600e8152602001807f6e66742069732073656c6c696e6700000000000000000000000000000000000081525060200191505060405180910390fd5b80806001019150506121e7565b5060006124b1612cf9565b86868987604051602001808673ffffffffffffffffffffffffffffffffffffffff168152602001806020018473ffffffffffffffffffffffffffffffffffffffff1681526020018373ffffffffffffffffffffffffffffffffffffffff1681526020018281038252868682818152602001925060200280828437600081840152601f19601f82011690508083019250505096505050505050506040516020818303038152906040528051906020012060001c905061256d612cf9565b6006600083815260200190815260200160002060000160006101000a81548173ffffffffffffffffffffffffffffffffffffffff021916908373ffffffffffffffffffffffffffffffffffffffff160217905550866006600083815260200190815260200160002060010160006101000a81548173ffffffffffffffffffffffffffffffffffffffff021916908373ffffffffffffffffffffffffffffffffffffffff160217905550858560066000848152602001908152602001600020600201919061263b9291906137fb565b50836006600083815260200190815260200160002060030160006101000a81548173ffffffffffffffffffffffffffffffffffffffff021916908373ffffffffffffffffffffffffffffffffffffffff16021790555082600660008381526020019081526020016000206004018190555081600660008381526020019081526020016000206005018190555042600660008381526020019081526020016000206006018190555060005b86869050811015612776578686828181106126fc57fe5b905060200201356007600089898581811061271357fe5b90506020020135815260200190815260200160002060008a73ffffffffffffffffffffffffffffffffffffffff1673ffffffffffffffffffffffffffffffffffffffff1681526020019081526020016000208190555080806001019150506126e5565b5061278b81600461314390919063ffffffff16565b50828473ffffffffffffffffffffffffffffffffffffffff168873ffffffffffffffffffffffffffffffffffffffff167fb873c56149c7f0aab004d9c326891e0a96bf1d79dbe7bd5ddde117165ceb7a5b6127e4612cf9565b8a8a8888604051808673ffffffffffffffffffffffffffffffffffffffff168152602001806020018481526020018381526020018281038252868682818152602001925060200280828437600081840152601f19601f820116905080830192505050965050505050505060405180910390a450505050505050565b60025481565b818112156128db576040517f08c379a00000000000000000000000000000000000000000000000000000000081526004018080602001828103825260118152602001807f746f2073686f756c64203e3d2066726f6d00000000000000000000000000000081525060200191505060405180910390fd5b60008190505b828112612cf45760006128fe8260046130f590919063ffffffff16565b9050612909816112ca565b612ce55761291561375b565b600660008381526020019081526020016000206040518060e00160405290816000820160009054906101000a900473ffffffffffffffffffffffffffffffffffffffff1673ffffffffffffffffffffffffffffffffffffffff1673ffffffffffffffffffffffffffffffffffffffff1681526020016001820160009054906101000a900473ffffffffffffffffffffffffffffffffffffffff1673ffffffffffffffffffffffffffffffffffffffff1673ffffffffffffffffffffffffffffffffffffffff16815260200160028201805480602002602001604051908101604052809291908181526020018280548015612a2e57602002820191906000526020600020905b815481526020019060010190808311612a1a575b505050505081526020016003820160009054906101000a900473ffffffffffffffffffffffffffffffffffffffff1673ffffffffffffffffffffffffffffffffffffffff1673ffffffffffffffffffffffffffffffffffffffff16815260200160048201548152602001600582015481526020016006820154815250509050612ac1826004612d0190919063ffffffff16565b5060066000838152602001908152602001600020600080820160006101000a81549073ffffffffffffffffffffffffffffffffffffffff02191690556001820160006101000a81549073ffffffffffffffffffffffffffffffffffffffff0219169055600282016000612b3491906137da565b6003820160006101000a81549073ffffffffffffffffffffffffffffffffffffffff0219169055600482016000905560058201600090556006820160009055505060005b816040015151811015612c01576007600083604001518381518110612b9957fe5b602002602001015181526020019081526020016000206000836020015173ffffffffffffffffffffffffffffffffffffffff1673ffffffffffffffffffffffffffffffffffffffff168152602001908152602001600020600090558080600101915050612b78565b508060800151816000015173ffffffffffffffffffffffffffffffffffffffff16837f9a9aa1d7c42f50caf2407ac70974e40cdaba5d7ac78e26f7689fc5888abeebfa84604001518560200151866060015160405180806020018473ffffffffffffffffffffffffffffffffffffffff1681526020018373ffffffffffffffffffffffffffffffffffffffff168152602001828103825285818151815260200191508051906020019060200280838360005b83811015612cce578082015181840152602081019050612cb3565b5050505090500194505050505060405180910390a4505b508080600190039150506128e1565b505050565b600033905090565b6000612d13836000018360001b61315d565b905092915050565b600080831415612d2e5760009050612d9b565b6000828402905082848281612d3f57fe5b0414612d96576040517f08c379a00000000000000000000000000000000000000000000000000000000081526004018080602001828103825260218152602001806139616021913960400191505060405180910390fd5b809150505b92915050565b6000808211612e18576040517f08c379a000000000000000000000000000000000000000000000000000000000815260040180806020018281038252601a8152602001807f536166654d6174683a206469766973696f6e206279207a65726f00000000000081525060200191505060405180910390fd5b818381612e2157fe5b04905092915050565b612ee5846323b872dd60e01b858585604051602401808473ffffffffffffffffffffffffffffffffffffffff1681526020018373ffffffffffffffffffffffffffffffffffffffff1681526020018281526020019350505050604051602081830303815290604052907bffffffffffffffffffffffffffffffffffffffffffffffffffffffff19166020820180517bffffffffffffffffffffffffffffffffffffffffffffffffffffffff8381831617835250505050613245565b50505050565b600082821115612f63576040517f08c379a000000000000000000000000000000000000000000000000000000000815260040180806020018281038252601e8152602001807f536166654d6174683a207375627472616374696f6e206f766572666c6f77000081525060200191505060405180910390fd5b818303905092915050565b6000612f7c82600001613334565b9050919050565b612fab816001600085815260200190815260200160002060000161334590919063ffffffff16565b1561301357612fb8612cf9565b73ffffffffffffffffffffffffffffffffffffffff168173ffffffffffffffffffffffffffffffffffffffff16837f2f8788117e7eff1d82e926ec794901d17c78024a50270940304540a733656f0d60405160405180910390a45b5050565b61303f816001600085815260200190815260200160002060000161337590919063ffffffff16565b156130a75761304c612cf9565b73ffffffffffffffffffffffffffffffffffffffff168173ffffffffffffffffffffffffffffffffffffffff16837ff6391f5c32d9c69d2a47ea670b442974b53935d1edc7fd64eb21e047a839171b60405160405180910390a45b5050565b60006130ba83600001836133a5565b60001c905092915050565b60006130ed836000018373ffffffffffffffffffffffffffffffffffffffff1660001b613428565b905092915050565b600061310483600001836133a5565b60001c905092915050565b600061311a3061344b565b15905090565b61312a8282612f83565b5050565b600061313c82600001613334565b9050919050565b6000613155836000018360001b61345e565b905092915050565b6000808360010160008481526020019081526020016000205490506000811461323957600060018203905060006001866000018054905003905060008660000182815481106131a857fe5b90600052602060002001549050808760000184815481106131c557fe5b90600052602060002001819055506001830187600101600083815260200190815260200160002081905550866000018054806131fd57fe5b6001900381819060005260206000200160009055905586600101600087815260200190815260200160002060009055600194505050505061323f565b60009150505b92915050565b60606132a7826040518060400160405280602081526020017f5361666545524332303a206c6f772d6c6576656c2063616c6c206661696c65648152508573ffffffffffffffffffffffffffffffffffffffff166134ce9092919063ffffffff16565b905060008151111561332f578080602001905160208110156132c857600080fd5b810190808051906020019092919050505061332e576040517f08c379a000000000000000000000000000000000000000000000000000000000815260040180806020018281038252602a815260200180613982602a913960400191505060405180910390fd5b5b505050565b600081600001805490509050919050565b600061336d836000018373ffffffffffffffffffffffffffffffffffffffff1660001b61345e565b905092915050565b600061339d836000018373ffffffffffffffffffffffffffffffffffffffff1660001b61315d565b905092915050565b600081836000018054905011613406576040517f08c379a00000000000000000000000000000000000000000000000000000000081526004018080602001828103825260228152602001806138666022913960400191505060405180910390fd5b82600001828154811061341557fe5b9060005260206000200154905092915050565b600080836001016000848152602001908152602001600020541415905092915050565b600080823b905060008111915050919050565b600061346a8383613428565b6134c35782600001829080600181540180825580915050600190039060005260206000200160009091909190915055826000018054905083600101600084815260200190815260200160002081905550600190506134c8565b600090505b92915050565b60606134dd84846000856134e6565b90509392505050565b606082471015613541576040517f08c379a00000000000000000000000000000000000000000000000000000000081526004018080602001828103825260268152602001806138b76026913960400191505060405180910390fd5b61354a8561344b565b6135bc576040517f08c379a000000000000000000000000000000000000000000000000000000000815260040180806020018281038252601d8152602001807f416464726573733a2063616c6c20746f206e6f6e2d636f6e747261637400000081525060200191505060405180910390fd5b600060608673ffffffffffffffffffffffffffffffffffffffff1685876040518082805190602001908083835b6020831061360c57805182526020820191506020810190506020830392506135e9565b6001836020036101000a03801982511681845116808217855250505050505090500191505060006040518083038185875af1925050503d806000811461366e576040519150601f19603f3d011682016040523d82523d6000602084013e613673565b606091505b509150915061368382828661368f565b92505050949350505050565b6060831561369f57829050613754565b6000835111156136b25782518084602001fd5b816040517f08c379a00000000000000000000000000000000000000000000000000000000081526004018080602001828103825283818151815260200191508051906020019080838360005b838110156137195780820151818401526020810190506136fe565b50505050905090810190601f1680156137465780820380516001836020036101000a031916815260200191505b509250505060405180910390fd5b9392505050565b6040518060e00160405280600073ffffffffffffffffffffffffffffffffffffffff168152602001600073ffffffffffffffffffffffffffffffffffffffff16815260200160608152602001600073ffffffffffffffffffffffffffffffffffffffff1681526020016000815260200160008152602001600081525090565b50805460008255906000526020600020908101906137f89190613848565b50565b828054828255906000526020600020908101928215613837579160200282015b8281111561383657823582559160200191906001019061381b565b5b5090506138449190613848565b5090565b5b80821115613861576000816000905550600101613849565b509056fe456e756d657261626c655365743a20696e646578206f7574206f6620626f756e6473416363657373436f6e74726f6c3a2073656e646572206d75737420626520616e2061646d696e20746f206772616e74416464726573733a20696e73756666696369656e742062616c616e636520666f722063616c6c465761724d61726b65743a2043616e206e6f742063616c6c2066726f6d20636f6e7472616374416363657373436f6e74726f6c3a2073656e646572206d75737420626520616e2061646d696e20746f207265766f6b65496e697469616c697a61626c653a20636f6e747261637420697320616c726561647920696e697469616c697a6564536166654d6174683a206d756c7469706c69636174696f6e206f766572666c6f775361666545524332303a204552433230206f7065726174696f6e20646964206e6f742073756363656564416363657373436f6e74726f6c3a2063616e206f6e6c792072656e6f756e636520726f6c657320666f722073656c66a2646970667358221220ccb845bc94180d938ced556f312ef00515c8713db1c73f7500e71d12c1ae3b9564736f6c634300060c0033",
  "immutableReferences": {},
  "source": "// SPDX-License-Identifier: MIT\npragma solidity 0.6.12;\n\nimport \"@openzeppelin/contracts/math/SafeMath.sol\";\nimport \"@openzeppelin/contracts/token/ERC721/IERC721.sol\";\nimport \"@openzeppelin/contracts/token/ERC20/IERC20.sol\";\nimport \"@openzeppelin/contracts/token/ERC20/SafeERC20.sol\";\nimport \"@openzeppelin/contracts/access/AccessControl.sol\";\nimport \"@openzeppelin/contracts/proxy/Initializable.sol\";\nimport \"./FwarMarketStorage.sol\";\n\n\ncontract FwarMarketDelegate is Initializable, AccessControl, FwarMarketStorage {\n    using SafeERC20 for IERC20;\n\n    event CreateOrder(address _owner, address indexed _nftContract, uint[] _nftIds, address indexed _token, uint indexed _price, uint _expiration, uint _orderId);\n\n    event CancelOrder(address indexed _owner, address indexed _nftContract , uint indexed _orderId, uint[] _nftIds);\n\n    event BuyOrder(uint indexed _orderId, uint[] _nftIds, address indexed _buyer, address _seller, address _nftContract, address _token, uint indexed price);\n    \n    event CleanOrder(uint indexed _orderId, uint[] _nftIds, address indexed _seller, address _nftContract, address _token, uint indexed price);\n\n    function initialize(address admin) public payable initializer {\n        _setupRole(DEFAULT_ADMIN_ROLE, admin);\n        maxExpirationTime = 14 days;\n        minExpirationTime = 1 days;\n    }\n\n    function configExpiration(uint _minExpirationTime, uint _maxExpirationTime) public {\n        require(hasRole(DEFAULT_ADMIN_ROLE, _msgSender()));\n        maxExpirationTime = _maxExpirationTime;\n        minExpirationTime = _minExpirationTime;\n    }\n\n    function configFee(address _feeTo, uint _feeRate) public {\n        require(hasRole(DEFAULT_ADMIN_ROLE, _msgSender()));\n        feeTo = _feeTo;\n        feeRate = _feeRate;\n    }\n\n    function getFeeConfig() external pure returns(address feeTo, uint feeRate){\n        return (feeTo, feeRate);\n    }\n\n    /// @dev createOrder is called by a seller\n    /// @param _nftContract is the NFT contract address\n    /// @param _nftIds is the array of nftId to sell\n    /// @param _expiration is the expiration of order in seconds\n    /// @param _token is the pay token contract address for buyer\n    /// @param _price is the amount of pay token\n    function createOrder(address _nftContract, uint[] calldata _nftIds, address _token, uint _price, uint _expiration) external {\n        require(_msgSender() == tx.origin, \"FWarMarket: Can not call from contract\");\n        require(IERC721(_nftContract).isApprovedForAll(_msgSender(), address(this)), \"Must approve first\");\n        require(_expiration <= maxExpirationTime, \"expiration too large\");\n        require(_expiration >= minExpirationTime, \"expiration too small\");\n        require(_nftIds.length <= 4, \"amount selling nft exceed \");\n        require(_nftContract != address(0), \"_nftContract error\");\n        require(_token != address(0), \"_token error\");\n        require(_price != 0, \"_price error\");\n\n        for (uint i = 0; i < _nftIds.length; i++) {\n            require(_nftIds[i] != 0, \"_nftIds error\");\n            require(IERC721(_nftContract).ownerOf(_nftIds[i]) == _msgSender(), \"You have no access\");\n            require(sellingNFT[_nftIds[i]][_nftContract] != 0, \"nft is selling\");\n        }\n        uint orderId = uint(keccak256(abi.encode(_msgSender(), _nftIds, _nftContract, _token)));\n        // address owner = orders[orderId].owner;\n        // if (owner != address(0)) {\n        //     cancelOrder(_nftContract, _nftIds, _token);\n        //     owner = address(0);\n        // }\n        // require(owner == address(0), \"order exist\");\n        \n\n        orders[orderId].owner = _msgSender();\n        orders[orderId].nftContract = _nftContract;\n        orders[orderId].nftIds = _nftIds;\n        orders[orderId].token = _token;\n        orders[orderId].price = _price;\n        orders[orderId].expiration = _expiration;\n        orders[orderId].createTime = block.timestamp;\n\n        for (uint i = 0; i < _nftIds.length; i++) {\n            sellingNFT[_nftIds[i]][_nftContract] = _nftIds[i];\n        }\n        orderIds.add(orderId);\n\n        emit CreateOrder(_msgSender(), _nftContract, _nftIds, _token, _price, _expiration, orderId);\n    }\n\n    /// @param _nftContract is the NFT contract address\n    /// @param _nftIds is the array of nftId\n    /// @param _token is the pay token contract address for buyer\n    function cancelOrder(address _nftContract, uint[] calldata _nftIds, address _token) public {\n        require(_msgSender() == tx.origin, \"FWarMarket: Can not call from contract\");\n        uint orderId = uint(keccak256(abi.encode(_msgSender(), _nftIds, _nftContract, _token)));\n        address owner = orders[orderId].owner;\n        require(owner != address(0), \"order not exist\");\n        require(owner == _msgSender(), \"order not yours\");\n        orderIds.remove(orderId);\n        delete orders[orderId];\n\n        for (uint i = 0; i < _nftIds.length; i++) {\n            delete sellingNFT[_nftIds[i]][_nftContract];\n        }\n\n        emit CancelOrder(owner, _nftContract,  orderId, _nftIds);\n    }\n\n    function buyOrder(uint _orderId) external {\n        require(_msgSender() == tx.origin, \"can not call from contract\");\n        require(checkOrderValid(_orderId), \"order is not valid\");\n        OrderInfo memory order = orders[_orderId];\n\n        orderIds.remove(_orderId);\n        delete orders[_orderId];\n\n        uint total = order.price;\n        uint fee = total.mul(feeRate).div(1e12);\n\n        // transfer fee\n        IERC20(order.token).safeTransferFrom(_msgSender(), feeTo, fee);\n\n        IERC20(order.token).safeTransferFrom(_msgSender(), order.owner, order.price.sub(fee));\n        for (uint i = 0; i < order.nftIds.length; i++) {\n            IERC721(order.nftContract).safeTransferFrom(order.owner, _msgSender(), order.nftIds[i]);\n        }\n        \n        emit BuyOrder(_orderId, order.nftIds, _msgSender(), order.owner, order.nftContract, order.token, order.price);\n    }\n\n    function orderCount() public view returns (uint) {\n        return orderIds.length();\n    }\n\n    function getOrderId(uint index) public view returns (uint orderId, bool isValid) {\n        uint id = orderIds.at(index);\n        return (id, checkOrderValid(id));\n    }\n\n    function getOrderById(uint orderId) public view returns (address owner, uint[] memory nftIds, address token, uint price, uint expiration, uint createTime) {\n        OrderInfo storage info = orders[orderId];\n        owner = info.owner;\n        nftIds = info.nftIds;\n        token = info.token;\n        price = info.price;\n        expiration = info.expiration;\n        createTime = info.createTime;\n    }\n\n    function checkOrderValid(uint orderId) public view returns (bool) {\n        OrderInfo storage info = orders[orderId];\n        for (uint i = 0; i < info.nftIds.length; i++) {\n            if (IERC721(info.nftContract).ownerOf(info.nftIds[i]) != info.owner) {\n                return false;\n            }\n        }\n\n        if (!IERC721(info.nftContract).isApprovedForAll(info.owner, address(this))) {\n            return false;\n        }\n\n        if (info.createTime + info.expiration < block.timestamp) {\n            return false;\n        }\n\n        return true;\n    }\n\n    function cleanInvalidOrders(int from, int to) public {\n        require(to >= from, \"to should >= from\");\n        for (int i=to; i>= from; i--) {\n            uint orderId = orderIds.at(uint(i));\n            if (!checkOrderValid(orderId)) {\n                OrderInfo memory info = orders[orderId];\n                orderIds.remove(orderId);\n                delete orders[orderId];\n                for (uint j = 0; j < info.nftIds.length; j++) {\n                    delete sellingNFT[info.nftIds[j]][info.nftContract];\n                }\n                emit CleanOrder(orderId, info.nftIds, info.owner, info.nftContract, info.token, info.price);\n            }\n        }\n    }\n}\n",
  "sourcePath": "/Users/badung1870/Working/Node/FwarProject/SourceCode/SmartContracts/Fwar/FwarMarket/contracts/FwarMarketDelegate.sol",
  "compiler": {
    "name": "solc",
    "version": "0.6.12+commit.27d51765.Emscripten.clang"
  },
  "schemaVersion": "3.4.3",
  "updatedAt": "2021-09-28T18:45:45.054Z",
  "devdoc": {
    "kind": "dev",
    "methods": {
      "cancelOrder(address,uint256[],address)": {
        "params": {
          "_nftContract": "is the NFT contract address",
          "_nftIds": "is the array of nftId",
          "_token": "is the pay token contract address for buyer"
        }
      },
      "createOrder(address,uint256[],address,uint256,uint256)": {
        "details": "createOrder is called by a seller",
        "params": {
          "_expiration": "is the expiration of order in seconds",
          "_nftContract": "is the NFT contract address",
          "_nftIds": "is the array of nftId to sell",
          "_price": "is the amount of pay token",
          "_token": "is the pay token contract address for buyer"
        }
      },
      "getRoleAdmin(bytes32)": {
        "details": "Returns the admin role that controls `role`. See {grantRole} and {revokeRole}. To change a role's admin, use {_setRoleAdmin}."
      },
      "getRoleMember(bytes32,uint256)": {
        "details": "Returns one of the accounts that have `role`. `index` must be a value between 0 and {getRoleMemberCount}, non-inclusive. Role bearers are not sorted in any particular way, and their ordering may change at any point. WARNING: When using {getRoleMember} and {getRoleMemberCount}, make sure you perform all queries on the same block. See the following https://forum.openzeppelin.com/t/iterating-over-elements-on-enumerableset-in-openzeppelin-contracts/2296[forum post] for more information."
      },
      "getRoleMemberCount(bytes32)": {
        "details": "Returns the number of accounts that have `role`. Can be used together with {getRoleMember} to enumerate all bearers of a role."
      },
      "grantRole(bytes32,address)": {
        "details": "Grants `role` to `account`. If `account` had not been already granted `role`, emits a {RoleGranted} event. Requirements: - the caller must have ``role``'s admin role."
      },
      "hasRole(bytes32,address)": {
        "details": "Returns `true` if `account` has been granted `role`."
      },
      "renounceRole(bytes32,address)": {
        "details": "Revokes `role` from the calling account. Roles are often managed via {grantRole} and {revokeRole}: this function's purpose is to provide a mechanism for accounts to lose their privileges if they are compromised (such as when a trusted device is misplaced). If the calling account had been granted `role`, emits a {RoleRevoked} event. Requirements: - the caller must be `account`."
      },
      "revokeRole(bytes32,address)": {
        "details": "Revokes `role` from `account`. If `account` had been granted `role`, emits a {RoleRevoked} event. Requirements: - the caller must have ``role``'s admin role."
      }
    },
    "version": 1
  },
  "userdoc": {
    "kind": "user",
    "methods": {},
    "version": 1
  }
}