{
  "contractName": "MarketplaceDelegate",
  "abi": [
    {
      "anonymous": false,
      "inputs": [
        {
          "indexed": true,
          "internalType": "uint256",
          "name": "_orderId",
          "type": "uint256"
        },
        {
          "indexed": true,
          "internalType": "uint256",
          "name": "_tokenId",
          "type": "uint256"
        },
        {
          "indexed": true,
          "internalType": "address",
          "name": "_buyer",
          "type": "address"
        },
        {
          "indexed": false,
          "internalType": "address",
          "name": "_seller",
          "type": "address"
        },
        {
          "indexed": false,
          "internalType": "address",
          "name": "_nftContract",
          "type": "address"
        },
        {
          "indexed": false,
          "internalType": "address",
          "name": "_token",
          "type": "address"
        },
        {
          "indexed": false,
          "internalType": "uint256",
          "name": "price",
          "type": "uint256"
        }
      ],
      "name": "BuyOrder",
      "type": "event"
    },
    {
      "anonymous": false,
      "inputs": [
        {
          "indexed": true,
          "internalType": "uint256",
          "name": "_tokenId",
          "type": "uint256"
        }
      ],
      "name": "CancelOrder",
      "type": "event"
    },
    {
      "anonymous": false,
      "inputs": [
        {
          "indexed": true,
          "internalType": "uint256",
          "name": "_orderId",
          "type": "uint256"
        },
        {
          "indexed": true,
          "internalType": "uint256",
          "name": "_tokenId",
          "type": "uint256"
        },
        {
          "indexed": true,
          "internalType": "address",
          "name": "_seller",
          "type": "address"
        },
        {
          "indexed": false,
          "internalType": "address",
          "name": "_nftContract",
          "type": "address"
        },
        {
          "indexed": false,
          "internalType": "address",
          "name": "_token",
          "type": "address"
        },
        {
          "indexed": false,
          "internalType": "uint256",
          "name": "price",
          "type": "uint256"
        }
      ],
      "name": "CleanOrder",
      "type": "event"
    },
    {
      "anonymous": false,
      "inputs": [
        {
          "indexed": true,
          "internalType": "address",
          "name": "_nftContract",
          "type": "address"
        },
        {
          "indexed": true,
          "internalType": "uint256",
          "name": "_tokenId",
          "type": "uint256"
        },
        {
          "indexed": true,
          "internalType": "address",
          "name": "_token",
          "type": "address"
        },
        {
          "indexed": false,
          "internalType": "uint256",
          "name": "_price",
          "type": "uint256"
        },
        {
          "indexed": false,
          "internalType": "uint256",
          "name": "_expiration",
          "type": "uint256"
        },
        {
          "indexed": false,
          "internalType": "uint256",
          "name": "_orderId",
          "type": "uint256"
        }
      ],
      "name": "CreateOrder",
      "type": "event"
    },
    {
      "anonymous": false,
      "inputs": [
        {
          "indexed": true,
          "internalType": "bytes32",
          "name": "role",
          "type": "bytes32"
        },
        {
          "indexed": true,
          "internalType": "bytes32",
          "name": "previousAdminRole",
          "type": "bytes32"
        },
        {
          "indexed": true,
          "internalType": "bytes32",
          "name": "newAdminRole",
          "type": "bytes32"
        }
      ],
      "name": "RoleAdminChanged",
      "type": "event"
    },
    {
      "anonymous": false,
      "inputs": [
        {
          "indexed": true,
          "internalType": "bytes32",
          "name": "role",
          "type": "bytes32"
        },
        {
          "indexed": true,
          "internalType": "address",
          "name": "account",
          "type": "address"
        },
        {
          "indexed": true,
          "internalType": "address",
          "name": "sender",
          "type": "address"
        }
      ],
      "name": "RoleGranted",
      "type": "event"
    },
    {
      "anonymous": false,
      "inputs": [
        {
          "indexed": true,
          "internalType": "bytes32",
          "name": "role",
          "type": "bytes32"
        },
        {
          "indexed": true,
          "internalType": "address",
          "name": "account",
          "type": "address"
        },
        {
          "indexed": true,
          "internalType": "address",
          "name": "sender",
          "type": "address"
        }
      ],
      "name": "RoleRevoked",
      "type": "event"
    },
    {
      "inputs": [],
      "name": "DEFAULT_ADMIN_ROLE",
      "outputs": [
        {
          "internalType": "bytes32",
          "name": "",
          "type": "bytes32"
        }
      ],
      "stateMutability": "view",
      "type": "function"
    },
    {
      "inputs": [],
      "name": "feeRate",
      "outputs": [
        {
          "internalType": "uint256",
          "name": "",
          "type": "uint256"
        }
      ],
      "stateMutability": "view",
      "type": "function"
    },
    {
      "inputs": [],
      "name": "feeTo",
      "outputs": [
        {
          "internalType": "address",
          "name": "",
          "type": "address"
        }
      ],
      "stateMutability": "view",
      "type": "function"
    },
    {
      "inputs": [
        {
          "internalType": "bytes32",
          "name": "role",
          "type": "bytes32"
        }
      ],
      "name": "getRoleAdmin",
      "outputs": [
        {
          "internalType": "bytes32",
          "name": "",
          "type": "bytes32"
        }
      ],
      "stateMutability": "view",
      "type": "function"
    },
    {
      "inputs": [
        {
          "internalType": "bytes32",
          "name": "role",
          "type": "bytes32"
        },
        {
          "internalType": "uint256",
          "name": "index",
          "type": "uint256"
        }
      ],
      "name": "getRoleMember",
      "outputs": [
        {
          "internalType": "address",
          "name": "",
          "type": "address"
        }
      ],
      "stateMutability": "view",
      "type": "function"
    },
    {
      "inputs": [
        {
          "internalType": "bytes32",
          "name": "role",
          "type": "bytes32"
        }
      ],
      "name": "getRoleMemberCount",
      "outputs": [
        {
          "internalType": "uint256",
          "name": "",
          "type": "uint256"
        }
      ],
      "stateMutability": "view",
      "type": "function"
    },
    {
      "inputs": [
        {
          "internalType": "bytes32",
          "name": "role",
          "type": "bytes32"
        },
        {
          "internalType": "address",
          "name": "account",
          "type": "address"
        }
      ],
      "name": "grantRole",
      "outputs": [],
      "stateMutability": "nonpayable",
      "type": "function"
    },
    {
      "inputs": [
        {
          "internalType": "bytes32",
          "name": "role",
          "type": "bytes32"
        },
        {
          "internalType": "address",
          "name": "account",
          "type": "address"
        }
      ],
      "name": "hasRole",
      "outputs": [
        {
          "internalType": "bool",
          "name": "",
          "type": "bool"
        }
      ],
      "stateMutability": "view",
      "type": "function"
    },
    {
      "inputs": [],
      "name": "maxExpirationTime",
      "outputs": [
        {
          "internalType": "uint256",
          "name": "",
          "type": "uint256"
        }
      ],
      "stateMutability": "view",
      "type": "function"
    },
    {
      "inputs": [],
      "name": "minExpirationTime",
      "outputs": [
        {
          "internalType": "uint256",
          "name": "",
          "type": "uint256"
        }
      ],
      "stateMutability": "view",
      "type": "function"
    },
    {
      "inputs": [
        {
          "internalType": "bytes32",
          "name": "role",
          "type": "bytes32"
        },
        {
          "internalType": "address",
          "name": "account",
          "type": "address"
        }
      ],
      "name": "renounceRole",
      "outputs": [],
      "stateMutability": "nonpayable",
      "type": "function"
    },
    {
      "inputs": [
        {
          "internalType": "bytes32",
          "name": "role",
          "type": "bytes32"
        },
        {
          "internalType": "address",
          "name": "account",
          "type": "address"
        }
      ],
      "name": "revokeRole",
      "outputs": [],
      "stateMutability": "nonpayable",
      "type": "function"
    },
    {
      "inputs": [
        {
          "internalType": "address",
          "name": "admin",
          "type": "address"
        }
      ],
      "name": "initialize",
      "outputs": [],
      "stateMutability": "payable",
      "type": "function"
    },
    {
      "inputs": [
        {
          "internalType": "uint256",
          "name": "_minExpirationTime",
          "type": "uint256"
        },
        {
          "internalType": "uint256",
          "name": "_maxExpirationTime",
          "type": "uint256"
        }
      ],
      "name": "configExpiration",
      "outputs": [],
      "stateMutability": "nonpayable",
      "type": "function"
    },
    {
      "inputs": [
        {
          "internalType": "address",
          "name": "_feeTo",
          "type": "address"
        },
        {
          "internalType": "uint256",
          "name": "_feeRate",
          "type": "uint256"
        }
      ],
      "name": "configFee",
      "outputs": [],
      "stateMutability": "nonpayable",
      "type": "function"
    },
    {
      "inputs": [
        {
          "internalType": "address",
          "name": "_nftContract",
          "type": "address"
        },
        {
          "internalType": "uint256",
          "name": "_tokenId",
          "type": "uint256"
        },
        {
          "internalType": "address",
          "name": "_token",
          "type": "address"
        },
        {
          "internalType": "uint256",
          "name": "_price",
          "type": "uint256"
        },
        {
          "internalType": "uint256",
          "name": "_expiration",
          "type": "uint256"
        }
      ],
      "name": "createOrder",
      "outputs": [],
      "stateMutability": "nonpayable",
      "type": "function"
    },
    {
      "inputs": [
        {
          "internalType": "address",
          "name": "_nftContract",
          "type": "address"
        },
        {
          "internalType": "uint256",
          "name": "_tokenId",
          "type": "uint256"
        },
        {
          "internalType": "address",
          "name": "_token",
          "type": "address"
        }
      ],
      "name": "cancelOrder",
      "outputs": [],
      "stateMutability": "nonpayable",
      "type": "function"
    },
    {
      "inputs": [
        {
          "internalType": "uint256",
          "name": "_orderId",
          "type": "uint256"
        }
      ],
      "name": "buyOrder",
      "outputs": [],
      "stateMutability": "nonpayable",
      "type": "function"
    },
    {
      "inputs": [],
      "name": "orderCount",
      "outputs": [
        {
          "internalType": "uint256",
          "name": "",
          "type": "uint256"
        }
      ],
      "stateMutability": "view",
      "type": "function"
    },
    {
      "inputs": [
        {
          "internalType": "uint256",
          "name": "index",
          "type": "uint256"
        }
      ],
      "name": "getOrderId",
      "outputs": [
        {
          "internalType": "uint256",
          "name": "orderId",
          "type": "uint256"
        },
        {
          "internalType": "bool",
          "name": "isValid",
          "type": "bool"
        }
      ],
      "stateMutability": "view",
      "type": "function"
    },
    {
      "inputs": [
        {
          "internalType": "uint256",
          "name": "orderId",
          "type": "uint256"
        }
      ],
      "name": "getOrderById",
      "outputs": [
        {
          "internalType": "address",
          "name": "owner",
          "type": "address"
        },
        {
          "internalType": "uint256",
          "name": "tokenId",
          "type": "uint256"
        },
        {
          "internalType": "address",
          "name": "token",
          "type": "address"
        },
        {
          "internalType": "uint256",
          "name": "price",
          "type": "uint256"
        },
        {
          "internalType": "uint256",
          "name": "expiration",
          "type": "uint256"
        },
        {
          "internalType": "uint256",
          "name": "createTime",
          "type": "uint256"
        }
      ],
      "stateMutability": "view",
      "type": "function"
    },
    {
      "inputs": [
        {
          "internalType": "uint256",
          "name": "orderId",
          "type": "uint256"
        }
      ],
      "name": "checkOrderValid",
      "outputs": [
        {
          "internalType": "bool",
          "name": "",
          "type": "bool"
        }
      ],
      "stateMutability": "view",
      "type": "function"
    },
    {
      "inputs": [
        {
          "internalType": "int256",
          "name": "from",
          "type": "int256"
        },
        {
          "internalType": "int256",
          "name": "to",
          "type": "int256"
        }
      ],
      "name": "cleanInvalidOrders",
      "outputs": [],
      "stateMutability": "nonpayable",
      "type": "function"
    }
  ],
  "bytecode": "0x608060405234801561001057600080fd5b5061321b806100206000396000f3fe6080604052600436106101405760003560e01c806385376c8a116100b6578063a217fddf1161006f578063a217fddf14610718578063c4d66de814610743578063ca15c87314610787578063d547741f146107d6578063f541b38214610831578063f615c2bf1461085c57610140565b806385376c8a146104cb5780639010d07c1461052657806391d148541461059557806396d4f64014610606578063978bbdb9146106955780639d2166ae146106c057610140565b806331b412d71161010857806331b412d71461029657806336568abe146102c15780633c6cbc231461031c57806342b50a7a146103975780636967f993146104355780636b3b9a5b1461047a57610140565b8063017e7e581461014557806322f85eaa146101865780632453ffa8146101c1578063248a9ca3146101ec5780632f2ff15d1461023b575b600080fd5b34801561015157600080fd5b5061015a6108a1565b604051808273ffffffffffffffffffffffffffffffffffffffff16815260200191505060405180910390f35b34801561019257600080fd5b506101bf600480360360208110156101a957600080fd5b81019080803590602001909291905050506108c7565b005b3480156101cd57600080fd5b506101d6610da2565b6040518082815260200191505060405180910390f35b3480156101f857600080fd5b506102256004803603602081101561020f57600080fd5b8101908080359060200190929190505050610db3565b6040518082815260200191505060405180910390f35b34801561024757600080fd5b506102946004803603604081101561025e57600080fd5b8101908080359060200190929190803573ffffffffffffffffffffffffffffffffffffffff169060200190929190505050610dd3565b005b3480156102a257600080fd5b506102ab610e5d565b6040518082815260200191505060405180910390f35b3480156102cd57600080fd5b5061031a600480360360408110156102e457600080fd5b8101908080359060200190929190803573ffffffffffffffffffffffffffffffffffffffff169060200190929190505050610e63565b005b34801561032857600080fd5b506103956004803603606081101561033f57600080fd5b81019080803573ffffffffffffffffffffffffffffffffffffffff16906020019092919080359060200190929190803573ffffffffffffffffffffffffffffffffffffffff169060200190929190505050610efc565b005b3480156103a357600080fd5b506103d0600480360360208110156103ba57600080fd5b81019080803590602001909291905050506111f7565b604051808773ffffffffffffffffffffffffffffffffffffffff1681526020018681526020018573ffffffffffffffffffffffffffffffffffffffff168152602001848152602001838152602001828152602001965050505050505060405180910390f35b34801561044157600080fd5b506104786004803603604081101561045857600080fd5b81019080803590602001909291908035906020019092919050505061128b565b005b34801561048657600080fd5b506104b36004803603602081101561049d57600080fd5b81019080803590602001909291905050506112b3565b60405180821515815260200191505060405180910390f35b3480156104d757600080fd5b50610524600480360360408110156104ee57600080fd5b81019080803573ffffffffffffffffffffffffffffffffffffffff16906020019092919080359060200190929190505050611642565b005b34801561053257600080fd5b506105696004803603604081101561054957600080fd5b8101908080359060200190929190803590602001909291905050506116a4565b604051808273ffffffffffffffffffffffffffffffffffffffff16815260200191505060405180910390f35b3480156105a157600080fd5b506105ee600480360360408110156105b857600080fd5b8101908080359060200190929190803573ffffffffffffffffffffffffffffffffffffffff1690602001909291905050506116d6565b60405180821515815260200191505060405180910390f35b34801561061257600080fd5b50610693600480360360a081101561062957600080fd5b81019080803573ffffffffffffffffffffffffffffffffffffffff16906020019092919080359060200190929190803573ffffffffffffffffffffffffffffffffffffffff1690602001909291908035906020019092919080359060200190929190505050611708565b005b3480156106a157600080fd5b506106aa612032565b6040518082815260200191505060405180910390f35b3480156106cc57600080fd5b506106f9600480360360208110156106e357600080fd5b8101908080359060200190929190505050612038565b6040518083815260200182151581526020019250505060405180910390f35b34801561072457600080fd5b5061072d612067565b6040518082815260200191505060405180910390f35b6107856004803603602081101561075957600080fd5b81019080803573ffffffffffffffffffffffffffffffffffffffff16906020019092919050505061206e565b005b34801561079357600080fd5b506107c0600480360360208110156107aa57600080fd5b810190808035906020019092919050505061218e565b6040518082815260200191505060405180910390f35b3480156107e257600080fd5b5061082f600480360360408110156107f957600080fd5b8101908080359060200190929190803573ffffffffffffffffffffffffffffffffffffffff1690602001909291905050506121b5565b005b34801561083d57600080fd5b5061084661223f565b6040518082815260200191505060405180910390f35b34801561086857600080fd5b5061089f6004803603604081101561087f57600080fd5b810190808035906020019092919080359060200190929190505050612245565b005b600760009054906101000a900473ffffffffffffffffffffffffffffffffffffffff1681565b6108d0816112b3565b610942576040517f08c379a00000000000000000000000000000000000000000000000000000000081526004018080602001828103825260128152602001807f6f72646572206973206e6f742076616c6964000000000000000000000000000081525060200191505060405180910390fd5b61094a613017565b600660008381526020019081526020016000206040518060e00160405290816000820160009054906101000a900473ffffffffffffffffffffffffffffffffffffffff1673ffffffffffffffffffffffffffffffffffffffff1673ffffffffffffffffffffffffffffffffffffffff1681526020016001820160009054906101000a900473ffffffffffffffffffffffffffffffffffffffff1673ffffffffffffffffffffffffffffffffffffffff1673ffffffffffffffffffffffffffffffffffffffff168152602001600282015481526020016003820160009054906101000a900473ffffffffffffffffffffffffffffffffffffffff1673ffffffffffffffffffffffffffffffffffffffff1673ffffffffffffffffffffffffffffffffffffffff16815260200160048201548152602001600582015481526020016006820154815250509050610aa88260046125b590919063ffffffff16565b5060066000838152602001908152602001600020600080820160006101000a81549073ffffffffffffffffffffffffffffffffffffffff02191690556001820160006101000a81549073ffffffffffffffffffffffffffffffffffffffff021916905560028201600090556003820160006101000a81549073ffffffffffffffffffffffffffffffffffffffff021916905560048201600090556005820160009055600682016000905550506000816080015190506000610b8b64e8d4a51000610b7d600854856125cf90919063ffffffff16565b61265590919063ffffffff16565b9050610be033600760009054906101000a900473ffffffffffffffffffffffffffffffffffffffff1683866060015173ffffffffffffffffffffffffffffffffffffffff166126de909392919063ffffffff16565b610c2b338460000151610c0084876080015161279f90919063ffffffff16565b866060015173ffffffffffffffffffffffffffffffffffffffff166126de909392919063ffffffff16565b826020015173ffffffffffffffffffffffffffffffffffffffff166342842e0e84600001513386604001516040518463ffffffff1660e01b8152600401808473ffffffffffffffffffffffffffffffffffffffff1681526020018373ffffffffffffffffffffffffffffffffffffffff1681526020018281526020019350505050600060405180830381600087803b158015610cc657600080fd5b505af1158015610cda573d6000803e3d6000fd5b505050503373ffffffffffffffffffffffffffffffffffffffff168360400151857f7980f59a6f38f0fc91bb264cff74db1bef53a5164e68ab13292cd2e8ee337cce8660000151876020015188606001518960800151604051808573ffffffffffffffffffffffffffffffffffffffff1681526020018473ffffffffffffffffffffffffffffffffffffffff1681526020018373ffffffffffffffffffffffffffffffffffffffff16815260200182815260200194505050505060405180910390a450505050565b6000610dae6004612822565b905090565b600060016000838152602001908152602001600020600201549050919050565b610dfa6001600084815260200190815260200160002060020154610df5612837565b6116d6565b610e4f576040517f08c379a000000000000000000000000000000000000000000000000000000000815260040180806020018281038252602f8152602001806130b9602f913960400191505060405180910390fd5b610e59828261283f565b5050565b60035481565b610e6b612837565b73ffffffffffffffffffffffffffffffffffffffff168173ffffffffffffffffffffffffffffffffffffffff1614610eee576040517f08c379a000000000000000000000000000000000000000000000000000000000815260040180806020018281038252602f8152602001806131b7602f913960400191505060405180910390fd5b610ef882826128d3565b5050565b600033838584604051602001808573ffffffffffffffffffffffffffffffffffffffff1681526020018481526020018373ffffffffffffffffffffffffffffffffffffffff1681526020018273ffffffffffffffffffffffffffffffffffffffff1681526020019450505050506040516020818303038152906040528051906020012060001c905060006006600083815260200190815260200160002060000160009054906101000a900473ffffffffffffffffffffffffffffffffffffffff169050600073ffffffffffffffffffffffffffffffffffffffff168173ffffffffffffffffffffffffffffffffffffffff161415611062576040517f08c379a000000000000000000000000000000000000000000000000000000000815260040180806020018281038252600f8152602001807f6f72646572206e6f74206578697374000000000000000000000000000000000081525060200191505060405180910390fd5b3373ffffffffffffffffffffffffffffffffffffffff168173ffffffffffffffffffffffffffffffffffffffff1614611103576040517f08c379a000000000000000000000000000000000000000000000000000000000815260040180806020018281038252600f8152602001807f6f72646572206e6f7420796f757273000000000000000000000000000000000081525060200191505060405180910390fd5b6111178260046125b590919063ffffffff16565b5060066000838152602001908152602001600020600080820160006101000a81549073ffffffffffffffffffffffffffffffffffffffff02191690556001820160006101000a81549073ffffffffffffffffffffffffffffffffffffffff021916905560028201600090556003820160006101000a81549073ffffffffffffffffffffffffffffffffffffffff02191690556004820160009055600582016000905560068201600090555050837f935c9ad2f1fda9d7eae0d2a512f1521cb7190ee06165414e722366a65975fb6b60405160405180910390a25050505050565b60008060008060008060006006600089815260200190815260200160002090508060000160009054906101000a900473ffffffffffffffffffffffffffffffffffffffff169650806002015495508060030160009054906101000a900473ffffffffffffffffffffffffffffffffffffffff1694508060040154935080600501549250806006015491505091939550919395565b6112986000801b336116d6565b6112a157600080fd5b80600281905550816003819055505050565b6000806006600084815260200190815260200160002090508060000160009054906101000a900473ffffffffffffffffffffffffffffffffffffffff1673ffffffffffffffffffffffffffffffffffffffff168160010160009054906101000a900473ffffffffffffffffffffffffffffffffffffffff1673ffffffffffffffffffffffffffffffffffffffff16636352211e83600201546040518263ffffffff1660e01b81526004018082815260200191505060206040518083038186803b15801561137f57600080fd5b505afa158015611393573d6000803e3d6000fd5b505050506040513d60208110156113a957600080fd5b810190808051906020019092919050505073ffffffffffffffffffffffffffffffffffffffff16146113df57600091505061163d565b8060010160009054906101000a900473ffffffffffffffffffffffffffffffffffffffff1673ffffffffffffffffffffffffffffffffffffffff1663e985e9c58260000160009054906101000a900473ffffffffffffffffffffffffffffffffffffffff16306040518363ffffffff1660e01b8152600401808373ffffffffffffffffffffffffffffffffffffffff1681526020018273ffffffffffffffffffffffffffffffffffffffff1681526020019250505060206040518083038186803b1580156114ac57600080fd5b505afa1580156114c0573d6000803e3d6000fd5b505050506040513d60208110156114d657600080fd5b81019080805190602001909291905050506114f557600091505061163d565b428160050154826006015401101561151157600091505061163d565b601481600201541015801561152b5750602f816002015411155b1561153a57600091505061163d565b60638160020154141561155157600091505061163d565b60598160020154141561156857600091505061163d565b60568160020154141561157f57600091505061163d565b604e8160020154141561159657600091505061163d565b604b816002015414156115ad57600091505061163d565b6038816002015414156115c457600091505061163d565b6034816002015414156115db57600091505061163d565b6010816002015414156115f257600091505061163d565b600e8160020154141561160957600091505061163d565b60de8160020154141561162057600091505061163d565b60fc8160020154141561163757600091505061163d565b60019150505b919050565b61164f6000801b336116d6565b61165857600080fd5b81600760006101000a81548173ffffffffffffffffffffffffffffffffffffffff021916908373ffffffffffffffffffffffffffffffffffffffff160217905550806008819055505050565b60006116ce826001600086815260200190815260200160002060000161296790919063ffffffff16565b905092915050565b6000611700826001600086815260200190815260200160002060000161298190919063ffffffff16565b905092915050565b3373ffffffffffffffffffffffffffffffffffffffff168573ffffffffffffffffffffffffffffffffffffffff16636352211e866040518263ffffffff1660e01b81526004018082815260200191505060206040518083038186803b15801561177057600080fd5b505afa158015611784573d6000803e3d6000fd5b505050506040513d602081101561179a57600080fd5b810190808051906020019092919050505073ffffffffffffffffffffffffffffffffffffffff1614611834576040517f08c379a00000000000000000000000000000000000000000000000000000000081526004018080602001828103825260128152602001807f596f752068617665206e6f20616363657373000000000000000000000000000081525060200191505060405180910390fd5b8473ffffffffffffffffffffffffffffffffffffffff1663e985e9c533306040518363ffffffff1660e01b8152600401808373ffffffffffffffffffffffffffffffffffffffff1681526020018273ffffffffffffffffffffffffffffffffffffffff1681526020019250505060206040518083038186803b1580156118b957600080fd5b505afa1580156118cd573d6000803e3d6000fd5b505050506040513d60208110156118e357600080fd5b8101908080519060200190929190505050611966576040517f08c379a00000000000000000000000000000000000000000000000000000000081526004018080602001828103825260128152602001807f4d75737420617070726f7665206669727374000000000000000000000000000081525060200191505060405180910390fd5b6002548111156119de576040517f08c379a00000000000000000000000000000000000000000000000000000000081526004018080602001828103825260148152602001807f65787069726174696f6e20746f6f206c6172676500000000000000000000000081525060200191505060405180910390fd5b600354811015611a56576040517f08c379a00000000000000000000000000000000000000000000000000000000081526004018080602001828103825260148152602001807f65787069726174696f6e20746f6f20736d616c6c00000000000000000000000081525060200191505060405180910390fd5b600033858786604051602001808573ffffffffffffffffffffffffffffffffffffffff1681526020018481526020018373ffffffffffffffffffffffffffffffffffffffff1681526020018273ffffffffffffffffffffffffffffffffffffffff1681526020019450505050506040516020818303038152906040528051906020012060001c905060006006600083815260200190815260200160002060000160009054906101000a900473ffffffffffffffffffffffffffffffffffffffff169050600073ffffffffffffffffffffffffffffffffffffffff168173ffffffffffffffffffffffffffffffffffffffff1614611b5d57611b58878787610efc565b600090505b600073ffffffffffffffffffffffffffffffffffffffff168173ffffffffffffffffffffffffffffffffffffffff1614611bff576040517f08c379a000000000000000000000000000000000000000000000000000000000815260040180806020018281038252600b8152602001807f6f7264657220657869737400000000000000000000000000000000000000000081525060200191505060405180910390fd5b600073ffffffffffffffffffffffffffffffffffffffff168773ffffffffffffffffffffffffffffffffffffffff161415611ca2576040517f08c379a00000000000000000000000000000000000000000000000000000000081526004018080602001828103825260128152602001807f5f6e6674436f6e7472616374206572726f72000000000000000000000000000081525060200191505060405180910390fd5b6000861415611d19576040517f08c379a000000000000000000000000000000000000000000000000000000000815260040180806020018281038252600e8152602001807f5f746f6b656e4964206572726f7200000000000000000000000000000000000081525060200191505060405180910390fd5b600073ffffffffffffffffffffffffffffffffffffffff168573ffffffffffffffffffffffffffffffffffffffff161415611dbc576040517f08c379a000000000000000000000000000000000000000000000000000000000815260040180806020018281038252600c8152602001807f5f746f6b656e206572726f72000000000000000000000000000000000000000081525060200191505060405180910390fd5b6000841415611e33576040517f08c379a000000000000000000000000000000000000000000000000000000000815260040180806020018281038252600c8152602001807f5f7072696365206572726f72000000000000000000000000000000000000000081525060200191505060405180910390fd5b336006600084815260200190815260200160002060000160006101000a81548173ffffffffffffffffffffffffffffffffffffffff021916908373ffffffffffffffffffffffffffffffffffffffff160217905550866006600084815260200190815260200160002060010160006101000a81548173ffffffffffffffffffffffffffffffffffffffff021916908373ffffffffffffffffffffffffffffffffffffffff160217905550856006600084815260200190815260200160002060020181905550846006600084815260200190815260200160002060030160006101000a81548173ffffffffffffffffffffffffffffffffffffffff021916908373ffffffffffffffffffffffffffffffffffffffff160217905550836006600084815260200190815260200160002060040181905550826006600084815260200190815260200160002060050181905550426006600084815260200190815260200160002060060181905550611fb28260046129b190919063ffffffff16565b508473ffffffffffffffffffffffffffffffffffffffff16868873ffffffffffffffffffffffffffffffffffffffff167fed8ab8967d5eb2a680f3d424e1831536685eef731b72b1fc43c86fb6a25b3a5087878760405180848152602001838152602001828152602001935050505060405180910390a450505050505050565b60085481565b60008060006120518460046129cb90919063ffffffff16565b90508061205d826112b3565b9250925050915091565b6000801b81565b600060019054906101000a900460ff168061208d575061208c6129e5565b5b806120a3575060008054906101000a900460ff16155b6120f8576040517f08c379a000000000000000000000000000000000000000000000000000000000815260040180806020018281038252602e81526020018061313e602e913960400191505060405180910390fd5b60008060019054906101000a900460ff161590508015612148576001600060016101000a81548160ff02191690831515021790555060016000806101000a81548160ff0219169083151502179055505b6121556000801b836129f6565b6212750060028190555062015180600381905550801561218a5760008060016101000a81548160ff0219169083151502179055505b5050565b60006121ae60016000848152602001908152602001600020600001612a04565b9050919050565b6121dc60016000848152602001908152602001600020600201546121d7612837565b6116d6565b612231576040517f08c379a000000000000000000000000000000000000000000000000000000000815260040180806020018281038252603081526020018061310e6030913960400191505060405180910390fd5b61223b82826128d3565b5050565b60025481565b818112156122bb576040517f08c379a00000000000000000000000000000000000000000000000000000000081526004018080602001828103825260118152602001807f746f2073686f756c64203e3d2066726f6d00000000000000000000000000000081525060200191505060405180910390fd5b60008190505b8281126125b05760006122de8260046129cb90919063ffffffff16565b90506122e9816112b3565b6125a1576122f5613017565b600660008381526020019081526020016000206040518060e00160405290816000820160009054906101000a900473ffffffffffffffffffffffffffffffffffffffff1673ffffffffffffffffffffffffffffffffffffffff1673ffffffffffffffffffffffffffffffffffffffff1681526020016001820160009054906101000a900473ffffffffffffffffffffffffffffffffffffffff1673ffffffffffffffffffffffffffffffffffffffff1673ffffffffffffffffffffffffffffffffffffffff168152602001600282015481526020016003820160009054906101000a900473ffffffffffffffffffffffffffffffffffffffff1673ffffffffffffffffffffffffffffffffffffffff1673ffffffffffffffffffffffffffffffffffffffff168152602001600482015481526020016005820154815260200160068201548152505090506124538260046125b590919063ffffffff16565b5060066000838152602001908152602001600020600080820160006101000a81549073ffffffffffffffffffffffffffffffffffffffff02191690556001820160006101000a81549073ffffffffffffffffffffffffffffffffffffffff021916905560028201600090556003820160006101000a81549073ffffffffffffffffffffffffffffffffffffffff02191690556004820160009055600582016000905560068201600090555050806000015173ffffffffffffffffffffffffffffffffffffffff168160400151837f33b7da6c221701ff7b8b309e18f806c9b95c042e722d833102e1d683a95c8fb6846020015185606001518660800151604051808473ffffffffffffffffffffffffffffffffffffffff1681526020018373ffffffffffffffffffffffffffffffffffffffff168152602001828152602001935050505060405180910390a4505b508080600190039150506122c1565b505050565b60006125c7836000018360001b612a19565b905092915050565b6000808314156125e2576000905061264f565b60008284029050828482816125f357fe5b041461264a576040517f08c379a000000000000000000000000000000000000000000000000000000000815260040180806020018281038252602181526020018061316c6021913960400191505060405180910390fd5b809150505b92915050565b60008082116126cc576040517f08c379a000000000000000000000000000000000000000000000000000000000815260040180806020018281038252601a8152602001807f536166654d6174683a206469766973696f6e206279207a65726f00000000000081525060200191505060405180910390fd5b8183816126d557fe5b04905092915050565b612799846323b872dd60e01b858585604051602401808473ffffffffffffffffffffffffffffffffffffffff1681526020018373ffffffffffffffffffffffffffffffffffffffff1681526020018281526020019350505050604051602081830303815290604052907bffffffffffffffffffffffffffffffffffffffffffffffffffffffff19166020820180517bffffffffffffffffffffffffffffffffffffffffffffffffffffffff8381831617835250505050612b01565b50505050565b600082821115612817576040517f08c379a000000000000000000000000000000000000000000000000000000000815260040180806020018281038252601e8152602001807f536166654d6174683a207375627472616374696f6e206f766572666c6f77000081525060200191505060405180910390fd5b818303905092915050565b600061283082600001612bf0565b9050919050565b600033905090565b6128678160016000858152602001908152602001600020600001612c0190919063ffffffff16565b156128cf57612874612837565b73ffffffffffffffffffffffffffffffffffffffff168173ffffffffffffffffffffffffffffffffffffffff16837f2f8788117e7eff1d82e926ec794901d17c78024a50270940304540a733656f0d60405160405180910390a45b5050565b6128fb8160016000858152602001908152602001600020600001612c3190919063ffffffff16565b1561296357612908612837565b73ffffffffffffffffffffffffffffffffffffffff168173ffffffffffffffffffffffffffffffffffffffff16837ff6391f5c32d9c69d2a47ea670b442974b53935d1edc7fd64eb21e047a839171b60405160405180910390a45b5050565b60006129768360000183612c61565b60001c905092915050565b60006129a9836000018373ffffffffffffffffffffffffffffffffffffffff1660001b612ce4565b905092915050565b60006129c3836000018360001b612d07565b905092915050565b60006129da8360000183612c61565b60001c905092915050565b60006129f030612d77565b15905090565b612a00828261283f565b5050565b6000612a1282600001612bf0565b9050919050565b60008083600101600084815260200190815260200160002054905060008114612af55760006001820390506000600186600001805490500390506000866000018281548110612a6457fe5b9060005260206000200154905080876000018481548110612a8157fe5b9060005260206000200181905550600183018760010160008381526020019081526020016000208190555086600001805480612ab957fe5b60019003818190600052602060002001600090559055866001016000878152602001908152602001600020600090556001945050505050612afb565b60009150505b92915050565b6060612b63826040518060400160405280602081526020017f5361666545524332303a206c6f772d6c6576656c2063616c6c206661696c65648152508573ffffffffffffffffffffffffffffffffffffffff16612d8a9092919063ffffffff16565b9050600081511115612beb57808060200190516020811015612b8457600080fd5b8101908080519060200190929190505050612bea576040517f08c379a000000000000000000000000000000000000000000000000000000000815260040180806020018281038252602a81526020018061318d602a913960400191505060405180910390fd5b5b505050565b600081600001805490509050919050565b6000612c29836000018373ffffffffffffffffffffffffffffffffffffffff1660001b612d07565b905092915050565b6000612c59836000018373ffffffffffffffffffffffffffffffffffffffff1660001b612a19565b905092915050565b600081836000018054905011612cc2576040517f08c379a00000000000000000000000000000000000000000000000000000000081526004018080602001828103825260228152602001806130976022913960400191505060405180910390fd5b826000018281548110612cd157fe5b9060005260206000200154905092915050565b600080836001016000848152602001908152602001600020541415905092915050565b6000612d138383612ce4565b612d6c578260000182908060018154018082558091505060019003906000526020600020016000909190919091505582600001805490508360010160008481526020019081526020016000208190555060019050612d71565b600090505b92915050565b600080823b905060008111915050919050565b6060612d998484600085612da2565b90509392505050565b606082471015612dfd576040517f08c379a00000000000000000000000000000000000000000000000000000000081526004018080602001828103825260268152602001806130e86026913960400191505060405180910390fd5b612e0685612d77565b612e78576040517f08c379a000000000000000000000000000000000000000000000000000000000815260040180806020018281038252601d8152602001807f416464726573733a2063616c6c20746f206e6f6e2d636f6e747261637400000081525060200191505060405180910390fd5b600060608673ffffffffffffffffffffffffffffffffffffffff1685876040518082805190602001908083835b60208310612ec85780518252602082019150602081019050602083039250612ea5565b6001836020036101000a03801982511681845116808217855250505050505090500191505060006040518083038185875af1925050503d8060008114612f2a576040519150601f19603f3d011682016040523d82523d6000602084013e612f2f565b606091505b5091509150612f3f828286612f4b565b92505050949350505050565b60608315612f5b57829050613010565b600083511115612f6e5782518084602001fd5b816040517f08c379a00000000000000000000000000000000000000000000000000000000081526004018080602001828103825283818151815260200191508051906020019080838360005b83811015612fd5578082015181840152602081019050612fba565b50505050905090810190601f1680156130025780820380516001836020036101000a031916815260200191505b509250505060405180910390fd5b9392505050565b6040518060e00160405280600073ffffffffffffffffffffffffffffffffffffffff168152602001600073ffffffffffffffffffffffffffffffffffffffff16815260200160008152602001600073ffffffffffffffffffffffffffffffffffffffff168152602001600081526020016000815260200160008152509056fe456e756d657261626c655365743a20696e646578206f7574206f6620626f756e6473416363657373436f6e74726f6c3a2073656e646572206d75737420626520616e2061646d696e20746f206772616e74416464726573733a20696e73756666696369656e742062616c616e636520666f722063616c6c416363657373436f6e74726f6c3a2073656e646572206d75737420626520616e2061646d696e20746f207265766f6b65496e697469616c697a61626c653a20636f6e747261637420697320616c726561647920696e697469616c697a6564536166654d6174683a206d756c7469706c69636174696f6e206f766572666c6f775361666545524332303a204552433230206f7065726174696f6e20646964206e6f742073756363656564416363657373436f6e74726f6c3a2063616e206f6e6c792072656e6f756e636520726f6c657320666f722073656c66a2646970667358221220be3a8377a980434b86c7617e47b53333bd8a3e49bf1b33131211f7a5ff87415b64736f6c634300060c0033",
  "immutableReferences": {},
  "source": "// SPDX-License-Identifier: MIT\npragma solidity 0.6.12;\n\nimport \"@openzeppelin/contracts/math/SafeMath.sol\";\nimport \"@openzeppelin/contracts/token/ERC721/IERC721.sol\";\nimport \"@openzeppelin/contracts/token/ERC20/IERC20.sol\";\nimport \"@openzeppelin/contracts/token/ERC20/SafeERC20.sol\";\nimport \"@openzeppelin/contracts/access/AccessControl.sol\";\nimport \"@openzeppelin/contracts/proxy/Initializable.sol\";\nimport \"./FwarMarketStorage.sol\";\n\n\ncontract MarketplaceDelegate is Initializable, AccessControl, MarketplaceStorage {\n    using SafeERC20 for IERC20;\n\n    event CreateOrder(address indexed _nftContract, uint indexed _tokenId, address indexed _token, uint _price, uint _expiration, uint _orderId);\n\n    event CancelOrder(uint indexed _tokenId);\n\n    event BuyOrder(uint indexed _orderId, uint indexed _tokenId, address indexed _buyer, address _seller, address _nftContract, address _token, uint price);\n    \n    event CleanOrder(uint indexed _orderId, uint indexed _tokenId, address indexed _seller, address _nftContract, address _token, uint price);\n\n    function initialize(address admin) public payable initializer {\n        _setupRole(DEFAULT_ADMIN_ROLE, admin);\n        maxExpirationTime = 14 days;\n        minExpirationTime = 1 days;\n    }\n\n    function configExpiration(uint _minExpirationTime, uint _maxExpirationTime) public {\n        require(hasRole(DEFAULT_ADMIN_ROLE, msg.sender));\n        maxExpirationTime = _maxExpirationTime;\n        minExpirationTime = _minExpirationTime;\n    }\n\n    function configFee(address _feeTo, uint _feeRate) public {\n        require(hasRole(DEFAULT_ADMIN_ROLE, msg.sender));\n        feeTo = _feeTo;\n        feeRate = _feeRate;\n    }\n\n    /// @dev createOrder is called by a seller\n    /// @param _nftContract is the NFT contract address\n    /// @param _tokenId is the NFT tokenId\n    /// @param _expiration is the expiration of order in seconds\n    /// @param _token is the pay token contract address for buyer\n    /// @param _price is the amount of pay token\n    function createOrder(address _nftContract, uint _tokenId, address _token, uint _price, uint _expiration) external {\n        require(IERC721(_nftContract).ownerOf(_tokenId) == msg.sender, \"You have no access\");\n        require(IERC721(_nftContract).isApprovedForAll(msg.sender, address(this)), \"Must approve first\");\n        require(_expiration <= maxExpirationTime, \"expiration too large\");\n        require(_expiration >= minExpirationTime, \"expiration too small\");\n        uint orderId = uint(keccak256(abi.encode(msg.sender, _tokenId, _nftContract, _token)));\n        address owner = orders[orderId].owner;\n        if (owner != address(0)) {\n            cancelOrder(_nftContract, _tokenId, _token);\n            owner = address(0);\n        }\n        require(owner == address(0), \"order exist\");\n        require(_nftContract != address(0), \"_nftContract error\");\n        require(_tokenId != 0, \"_tokenId error\");\n        require(_token != address(0), \"_token error\");\n        require(_price != 0, \"_price error\");\n\n        orders[orderId].owner = msg.sender;\n        orders[orderId].nftContract = _nftContract;\n        orders[orderId].tokenId = _tokenId;\n        orders[orderId].token = _token;\n        orders[orderId].price = _price;\n        orders[orderId].expiration = _expiration;\n        orders[orderId].createTime = block.timestamp;\n        orderIds.add(orderId);\n\n        emit CreateOrder(_nftContract, _tokenId, _token, _price, _expiration, orderId);\n    }\n\n    /// @param _nftContract is the NFT contract address\n    /// @param _tokenId is the NFT tokenId\n    /// @param _token is the pay token contract address for buyer\n    function cancelOrder(address _nftContract, uint _tokenId, address _token) public {\n        uint orderId = uint(keccak256(abi.encode(msg.sender, _tokenId, _nftContract, _token)));\n        address owner = orders[orderId].owner;\n        require(owner != address(0), \"order not exist\");\n        require(owner == msg.sender, \"order not yours\");\n        orderIds.remove(orderId);\n        delete orders[orderId];\n\n        emit CancelOrder(_tokenId);\n    }\n\n    function buyOrder(uint _orderId) external {\n        require(checkOrderValid(_orderId), \"order is not valid\");\n        OrderInfo memory order = orders[_orderId];\n\n        orderIds.remove(_orderId);\n        delete orders[_orderId];\n\n        uint total = order.price;\n        uint fee = total.mul(feeRate).div(1e12);\n\n        // transfer fee\n        IERC20(order.token).safeTransferFrom(msg.sender, feeTo, fee);\n\n        IERC20(order.token).safeTransferFrom(msg.sender, order.owner, order.price.sub(fee));\n        IERC721(order.nftContract).safeTransferFrom(order.owner, msg.sender, order.tokenId);\n\n        emit BuyOrder(_orderId, order.tokenId, msg.sender, order.owner, order.nftContract, order.token, order.price);\n    }\n\n    function orderCount() public view returns (uint) {\n        return orderIds.length();\n    }\n\n    function getOrderId(uint index) public view returns (uint orderId, bool isValid) {\n        uint id = orderIds.at(index);\n        return (id, checkOrderValid(id));\n    }\n\n    function getOrderById(uint orderId) public view returns (address owner, uint tokenId, address token, uint price, uint expiration, uint createTime) {\n        OrderInfo storage info = orders[orderId];\n        owner = info.owner;\n        tokenId = info.tokenId;\n        token = info.token;\n        price = info.price;\n        expiration = info.expiration;\n        createTime = info.createTime;\n    }\n\n    function checkOrderValid(uint orderId) public view returns (bool) {\n        OrderInfo storage info = orders[orderId];\n        if (IERC721(info.nftContract).ownerOf(info.tokenId) != info.owner) {\n            return false;\n        }\n\n        if (!IERC721(info.nftContract).isApprovedForAll(info.owner, address(this))) {\n            return false;\n        }\n\n        if (info.createTime + info.expiration < block.timestamp) {\n            return false;\n        }\n\n        // fix for foridden cheaters NFT\n        if (info.tokenId >= 20 && info.tokenId <= 47) {\n            return false;\n        }\n        if (info.tokenId == 99) {\n            return false;\n        }\n        if (info.tokenId == 89) {\n            return false;\n        }\n        if (info.tokenId == 86) {\n            return false;\n        }\n        if (info.tokenId == 78) {\n            return false;\n        }\n        if (info.tokenId == 75) {\n            return false;\n        }\n\n        if (info.tokenId == 56) {\n            return false;\n        }\n\n        if (info.tokenId == 52) {\n            return false;\n        }\n\n        if (info.tokenId == 16) {\n            return false;\n        }\n\n        if (info.tokenId == 14) {\n            return false;\n        }\n\n        if (info.tokenId == 222) {\n            return false;\n        }\n\n        if (info.tokenId == 252) {\n            return false;\n        }\n\n        return true;\n    }\n\n    function cleanInvalidOrders(int from, int to) public {\n        require(to >= from, \"to should >= from\");\n        for (int i=to; i>= from; i--) {\n            uint orderId = orderIds.at(uint(i));\n            if (!checkOrderValid(orderId)) {\n                OrderInfo memory info = orders[orderId];\n                orderIds.remove(orderId);\n                delete orders[orderId];\n                emit CleanOrder(orderId, info.tokenId, info.owner, info.nftContract, info.token, info.price);\n            }\n        }\n    }\n}",
  "sourcePath": "/Users/badung1870/Working/Node/FwarProject/SourceCode/SmartContracts/Fwar/FwarMarket/contracts/FwarMarketDelegate.sol",
  "compiler": {
    "name": "solc",
    "version": "0.6.12+commit.27d51765.Emscripten.clang"
  },
  "schemaVersion": "3.4.3",
  "updatedAt": "2021-09-21T03:46:30.421Z",
  "devdoc": {
    "kind": "dev",
    "methods": {
      "cancelOrder(address,uint256,address)": {
        "params": {
          "_nftContract": "is the NFT contract address",
          "_token": "is the pay token contract address for buyer",
          "_tokenId": "is the NFT tokenId"
        }
      },
      "createOrder(address,uint256,address,uint256,uint256)": {
        "details": "createOrder is called by a seller",
        "params": {
          "_expiration": "is the expiration of order in seconds",
          "_nftContract": "is the NFT contract address",
          "_price": "is the amount of pay token",
          "_token": "is the pay token contract address for buyer",
          "_tokenId": "is the NFT tokenId"
        }
      },
      "getRoleAdmin(bytes32)": {
        "details": "Returns the admin role that controls `role`. See {grantRole} and {revokeRole}. To change a role's admin, use {_setRoleAdmin}."
      },
      "getRoleMember(bytes32,uint256)": {
        "details": "Returns one of the accounts that have `role`. `index` must be a value between 0 and {getRoleMemberCount}, non-inclusive. Role bearers are not sorted in any particular way, and their ordering may change at any point. WARNING: When using {getRoleMember} and {getRoleMemberCount}, make sure you perform all queries on the same block. See the following https://forum.openzeppelin.com/t/iterating-over-elements-on-enumerableset-in-openzeppelin-contracts/2296[forum post] for more information."
      },
      "getRoleMemberCount(bytes32)": {
        "details": "Returns the number of accounts that have `role`. Can be used together with {getRoleMember} to enumerate all bearers of a role."
      },
      "grantRole(bytes32,address)": {
        "details": "Grants `role` to `account`. If `account` had not been already granted `role`, emits a {RoleGranted} event. Requirements: - the caller must have ``role``'s admin role."
      },
      "hasRole(bytes32,address)": {
        "details": "Returns `true` if `account` has been granted `role`."
      },
      "renounceRole(bytes32,address)": {
        "details": "Revokes `role` from the calling account. Roles are often managed via {grantRole} and {revokeRole}: this function's purpose is to provide a mechanism for accounts to lose their privileges if they are compromised (such as when a trusted device is misplaced). If the calling account had been granted `role`, emits a {RoleRevoked} event. Requirements: - the caller must be `account`."
      },
      "revokeRole(bytes32,address)": {
        "details": "Revokes `role` from `account`. If `account` had been granted `role`, emits a {RoleRevoked} event. Requirements: - the caller must have ``role``'s admin role."
      }
    },
    "version": 1
  },
  "userdoc": {
    "kind": "user",
    "methods": {},
    "version": 1
  }
}