{
  "contractName": "FwarCharDelegate",
  "abi": [
    {
      "anonymous": false,
      "inputs": [
        {
          "indexed": true,
          "internalType": "address",
          "name": "_caller",
          "type": "address"
        },
        {
          "indexed": true,
          "internalType": "address",
          "name": "_receiver",
          "type": "address"
        },
        {
          "indexed": false,
          "internalType": "uint256[4][]",
          "name": "_openChestInfo",
          "type": "uint256[4][]"
        },
        {
          "indexed": false,
          "internalType": "uint256",
          "name": "_number",
          "type": "uint256"
        }
      ],
      "name": "OpenChest",
      "type": "event"
    },
    {
      "anonymous": false,
      "inputs": [
        {
          "indexed": true,
          "internalType": "bytes32",
          "name": "role",
          "type": "bytes32"
        },
        {
          "indexed": true,
          "internalType": "bytes32",
          "name": "previousAdminRole",
          "type": "bytes32"
        },
        {
          "indexed": true,
          "internalType": "bytes32",
          "name": "newAdminRole",
          "type": "bytes32"
        }
      ],
      "name": "RoleAdminChanged",
      "type": "event"
    },
    {
      "anonymous": false,
      "inputs": [
        {
          "indexed": true,
          "internalType": "bytes32",
          "name": "role",
          "type": "bytes32"
        },
        {
          "indexed": true,
          "internalType": "address",
          "name": "account",
          "type": "address"
        },
        {
          "indexed": true,
          "internalType": "address",
          "name": "sender",
          "type": "address"
        }
      ],
      "name": "RoleGranted",
      "type": "event"
    },
    {
      "anonymous": false,
      "inputs": [
        {
          "indexed": true,
          "internalType": "bytes32",
          "name": "role",
          "type": "bytes32"
        },
        {
          "indexed": true,
          "internalType": "address",
          "name": "account",
          "type": "address"
        },
        {
          "indexed": true,
          "internalType": "address",
          "name": "sender",
          "type": "address"
        }
      ],
      "name": "RoleRevoked",
      "type": "event"
    },
    {
      "inputs": [],
      "name": "DEFAULT_ADMIN_ROLE",
      "outputs": [
        {
          "internalType": "bytes32",
          "name": "",
          "type": "bytes32"
        }
      ],
      "stateMutability": "view",
      "type": "function",
      "constant": true
    },
    {
      "inputs": [
        {
          "internalType": "uint256",
          "name": "",
          "type": "uint256"
        }
      ],
      "name": "ELEMENT_MASK",
      "outputs": [
        {
          "internalType": "uint32",
          "name": "",
          "type": "uint32"
        }
      ],
      "stateMutability": "view",
      "type": "function",
      "constant": true
    },
    {
      "inputs": [
        {
          "internalType": "uint256",
          "name": "",
          "type": "uint256"
        }
      ],
      "name": "RARITY_MASK",
      "outputs": [
        {
          "internalType": "uint32",
          "name": "",
          "type": "uint32"
        }
      ],
      "stateMutability": "view",
      "type": "function",
      "constant": true
    },
    {
      "inputs": [],
      "name": "TeamCount",
      "outputs": [
        {
          "internalType": "uint32",
          "name": "",
          "type": "uint32"
        }
      ],
      "stateMutability": "view",
      "type": "function",
      "constant": true
    },
    {
      "inputs": [
        {
          "internalType": "uint256",
          "name": "",
          "type": "uint256"
        },
        {
          "internalType": "uint256",
          "name": "",
          "type": "uint256"
        }
      ],
      "name": "burnInfos",
      "outputs": [
        {
          "internalType": "uint8",
          "name": "junkAmount",
          "type": "uint8"
        },
        {
          "internalType": "uint8",
          "name": "normalAmount",
          "type": "uint8"
        },
        {
          "internalType": "uint8",
          "name": "rareAmount",
          "type": "uint8"
        },
        {
          "internalType": "uint8",
          "name": "baseAmount",
          "type": "uint8"
        },
        {
          "internalType": "uint8",
          "name": "percentConsume",
          "type": "uint8"
        },
        {
          "internalType": "uint8",
          "name": "percentOnBase",
          "type": "uint8"
        }
      ],
      "stateMutability": "view",
      "type": "function",
      "constant": true
    },
    {
      "inputs": [
        {
          "internalType": "uint32",
          "name": "",
          "type": "uint32"
        },
        {
          "internalType": "uint8",
          "name": "",
          "type": "uint8"
        }
      ],
      "name": "charStats",
      "outputs": [
        {
          "internalType": "uint32",
          "name": "maxAttack",
          "type": "uint32"
        },
        {
          "internalType": "uint32",
          "name": "minAttack",
          "type": "uint32"
        },
        {
          "internalType": "uint32",
          "name": "maxDefense",
          "type": "uint32"
        },
        {
          "internalType": "uint32",
          "name": "minDefense",
          "type": "uint32"
        },
        {
          "internalType": "uint32",
          "name": "maxHealth",
          "type": "uint32"
        },
        {
          "internalType": "uint32",
          "name": "minHealth",
          "type": "uint32"
        }
      ],
      "stateMutability": "view",
      "type": "function",
      "constant": true
    },
    {
      "inputs": [],
      "name": "fwarCharAddress",
      "outputs": [
        {
          "internalType": "address",
          "name": "",
          "type": "address"
        }
      ],
      "stateMutability": "view",
      "type": "function",
      "constant": true
    },
    {
      "inputs": [],
      "name": "fwarKeyAddress",
      "outputs": [
        {
          "internalType": "address",
          "name": "",
          "type": "address"
        }
      ],
      "stateMutability": "view",
      "type": "function",
      "constant": true
    },
    {
      "inputs": [
        {
          "internalType": "bytes32",
          "name": "role",
          "type": "bytes32"
        }
      ],
      "name": "getRoleAdmin",
      "outputs": [
        {
          "internalType": "bytes32",
          "name": "",
          "type": "bytes32"
        }
      ],
      "stateMutability": "view",
      "type": "function",
      "constant": true
    },
    {
      "inputs": [
        {
          "internalType": "bytes32",
          "name": "role",
          "type": "bytes32"
        },
        {
          "internalType": "uint256",
          "name": "index",
          "type": "uint256"
        }
      ],
      "name": "getRoleMember",
      "outputs": [
        {
          "internalType": "address",
          "name": "",
          "type": "address"
        }
      ],
      "stateMutability": "view",
      "type": "function",
      "constant": true
    },
    {
      "inputs": [
        {
          "internalType": "bytes32",
          "name": "role",
          "type": "bytes32"
        }
      ],
      "name": "getRoleMemberCount",
      "outputs": [
        {
          "internalType": "uint256",
          "name": "",
          "type": "uint256"
        }
      ],
      "stateMutability": "view",
      "type": "function",
      "constant": true
    },
    {
      "inputs": [
        {
          "internalType": "bytes32",
          "name": "role",
          "type": "bytes32"
        },
        {
          "internalType": "address",
          "name": "account",
          "type": "address"
        }
      ],
      "name": "grantRole",
      "outputs": [],
      "stateMutability": "nonpayable",
      "type": "function"
    },
    {
      "inputs": [
        {
          "internalType": "bytes32",
          "name": "role",
          "type": "bytes32"
        },
        {
          "internalType": "address",
          "name": "account",
          "type": "address"
        }
      ],
      "name": "hasRole",
      "outputs": [
        {
          "internalType": "bool",
          "name": "",
          "type": "bool"
        }
      ],
      "stateMutability": "view",
      "type": "function",
      "constant": true
    },
    {
      "inputs": [
        {
          "internalType": "address",
          "name": "",
          "type": "address"
        },
        {
          "internalType": "address",
          "name": "",
          "type": "address"
        },
        {
          "internalType": "uint256",
          "name": "",
          "type": "uint256"
        },
        {
          "internalType": "bytes",
          "name": "",
          "type": "bytes"
        }
      ],
      "name": "onERC721Received",
      "outputs": [
        {
          "internalType": "bytes4",
          "name": "",
          "type": "bytes4"
        }
      ],
      "stateMutability": "nonpayable",
      "type": "function"
    },
    {
      "inputs": [
        {
          "internalType": "bytes32",
          "name": "role",
          "type": "bytes32"
        },
        {
          "internalType": "address",
          "name": "account",
          "type": "address"
        }
      ],
      "name": "renounceRole",
      "outputs": [],
      "stateMutability": "nonpayable",
      "type": "function"
    },
    {
      "inputs": [
        {
          "internalType": "bytes32",
          "name": "role",
          "type": "bytes32"
        },
        {
          "internalType": "address",
          "name": "account",
          "type": "address"
        }
      ],
      "name": "revokeRole",
      "outputs": [],
      "stateMutability": "nonpayable",
      "type": "function"
    },
    {
      "inputs": [],
      "name": "seedAddress",
      "outputs": [
        {
          "internalType": "address",
          "name": "",
          "type": "address"
        }
      ],
      "stateMutability": "view",
      "type": "function",
      "constant": true
    },
    {
      "inputs": [
        {
          "internalType": "uint32",
          "name": "",
          "type": "uint32"
        }
      ],
      "name": "teamInfos",
      "outputs": [
        {
          "internalType": "uint32",
          "name": "maxRandom",
          "type": "uint32"
        },
        {
          "internalType": "uint32",
          "name": "minRandom",
          "type": "uint32"
        }
      ],
      "stateMutability": "view",
      "type": "function",
      "constant": true
    },
    {
      "inputs": [
        {
          "internalType": "address",
          "name": "admin",
          "type": "address"
        },
        {
          "internalType": "address",
          "name": "_fwarCharAddress",
          "type": "address"
        },
        {
          "internalType": "address",
          "name": "_seedAddress",
          "type": "address"
        },
        {
          "internalType": "address",
          "name": "_fwarKeyAddress",
          "type": "address"
        }
      ],
      "name": "initialize",
      "outputs": [],
      "stateMutability": "payable",
      "type": "function",
      "payable": true
    },
    {
      "inputs": [
        {
          "internalType": "uint32[]",
          "name": "valuelist",
          "type": "uint32[]"
        }
      ],
      "name": "setRarity",
      "outputs": [],
      "stateMutability": "nonpayable",
      "type": "function"
    },
    {
      "inputs": [
        {
          "internalType": "uint32[]",
          "name": "valuelist",
          "type": "uint32[]"
        }
      ],
      "name": "setElement",
      "outputs": [],
      "stateMutability": "nonpayable",
      "type": "function"
    },
    {
      "inputs": [],
      "name": "getRarity",
      "outputs": [
        {
          "internalType": "uint32[]",
          "name": "",
          "type": "uint32[]"
        }
      ],
      "stateMutability": "view",
      "type": "function",
      "constant": true
    },
    {
      "inputs": [],
      "name": "getElement",
      "outputs": [
        {
          "internalType": "uint32[]",
          "name": "",
          "type": "uint32[]"
        }
      ],
      "stateMutability": "view",
      "type": "function",
      "constant": true
    },
    {
      "inputs": [
        {
          "internalType": "uint32",
          "name": "_teamId",
          "type": "uint32"
        }
      ],
      "name": "getTeamInfo",
      "outputs": [
        {
          "internalType": "uint32",
          "name": "maxRandom",
          "type": "uint32"
        },
        {
          "internalType": "uint32",
          "name": "minRandom",
          "type": "uint32"
        }
      ],
      "stateMutability": "view",
      "type": "function",
      "constant": true
    },
    {
      "inputs": [
        {
          "internalType": "uint32",
          "name": "_maxRandom",
          "type": "uint32"
        },
        {
          "internalType": "uint32",
          "name": "_minRandom",
          "type": "uint32"
        }
      ],
      "name": "addTeamInfo",
      "outputs": [],
      "stateMutability": "nonpayable",
      "type": "function"
    },
    {
      "inputs": [
        {
          "internalType": "uint32",
          "name": "_teamId",
          "type": "uint32"
        },
        {
          "internalType": "uint32",
          "name": "_maxRandom",
          "type": "uint32"
        },
        {
          "internalType": "uint32",
          "name": "_minRandom",
          "type": "uint32"
        }
      ],
      "name": "updateTeamInfo",
      "outputs": [],
      "stateMutability": "nonpayable",
      "type": "function"
    },
    {
      "inputs": [
        {
          "internalType": "uint32",
          "name": "_teamId",
          "type": "uint32"
        },
        {
          "internalType": "uint8",
          "name": "_rarity",
          "type": "uint8"
        },
        {
          "internalType": "uint32",
          "name": "_maxAttack",
          "type": "uint32"
        },
        {
          "internalType": "uint32",
          "name": "_minAttack",
          "type": "uint32"
        },
        {
          "internalType": "uint32",
          "name": "_maxDefense",
          "type": "uint32"
        },
        {
          "internalType": "uint32",
          "name": "_minDefense",
          "type": "uint32"
        },
        {
          "internalType": "uint32",
          "name": "_maxHealth",
          "type": "uint32"
        },
        {
          "internalType": "uint32",
          "name": "_minHealth",
          "type": "uint32"
        }
      ],
      "name": "updateCharStat",
      "outputs": [],
      "stateMutability": "nonpayable",
      "type": "function"
    },
    {
      "inputs": [
        {
          "internalType": "uint32",
          "name": "_teamId",
          "type": "uint32"
        },
        {
          "internalType": "uint8",
          "name": "_rarity",
          "type": "uint8"
        }
      ],
      "name": "getCharStat",
      "outputs": [
        {
          "internalType": "uint32",
          "name": "maxAttack",
          "type": "uint32"
        },
        {
          "internalType": "uint32",
          "name": "minAttack",
          "type": "uint32"
        },
        {
          "internalType": "uint32",
          "name": "maxDefense",
          "type": "uint32"
        },
        {
          "internalType": "uint32",
          "name": "minDefense",
          "type": "uint32"
        },
        {
          "internalType": "uint32",
          "name": "maxHealth",
          "type": "uint32"
        },
        {
          "internalType": "uint32",
          "name": "minHealth",
          "type": "uint32"
        }
      ],
      "stateMutability": "view",
      "type": "function",
      "constant": true
    },
    {
      "inputs": [
        {
          "internalType": "address",
          "name": "_seedAddress",
          "type": "address"
        }
      ],
      "name": "setSeedAddress",
      "outputs": [],
      "stateMutability": "nonpayable",
      "type": "function"
    },
    {
      "inputs": [
        {
          "internalType": "address",
          "name": "_fwarCharAddress",
          "type": "address"
        }
      ],
      "name": "setFwarCharAddress",
      "outputs": [],
      "stateMutability": "nonpayable",
      "type": "function"
    },
    {
      "inputs": [
        {
          "internalType": "address",
          "name": "_fwarKeyAddress",
          "type": "address"
        }
      ],
      "name": "setFwarKeyAddress",
      "outputs": [],
      "stateMutability": "nonpayable",
      "type": "function"
    },
    {
      "inputs": [
        {
          "internalType": "uint8",
          "name": "_ratity",
          "type": "uint8"
        },
        {
          "internalType": "uint8",
          "name": "_level",
          "type": "uint8"
        },
        {
          "internalType": "uint8",
          "name": "_junkAmount",
          "type": "uint8"
        },
        {
          "internalType": "uint8",
          "name": "_normalAmount",
          "type": "uint8"
        },
        {
          "internalType": "uint8",
          "name": "_rareAmount",
          "type": "uint8"
        },
        {
          "internalType": "uint8",
          "name": "_baseAmount",
          "type": "uint8"
        },
        {
          "internalType": "uint8",
          "name": "_percentConsume",
          "type": "uint8"
        },
        {
          "internalType": "uint8",
          "name": "_percentOnBase",
          "type": "uint8"
        }
      ],
      "name": "setBurnInfos",
      "outputs": [],
      "stateMutability": "nonpayable",
      "type": "function"
    },
    {
      "inputs": [
        {
          "internalType": "uint8",
          "name": "_ratity",
          "type": "uint8"
        },
        {
          "internalType": "uint8",
          "name": "_level",
          "type": "uint8"
        }
      ],
      "name": "getBurnInfo",
      "outputs": [
        {
          "internalType": "uint8",
          "name": "junkAmount",
          "type": "uint8"
        },
        {
          "internalType": "uint8",
          "name": "normalAmount",
          "type": "uint8"
        },
        {
          "internalType": "uint8",
          "name": "rareAmount",
          "type": "uint8"
        },
        {
          "internalType": "uint8",
          "name": "baseAmount",
          "type": "uint8"
        }
      ],
      "stateMutability": "view",
      "type": "function",
      "constant": true
    },
    {
      "inputs": [
        {
          "internalType": "address",
          "name": "user",
          "type": "address"
        },
        {
          "internalType": "uint256",
          "name": "number",
          "type": "uint256"
        }
      ],
      "name": "OpenItems",
      "outputs": [],
      "stateMutability": "nonpayable",
      "type": "function"
    },
    {
      "inputs": [
        {
          "internalType": "uint32",
          "name": "_mainNFTId",
          "type": "uint32"
        },
        {
          "internalType": "uint32[]",
          "name": "_burnedNfts",
          "type": "uint32[]"
        }
      ],
      "name": "upgrade",
      "outputs": [],
      "stateMutability": "nonpayable",
      "type": "function"
    }
  ],
  "bytecode": "0x608060405234801561001057600080fd5b506157e280620000216000396000f3fe6080604052600436106102045760003560e01c806362339bc411610118578063b3d371fa116100a0578063d33f79781161006f578063d33f797814610ec6578063d4da7ff814610f07578063d547741f14610fb0578063e81975951461100b578063f8c8765e1461109957610204565b8063b3d371fa14610d76578063b95c238614610dcb578063ca15c87314610e1c578063d0ba7dc814610e6b57610204565b806382e9aa8e116100e757806382e9aa8e14610bd95780639010d07c14610c1a5780639130736814610c8957806391d1485414610cda578063a217fddf14610d4b57610204565b806362339bc4146109cb5780636a88c78614610a5157806378b723b014610ae75780637b32cdba14610b6d57610204565b806325ea85c51161019b57806336568abe1161016a57806336568abe146107e65780633ea7d17914610841578063425c3dbd146108ad57806354bda05e1461090e5780635fbd28481461096357610204565b806325ea85c51461064a578063294838f81461068b5780632d4fd0e21461073a5780632f2ff15d1461078b57610204565b806316b6224b116101d757806316b6224b146104875780631dda884a146104b8578063244536ad14610561578063248a9ca3146105fb57610204565b80630205fd22146102095780630c7a465914610271578063118eeae4146102f1578063150b7a0214610342575b600080fd5b34801561021557600080fd5b506102486004803603602081101561022c57600080fd5b81019080803563ffffffff16906020019092919050505061113d565b604051808363ffffffff1681526020018263ffffffff1681526020019250505060405180910390f35b34801561027d57600080fd5b506102ba6004803603604081101561029457600080fd5b81019080803560ff169060200190929190803560ff169060200190929190505050611181565b604051808560ff1681526020018460ff1681526020018360ff1681526020018260ff16815260200194505050505060405180910390f35b3480156102fd57600080fd5b506103406004803603602081101561031457600080fd5b81019080803573ffffffffffffffffffffffffffffffffffffffff169060200190929190505050611284565b005b34801561034e57600080fd5b506104526004803603608081101561036557600080fd5b81019080803573ffffffffffffffffffffffffffffffffffffffff169060200190929190803573ffffffffffffffffffffffffffffffffffffffff16906020019092919080359060200190929190803590602001906401000000008111156103cc57600080fd5b8201836020820111156103de57600080fd5b8035906020019184600183028401116401000000008311171561040057600080fd5b91908080601f016020809104026020016040519081016040528093929190818152602001838380828437600081840152601f19601f82011690508083019250505050505050919291929050505061134e565b60405180827bffffffffffffffffffffffffffffffffffffffffffffffffffffffff1916815260200191505060405180910390f35b34801561049357600080fd5b5061049c611362565b604051808263ffffffff16815260200191505060405180910390f35b3480156104c457600080fd5b50610504600480360360408110156104db57600080fd5b81019080803563ffffffff169060200190929190803560ff169060200190929190505050611378565b604051808763ffffffff1681526020018663ffffffff1681526020018563ffffffff1681526020018463ffffffff1681526020018363ffffffff1681526020018263ffffffff168152602001965050505050505060405180910390f35b34801561056d57600080fd5b506105f9600480360361010081101561058557600080fd5b81019080803560ff169060200190929190803560ff169060200190929190803560ff169060200190929190803560ff169060200190929190803560ff169060200190929190803560ff169060200190929190803560ff169060200190929190803560ff169060200190929190505050611421565b005b34801561060757600080fd5b506106346004803603602081101561061e57600080fd5b81019080803590602001909291905050506116cf565b6040518082815260200191505060405180910390f35b34801561065657600080fd5b5061065f6116ef565b604051808273ffffffffffffffffffffffffffffffffffffffff16815260200191505060405180910390f35b34801561069757600080fd5b5061073860048036036101008110156106af57600080fd5b81019080803563ffffffff169060200190929190803560ff169060200190929190803563ffffffff169060200190929190803563ffffffff169060200190929190803563ffffffff169060200190929190803563ffffffff169060200190929190803563ffffffff169060200190929190803563ffffffff169060200190929190505050611715565b005b34801561074657600080fd5b506107896004803603602081101561075d57600080fd5b81019080803573ffffffffffffffffffffffffffffffffffffffff1690602001909291905050506119b5565b005b34801561079757600080fd5b506107e4600480360360408110156107ae57600080fd5b8101908080359060200190929190803573ffffffffffffffffffffffffffffffffffffffff169060200190929190505050611a7f565b005b3480156107f257600080fd5b5061083f6004803603604081101561080957600080fd5b8101908080359060200190929190803573ffffffffffffffffffffffffffffffffffffffff169060200190929190505050611b09565b005b34801561084d57600080fd5b50610856611ba2565b6040518080602001828103825283818151815260200191508051906020019060200280838360005b8381101561089957808201518184015260208101905061087e565b505050509050019250505060405180910390f35b3480156108b957600080fd5b5061090c600480360360608110156108d057600080fd5b81019080803563ffffffff169060200190929190803563ffffffff169060200190929190803563ffffffff169060200190929190505050611c26565b005b34801561091a57600080fd5b506109476004803603602081101561093157600080fd5b8101908080359060200190929190505050611d33565b604051808263ffffffff16815260200191505060405180910390f35b34801561096f57600080fd5b506109a26004803603602081101561098657600080fd5b81019080803563ffffffff169060200190929190505050611d6a565b604051808363ffffffff1681526020018263ffffffff1681526020019250505060405180910390f35b3480156109d757600080fd5b50610a4f600480360360208110156109ee57600080fd5b8101908080359060200190640100000000811115610a0b57600080fd5b820183602082011115610a1d57600080fd5b80359060200191846020830284011164010000000083111715610a3f57600080fd5b9091929391929390505050611ddc565b005b348015610a5d57600080fd5b50610ae560048036036040811015610a7457600080fd5b81019080803563ffffffff16906020019092919080359060200190640100000000811115610aa157600080fd5b820183602082011115610ab357600080fd5b80359060200191846020830284011164010000000083111715610ad557600080fd5b9091929391929390505050611e78565b005b348015610af357600080fd5b50610b6b60048036036020811015610b0a57600080fd5b8101908080359060200190640100000000811115610b2757600080fd5b820183602082011115610b3957600080fd5b80359060200191846020830284011164010000000083111715610b5b57600080fd5b9091929391929390505050612671565b005b348015610b7957600080fd5b50610b8261270d565b6040518080602001828103825283818151815260200191508051906020019060200280838360005b83811015610bc5578082015181840152602081019050610baa565b505050509050019250505060405180910390f35b348015610be557600080fd5b50610bee612791565b604051808273ffffffffffffffffffffffffffffffffffffffff16815260200191505060405180910390f35b348015610c2657600080fd5b50610c5d60048036036040811015610c3d57600080fd5b8101908080359060200190929190803590602001909291905050506127b7565b604051808273ffffffffffffffffffffffffffffffffffffffff16815260200191505060405180910390f35b348015610c9557600080fd5b50610cd860048036036020811015610cac57600080fd5b81019080803573ffffffffffffffffffffffffffffffffffffffff1690602001909291905050506127e9565b005b348015610ce657600080fd5b50610d3360048036036040811015610cfd57600080fd5b8101908080359060200190929190803573ffffffffffffffffffffffffffffffffffffffff1690602001909291905050506128b3565b60405180821515815260200191505060405180910390f35b348015610d5757600080fd5b50610d606128e5565b6040518082815260200191505060405180910390f35b348015610d8257600080fd5b50610daf60048036036020811015610d9957600080fd5b81019080803590602001909291905050506128ec565b604051808263ffffffff16815260200191505060405180910390f35b348015610dd757600080fd5b50610e1a60048036036040811015610dee57600080fd5b81019080803563ffffffff169060200190929190803563ffffffff169060200190929190505050612923565b005b348015610e2857600080fd5b50610e5560048036036020811015610e3f57600080fd5b8101908080359060200190929190505050612a93565b6040518082815260200191505060405180910390f35b348015610e7757600080fd5b50610ec460048036036040811015610e8e57600080fd5b81019080803573ffffffffffffffffffffffffffffffffffffffff16906020019092919080359060200190929190505050612aba565b005b348015610ed257600080fd5b50610edb613191565b604051808273ffffffffffffffffffffffffffffffffffffffff16815260200191505060405180910390f35b348015610f1357600080fd5b50610f5360048036036040811015610f2a57600080fd5b81019080803563ffffffff169060200190929190803560ff1690602001909291905050506131b7565b604051808763ffffffff1681526020018663ffffffff1681526020018563ffffffff1681526020018463ffffffff1681526020018363ffffffff1681526020018263ffffffff168152602001965050505050505060405180910390f35b348015610fbc57600080fd5b5061100960048036036040811015610fd357600080fd5b8101908080359060200190929190803573ffffffffffffffffffffffffffffffffffffffff169060200190929190505050613392565b005b34801561101757600080fd5b5061104e6004803603604081101561102e57600080fd5b81019080803590602001909291908035906020019092919050505061341c565b604051808760ff1681526020018660ff1681526020018560ff1681526020018460ff1681526020018360ff1681526020018260ff168152602001965050505050505060405180910390f35b61113b600480360360808110156110af57600080fd5b81019080803573ffffffffffffffffffffffffffffffffffffffff169060200190929190803573ffffffffffffffffffffffffffffffffffffffff169060200190929190803573ffffffffffffffffffffffffffffffffffffffff169060200190929190803573ffffffffffffffffffffffffffffffffffffffff1690602001909291905050506134b3565b005b60036020528060005260406000206000915090508060000160009054906101000a900463ffffffff16908060000160049054906101000a900463ffffffff16905082565b600080600080600b60008760ff16815260200190815260200160002060008660ff16815260200190815260200160002060000160009054906101000a900460ff169350600b60008760ff16815260200190815260200160002060008660ff16815260200190815260200160002060000160019054906101000a900460ff169250600b60008760ff16815260200190815260200160002060008660ff16815260200190815260200160002060000160029054906101000a900460ff169150600b60008760ff16815260200190815260200160002060008660ff16815260200190815260200160002060000160039054906101000a900460ff16905092959194509250565b6112986000801b6112936136a8565b6128b3565b61130a576040517f08c379a00000000000000000000000000000000000000000000000000000000081526004018080602001828103825260168152602001807f41646d696e20726f6c652069732072657175697265640000000000000000000081525060200191505060405180910390fd5b80600560006101000a81548173ffffffffffffffffffffffffffffffffffffffff021916908373ffffffffffffffffffffffffffffffffffffffff16021790555050565b600063150b7a0260e01b9050949350505050565b600260009054906101000a900463ffffffff1681565b6004602052816000526040600020602052806000526040600020600091509150508060000160009054906101000a900463ffffffff16908060000160049054906101000a900463ffffffff16908060000160089054906101000a900463ffffffff169080600001600c9054906101000a900463ffffffff16908060000160109054906101000a900463ffffffff16908060000160149054906101000a900463ffffffff16905086565b6114356000801b6114306136a8565b6128b3565b6114a7576040517f08c379a00000000000000000000000000000000000000000000000000000000081526004018080602001828103825260168152602001807f41646d696e20726f6c652069732072657175697265640000000000000000000081525060200191505060405180910390fd5b60048860ff161015611521576040517f08c379a000000000000000000000000000000000000000000000000000000000815260040180806020018281038252601a8152602001807f526172697479206d7573742067726561746572207468616e203300000000000081525060200191505060405180910390fd5b85600b60008a60ff16815260200190815260200160002060008960ff16815260200190815260200160002060000160006101000a81548160ff021916908360ff16021790555084600b60008a60ff16815260200190815260200160002060008960ff16815260200190815260200160002060000160016101000a81548160ff021916908360ff16021790555083600b60008a60ff16815260200190815260200160002060008960ff16815260200190815260200160002060000160026101000a81548160ff021916908360ff16021790555082600b60008a60ff16815260200190815260200160002060008960ff16815260200190815260200160002060000160036101000a81548160ff021916908360ff16021790555081600b60008a60ff16815260200190815260200160002060008960ff16815260200190815260200160002060000160046101000a81548160ff021916908360ff16021790555080600b60008a60ff16815260200190815260200160002060008960ff16815260200190815260200160002060000160056101000a81548160ff021916908360ff1602179055505050505050505050565b600060016000838152602001908152602001600020600201549050919050565b600660009054906101000a900473ffffffffffffffffffffffffffffffffffffffff1681565b6117296000801b6117246136a8565b6128b3565b61179b576040517f08c379a00000000000000000000000000000000000000000000000000000000081526004018080602001828103825260168152602001807f41646d696e20726f6c652069732072657175697265640000000000000000000081525060200191505060405180910390fd5b85600460008a63ffffffff1663ffffffff16815260200190815260200160002060008960ff1660ff16815260200190815260200160002060000160006101000a81548163ffffffff021916908363ffffffff16021790555084600460008a63ffffffff1663ffffffff16815260200190815260200160002060008960ff1660ff16815260200190815260200160002060000160046101000a81548163ffffffff021916908363ffffffff16021790555083600460008a63ffffffff1663ffffffff16815260200190815260200160002060008960ff1660ff16815260200190815260200160002060000160086101000a81548163ffffffff021916908363ffffffff16021790555082600460008a63ffffffff1663ffffffff16815260200190815260200160002060008960ff1660ff168152602001908152602001600020600001600c6101000a81548163ffffffff021916908363ffffffff16021790555081600460008a63ffffffff1663ffffffff16815260200190815260200160002060008960ff1660ff16815260200190815260200160002060000160106101000a81548163ffffffff021916908363ffffffff16021790555080600460008a63ffffffff1663ffffffff16815260200190815260200160002060008960ff1660ff16815260200190815260200160002060000160146101000a81548163ffffffff021916908363ffffffff1602179055505050505050505050565b6119c96000801b6119c46136a8565b6128b3565b611a3b576040517f08c379a00000000000000000000000000000000000000000000000000000000081526004018080602001828103825260168152602001807f41646d696e20726f6c652069732072657175697265640000000000000000000081525060200191505060405180910390fd5b80600760006101000a81548173ffffffffffffffffffffffffffffffffffffffff021916908373ffffffffffffffffffffffffffffffffffffffff16021790555050565b611aa66001600084815260200190815260200160002060020154611aa16136a8565b6128b3565b611afb576040517f08c379a000000000000000000000000000000000000000000000000000000000815260040180806020018281038252602f8152602001806155b8602f913960400191505060405180910390fd5b611b0582826136b0565b5050565b611b116136a8565b73ffffffffffffffffffffffffffffffffffffffff168173ffffffffffffffffffffffffffffffffffffffff1614611b94576040517f08c379a000000000000000000000000000000000000000000000000000000000815260040180806020018281038252602f81526020018061577e602f913960400191505060405180910390fd5b611b9e8282613744565b5050565b60606009805480602002602001604051908101604052809291908181526020018280548015611c1c57602002820191906000526020600020906000905b82829054906101000a900463ffffffff1663ffffffff1681526020019060040190602082600301049283019260010382029150808411611bdf5790505b5050505050905090565b611c3a6000801b611c356136a8565b6128b3565b611cac576040517f08c379a00000000000000000000000000000000000000000000000000000000081526004018080602001828103825260168152602001807f41646d696e20726f6c652069732072657175697265640000000000000000000081525060200191505060405180910390fd5b81600360008563ffffffff1663ffffffff16815260200190815260200160002060000160006101000a81548163ffffffff021916908363ffffffff16021790555080600360008563ffffffff1663ffffffff16815260200190815260200160002060000160046101000a81548163ffffffff021916908363ffffffff160217905550505050565b60098181548110611d4057fe5b9060005260206000209060089182820401919006600402915054906101000a900463ffffffff1681565b600080600360008463ffffffff1663ffffffff16815260200190815260200160002060000160009054906101000a900463ffffffff169150600360008463ffffffff1663ffffffff16815260200190815260200160002060000160049054906101000a900463ffffffff169050915091565b611df06000801b611deb6136a8565b6128b3565b611e62576040517f08c379a00000000000000000000000000000000000000000000000000000000081526004018080602001828103825260168152602001807f41646d696e20726f6c652069732072657175697265640000000000000000000081525060200191505060405180910390fd5b818160089190611e7392919061540c565b505050565b3273ffffffffffffffffffffffffffffffffffffffff16611e976136a8565b73ffffffffffffffffffffffffffffffffffffffff1614611f03576040517f08c379a000000000000000000000000000000000000000000000000000000000815260040180806020018281038252602c81526020018061572a602c913960400191505060405180910390fd5b60008363ffffffff161415611f63576040517f08c379a00000000000000000000000000000000000000000000000000000000081526004018080602001828103825260228152602001806156e76022913960400191505060405180910390fd5b611f6b6136a8565b73ffffffffffffffffffffffffffffffffffffffff16600560009054906101000a900473ffffffffffffffffffffffffffffffffffffffff1673ffffffffffffffffffffffffffffffffffffffff16636352211e856040518263ffffffff1660e01b8152600401808263ffffffff16815260200191505060206040518083038186803b158015611ffa57600080fd5b505afa15801561200e573d6000803e3d6000fd5b505050506040513d602081101561202457600080fd5b810190808051906020019092919050505073ffffffffffffffffffffffffffffffffffffffff16146120a1576040517f08c379a00000000000000000000000000000000000000000000000000000000081526004018080602001828103825260288152602001806156406028913960400191505060405180910390fd5b6120a96154c2565b6120b2846137d8565b905060016120c6826020015160ff16613964565b14612139576040517f08c379a00000000000000000000000000000000000000000000000000000000081526004018080602001828103825260138152602001807f4e46542063616e206e6f7420757067726164650000000000000000000000000081525060200191505060405180910390fd5b600080600061218984878780806020026020016040519081016040528093929190818152602001838360200280828437600081840152601f19601f82011690508083019250505050505050613978565b92509250925060005b8686905081101561225557600560009054906101000a900473ffffffffffffffffffffffffffffffffffffffff1673ffffffffffffffffffffffffffffffffffffffff16637a5984c48888848181106121e757fe5b9050602002013563ffffffff166040518263ffffffff1660e01b8152600401808263ffffffff168152602001915050600060405180830381600087803b15801561223057600080fd5b505af1158015612244573d6000803e3d6000fd5b505050508080600101915050612192565b506000600b6000866020015160ff1681526020019081526020016000206000866000015160ff16815260200190815260200160002060000160049054906101000a900460ff1690506000600b6000876020015160ff1681526020019081526020016000206000876000015160ff16815260200190815260200160002060000160049054906101000a900460ff1690506123a7612331600a60009054906101000a900463ffffffff1661231d8460ff168a6080015163ffffffff1661418690919063ffffffff16565b63ffffffff1661422a90919063ffffffff16565b61239361237a600a60009054906101000a900463ffffffff166123668760ff168b63ffffffff1661418690919063ffffffff16565b63ffffffff1661422a90919063ffffffff16565b8960e0015163ffffffff166142cb90919063ffffffff16565b63ffffffff166142cb90919063ffffffff16565b8660e0019063ffffffff16908163ffffffff168152505061248261240b600a60009054906101000a900463ffffffff166123f78460ff168a60a0015163ffffffff1661418690919063ffffffff16565b63ffffffff1661422a90919063ffffffff16565b61246e612454600a60009054906101000a900463ffffffff166124408760ff168a63ffffffff1661418690919063ffffffff16565b63ffffffff1661422a90919063ffffffff16565b89610100015163ffffffff166142cb90919063ffffffff16565b63ffffffff166142cb90919063ffffffff16565b86610100019063ffffffff16908163ffffffff168152505061255e6124e7600a60009054906101000a900463ffffffff166124d38460ff168a60c0015163ffffffff1661418690919063ffffffff16565b63ffffffff1661422a90919063ffffffff16565b61254a612530600a60009054906101000a900463ffffffff1661251c8760ff168963ffffffff1661418690919063ffffffff16565b63ffffffff1661422a90919063ffffffff16565b89610120015163ffffffff166142cb90919063ffffffff16565b63ffffffff166142cb90919063ffffffff16565b86610120019063ffffffff16908163ffffffff1681525050600560009054906101000a900473ffffffffffffffffffffffffffffffffffffffff1673ffffffffffffffffffffffffffffffffffffffff166379cd6f638a6125d060018a6000015160ff1661435f90919063ffffffff16565b8960e001518a61010001518b61012001516040518663ffffffff1660e01b8152600401808663ffffffff1681526020018560ff1681526020018463ffffffff1681526020018363ffffffff1681526020018263ffffffff16815260200195505050505050600060405180830381600087803b15801561264e57600080fd5b505af1158015612662573d6000803e3d6000fd5b50505050505050505050505050565b6126856000801b6126806136a8565b6128b3565b6126f7576040517f08c379a00000000000000000000000000000000000000000000000000000000081526004018080602001828103825260168152602001807f41646d696e20726f6c652069732072657175697265640000000000000000000081525060200191505060405180910390fd5b81816009919061270892919061540c565b505050565b6060600880548060200260200160405190810160405280929190818152602001828054801561278757602002820191906000526020600020906000905b82829054906101000a900463ffffffff1663ffffffff168152602001906004019060208260030104928301926001038202915080841161274a5790505b5050505050905090565b600560009054906101000a900473ffffffffffffffffffffffffffffffffffffffff1681565b60006127e182600160008681526020019081526020016000206000016143ed90919063ffffffff16565b905092915050565b6127fd6000801b6127f86136a8565b6128b3565b61286f576040517f08c379a00000000000000000000000000000000000000000000000000000000081526004018080602001828103825260168152602001807f41646d696e20726f6c652069732072657175697265640000000000000000000081525060200191505060405180910390fd5b80600660006101000a81548173ffffffffffffffffffffffffffffffffffffffff021916908373ffffffffffffffffffffffffffffffffffffffff16021790555050565b60006128dd826001600086815260200190815260200160002060000161440790919063ffffffff16565b905092915050565b6000801b81565b600881815481106128f957fe5b9060005260206000209060089182820401919006600402915054906101000a900463ffffffff1681565b6129376000801b6129326136a8565b6128b3565b6129a9576040517f08c379a00000000000000000000000000000000000000000000000000000000081526004018080602001828103825260168152602001807f41646d696e20726f6c652069732072657175697265640000000000000000000081525060200191505060405180910390fd5b6000600260009054906101000a900463ffffffff16905082600360008363ffffffff1663ffffffff16815260200190815260200160002060000160006101000a81548163ffffffff021916908363ffffffff16021790555081600360008363ffffffff1663ffffffff16815260200190815260200160002060000160046101000a81548163ffffffff021916908363ffffffff160217905550612a6e6001600260009054906101000a900463ffffffff1663ffffffff166142cb90919063ffffffff16565b600260006101000a81548163ffffffff021916908363ffffffff160217905550505050565b6000612ab360016000848152602001908152602001600020600001614437565b9050919050565b3273ffffffffffffffffffffffffffffffffffffffff16612ad96136a8565b73ffffffffffffffffffffffffffffffffffffffff1614612b62576040517f08c379a000000000000000000000000000000000000000000000000000000000815260040180806020018281038252601a8152602001807f63616e206e6f742063616c6c2066726f6d20636f6e747261637400000000000081525060200191505060405180910390fd5b600081118015612b725750600b81105b612bc7576040517f08c379a00000000000000000000000000000000000000000000000000000000081526004018080602001828103825260368152602001806155e76036913960400191505060405180910390fd5b600660009054906101000a900473ffffffffffffffffffffffffffffffffffffffff1673ffffffffffffffffffffffffffffffffffffffff166323b872dd612c0d6136a8565b30612c29670de0b6b3a76400008661444c90919063ffffffff16565b6040518463ffffffff1660e01b8152600401808473ffffffffffffffffffffffffffffffffffffffff1681526020018373ffffffffffffffffffffffffffffffffffffffff1681526020018281526020019350505050602060405180830381600087803b158015612c9957600080fd5b505af1158015612cad573d6000803e3d6000fd5b505050506040513d6020811015612cc357600080fd5b810190808051906020019092919050505050600660009054906101000a900473ffffffffffffffffffffffffffffffffffffffff1673ffffffffffffffffffffffffffffffffffffffff16639dc29fac30612d2f670de0b6b3a76400008561444c90919063ffffffff16565b6040518363ffffffff1660e01b8152600401808373ffffffffffffffffffffffffffffffffffffffff16815260200182815260200192505050600060405180830381600087803b158015612d8257600080fd5b505af1158015612d96573d6000803e3d6000fd5b5050505060608167ffffffffffffffff81118015612db357600080fd5b50604051908082528060200260200182016040528015612ded57816020015b612dda615548565b815260200190600190039081612dd25790505b50905060005b828110156130b5576000600760009054906101000a900473ffffffffffffffffffffffffffffffffffffffff1673ffffffffffffffffffffffffffffffffffffffff166339e7357c6040518163ffffffff1660e01b8152600401602060405180830381600087803b158015612e6757600080fd5b505af1158015612e7b573d6000803e3d6000fd5b505050506040513d6020811015612e9157600080fd5b81019080805190602001909291905050509050612eac6154c2565b612eb686836144d2565b9050600560009054906101000a900473ffffffffffffffffffffffffffffffffffffffff1673ffffffffffffffffffffffffffffffffffffffff16631dea667c878484600001518560200151866040015187606001518860e001518961010001518a61012001516040518a63ffffffff1660e01b8152600401808a73ffffffffffffffffffffffffffffffffffffffff1681526020018963ffffffff1681526020018860ff1681526020018760ff1681526020018660ff1681526020018563ffffffff1681526020018463ffffffff1681526020018363ffffffff1681526020018263ffffffff1681526020019950505050505050505050600060405180830381600087803b158015612fc857600080fd5b505af1158015612fdc573d6000803e3d6000fd5b505050508163ffffffff16848481518110612ff357fe5b602002602001015160006004811061300757fe5b602002018181525050806020015160ff1684848151811061302457fe5b602002602001015160016004811061303857fe5b602002018181525050806040015160ff1684848151811061305557fe5b602002602001015160026004811061306957fe5b602002018181525050806060015163ffffffff1684848151811061308957fe5b602002602001015160036004811061309d57fe5b60200201818152505050508080600101915050612df3565b508273ffffffffffffffffffffffffffffffffffffffff166130d56136a8565b73ffffffffffffffffffffffffffffffffffffffff167f2520f28f6570e1738d318e1de9087d63b309b58f3f4043700b08cb9f99e33446838560405180806020018381526020018281038252848181518152602001915080516000925b8184101561317b5782846020026020010151600460200280838360005b8381101561316a57808201518184015260208101905061314f565b505050509050019260010192613132565b92505050935050505060405180910390a3505050565b600760009054906101000a900473ffffffffffffffffffffffffffffffffffffffff1681565b600080600080600080600460008963ffffffff1663ffffffff16815260200190815260200160002060008860ff1660ff16815260200190815260200160002060000160009054906101000a900463ffffffff169550600460008963ffffffff1663ffffffff16815260200190815260200160002060008860ff1660ff16815260200190815260200160002060000160049054906101000a900463ffffffff169450600460008963ffffffff1663ffffffff16815260200190815260200160002060008860ff1660ff16815260200190815260200160002060000160089054906101000a900463ffffffff169350600460008963ffffffff1663ffffffff16815260200190815260200160002060008860ff1660ff168152602001908152602001600020600001600c9054906101000a900463ffffffff169250600460008963ffffffff1663ffffffff16815260200190815260200160002060008860ff1660ff16815260200190815260200160002060000160109054906101000a900463ffffffff169150600460008963ffffffff1663ffffffff16815260200190815260200160002060008860ff1660ff16815260200190815260200160002060000160149054906101000a900463ffffffff1690509295509295509295565b6133b960016000848152602001908152602001600020600201546133b46136a8565b6128b3565b61340e576040517f08c379a00000000000000000000000000000000000000000000000000000000081526004018080602001828103825260308152602001806156896030913960400191505060405180910390fd5b6134188282613744565b5050565b600b602052816000526040600020602052806000526040600020600091509150508060000160009054906101000a900460ff16908060000160019054906101000a900460ff16908060000160029054906101000a900460ff16908060000160039054906101000a900460ff16908060000160049054906101000a900460ff16908060000160059054906101000a900460ff16905086565b600060019054906101000a900460ff16806134d257506134d1614c93565b5b806134e8575060008054906101000a900460ff16155b61353d576040517f08c379a000000000000000000000000000000000000000000000000000000000815260040180806020018281038252602e8152602001806156b9602e913960400191505060405180910390fd5b60008060019054906101000a900460ff16159050801561358d576001600060016101000a81548160ff02191690831515021790555060016000806101000a81548160ff0219169083151502179055505b61359a6000801b86614ca4565b83600560006101000a81548173ffffffffffffffffffffffffffffffffffffffff021916908373ffffffffffffffffffffffffffffffffffffffff16021790555082600760006101000a81548173ffffffffffffffffffffffffffffffffffffffff021916908373ffffffffffffffffffffffffffffffffffffffff16021790555081600660006101000a81548173ffffffffffffffffffffffffffffffffffffffff021916908373ffffffffffffffffffffffffffffffffffffffff1602179055506103e8600a60006101000a81548163ffffffff021916908363ffffffff16021790555080156136a15760008060016101000a81548160ff0219169083151502179055505b5050505050565b600033905090565b6136d88160016000858152602001908152602001600020600001614cb290919063ffffffff16565b15613740576136e56136a8565b73ffffffffffffffffffffffffffffffffffffffff168173ffffffffffffffffffffffffffffffffffffffff16837f2f8788117e7eff1d82e926ec794901d17c78024a50270940304540a733656f0d60405160405180910390a45b5050565b61376c8160016000858152602001908152602001600020600001614ce290919063ffffffff16565b156137d4576137796136a8565b73ffffffffffffffffffffffffffffffffffffffff168173ffffffffffffffffffffffffffffffffffffffff16837ff6391f5c32d9c69d2a47ea670b442974b53935d1edc7fd64eb21e047a839171b60405160405180910390a45b5050565b6137e06154c2565b600560009054906101000a900473ffffffffffffffffffffffffffffffffffffffff1673ffffffffffffffffffffffffffffffffffffffff16637d37048c836040518263ffffffff1660e01b8152600401808263ffffffff16815260200191505060e06040518083038186803b15801561385957600080fd5b505afa15801561386d573d6000803e3d6000fd5b505050506040513d60e081101561388357600080fd5b81019080805190602001909291908051906020019092919080519060200190929190805190602001909291908051906020019092919080519060200190929190805190602001909291905050508760000188602001896040018a6060018b60e0018c610100018d610120018763ffffffff1663ffffffff168152508763ffffffff1663ffffffff168152508763ffffffff1663ffffffff168152508763ffffffff1663ffffffff168152508760ff1660ff168152508760ff1660ff168152508760ff1660ff168152505050505050505061395d8282614d12565b9050919050565b60006004821061397357600190505b919050565b600080600080600080600080600090505b8851811015613e865760008982815181106139a057fe5b602002602001015163ffffffff161415613a22576040517f08c379a00000000000000000000000000000000000000000000000000000000081526004018080602001828103825260128152602001807f6275726e6564204e46544964206572726f72000000000000000000000000000081525060200191505060405180910390fd5b613a2a6136a8565b73ffffffffffffffffffffffffffffffffffffffff16600560009054906101000a900473ffffffffffffffffffffffffffffffffffffffff1673ffffffffffffffffffffffffffffffffffffffff16636352211e8b8481518110613a8a57fe5b60200260200101516040518263ffffffff1660e01b8152600401808263ffffffff16815260200191505060206040518083038186803b158015613acc57600080fd5b505afa158015613ae0573d6000803e3d6000fd5b505050506040513d6020811015613af657600080fd5b810190808051906020019092919050505073ffffffffffffffffffffffffffffffffffffffff1614613b73576040517f08c379a00000000000000000000000000000000000000000000000000000000081526004018080602001828103825260288152602001806156406028913960400191505060405180910390fd5b613b7b6154c2565b613b978a8381518110613b8a57fe5b60200260200101516137d8565b9050806060015163ffffffff168b6060015163ffffffff1614613c22576040517f08c379a00000000000000000000000000000000000000000000000000000000081526004018080602001828103825260208152602001807f4275726e6564204e46542073686f756c6420686176652073616d65207465616d81525060200191505060405180910390fd5b806040015160ff168b6040015160ff1614613c88576040517f08c379a000000000000000000000000000000000000000000000000000000000815260040180806020018281038252602381526020018061561d6023913960400191505060405180910390fd5b613ca58160e001518a63ffffffff166142cb90919063ffffffff16565b9850613cc58161010001518963ffffffff166142cb90919063ffffffff16565b9750613ce58161012001518863ffffffff166142cb90919063ffffffff16565b96506001816020015160ff161415613d1157613d0e60018760ff1661435f90919063ffffffff16565b95505b6002816020015160ff161415613d3b57613d3860018660ff1661435f90919063ffffffff16565b94505b6003816020015160ff161415613d6557613d6260018560ff1661435f90919063ffffffff16565b93505b8a6020015160ff16816020015160ff161415613e7857613d9260018460ff1661435f90919063ffffffff16565b9250601e8b6000015160ff161015613e1057806000015160ff168b6000015160ff161015613e0b576040517f08c379a00000000000000000000000000000000000000000000000000000000081526004018080602001828103825260288152602001806157566028913960400191505060405180910390fd5b613e77565b806000015160ff168b6000015160ff1614613e76576040517f08c379a00000000000000000000000000000000000000000000000000000000081526004018080602001828103825260218152602001806156686021913960400191505060405180910390fd5b5b5b508080600101915050613989565b508360ff16600b60008b6020015160ff16815260200190815260200160002060008b6000015160ff16815260200190815260200160002060000160009054906101000a900460ff1660ff1614613f44576040517f08c379a000000000000000000000000000000000000000000000000000000000815260040180806020018281038252601b8152602001807f616d6f756e74206f66206a756e6b20697320696e636f7272656374000000000081525060200191505060405180910390fd5b8260ff16600b60008b6020015160ff16815260200190815260200160002060008b6000015160ff16815260200190815260200160002060000160019054906101000a900460ff1660ff1614614001576040517f08c379a000000000000000000000000000000000000000000000000000000000815260040180806020018281038252601d8152602001807f616d6f756e74206f66206e6f726d616c20697320696e636f727265637400000081525060200191505060405180910390fd5b8160ff16600b60008b6020015160ff16815260200190815260200160002060008b6000015160ff16815260200190815260200160002060000160029054906101000a900460ff1660ff16146140be576040517f08c379a000000000000000000000000000000000000000000000000000000000815260040180806020018281038252601b8152602001807f616d6f756e74206f66207261726520697320696e636f7272656374000000000081525060200191505060405180910390fd5b8060ff16600b60008b6020015160ff16815260200190815260200160002060008b6000015160ff16815260200190815260200160002060000160039054906101000a900460ff1660ff161461417b576040517f08c379a000000000000000000000000000000000000000000000000000000000815260040180806020018281038252601b8152602001807f616d6f756e74206f66206261736520697320696e636f7272656374000000000081525060200191505060405180910390fd5b505050509250925092565b6000808363ffffffff16141561419f5760009050614224565b600082840290508263ffffffff168463ffffffff168263ffffffff16816141c257fe5b0463ffffffff161461421f576040517f08c379a00000000000000000000000000000000000000000000000000000000081526004018080602001828103825260218152602001806157096021913960400191505060405180910390fd5b809150505b92915050565b6000808263ffffffff16116142a7576040517f08c379a000000000000000000000000000000000000000000000000000000000815260040180806020018281038252601a8152602001807f536166654d6174683a206469766973696f6e206279207a65726f00000000000081525060200191505060405180910390fd5b60008263ffffffff168463ffffffff16816142be57fe5b0490508091505092915050565b60008082840190508363ffffffff168163ffffffff161015614355576040517f08c379a000000000000000000000000000000000000000000000000000000000815260040180806020018281038252601b8152602001807f536166654d6174683a206164646974696f6e206f766572666c6f77000000000081525060200191505060405180910390fd5b8091505092915050565b60008082840190508360ff168160ff1610156143e3576040517f08c379a000000000000000000000000000000000000000000000000000000000815260040180806020018281038252601b8152602001807f536166654d6174683a206164646974696f6e206f766572666c6f77000000000081525060200191505060405180910390fd5b8091505092915050565b60006143fc8360000183614e2a565b60001c905092915050565b600061442f836000018373ffffffffffffffffffffffffffffffffffffffff1660001b614ead565b905092915050565b600061444582600001614ed0565b9050919050565b60008083141561445f57600090506144cc565b600082840290508284828161447057fe5b04146144c7576040517f08c379a00000000000000000000000000000000000000000000000000000000081526004018080602001828103825260218152602001806157096021913960400191505060405180910390fd5b809150505b92915050565b6144da6154c2565b60006144f0600143614ee190919063ffffffff16565b408385604051602001808481526020018381526020018273ffffffffffffffffffffffffffffffffffffffff16815260200193505050506040516020818303038152906040528051906020012060001c9050600081604051602001808281526020019150506040516020818303038152906040528051906020012060001c9050600081604051602001808281526020019150506040516020818303038152906040528051906020012060001c9050600081604051602001808281526020019150506040516020818303038152906040528051906020012060001c9050600081604051602001808281526020019150506040516020818303038152906040528051906020012060001c9050600081604051602001808281526020019150506040516020818303038152906040528051906020012060001c90506001876000019060ff16908160ff16815250506146e860016146da6146586103e885614f6490919063ffffffff16565b60088054806020026020016040519081016040528092919081815260200182805480156146d057602002820191906000526020600020906000905b82829054906101000a900463ffffffff1663ffffffff16815260200190600401906020826003010492830192600103820291508084116146935790505b5050505050614fed565b61503d90919063ffffffff16565b876020019060ff16908160ff16815250506147a660016147986147166103e886614f6490919063ffffffff16565b600980548060200260200160405190810160405280929190818152602001828054801561478e57602002820191906000526020600020906000905b82829054906101000a900463ffffffff1663ffffffff16815260200190600401906020826003010492830192600103820291508084116147515790505b5050505050614fed565b61503d90919063ffffffff16565b876040019060ff16908160ff16815250506147d46147cf6103e885614f6490919063ffffffff16565b6150c5565b876060019063ffffffff16908163ffffffff16815250506004876020015160ff1610614acb576148d1600a60009054906101000a900463ffffffff166148bd86600460008c6060015163ffffffff1663ffffffff16815260200190815260200160002060008c6020015160ff1660ff16815260200190815260200160002060000160009054906101000a900463ffffffff16600460008d6060015163ffffffff1663ffffffff16815260200190815260200160002060008d6020015160ff1660ff16815260200190815260200160002060000160049054906101000a900463ffffffff166151a5565b63ffffffff1661418690919063ffffffff16565b8760e0019063ffffffff16908163ffffffff16815250506149bf600a60009054906101000a900463ffffffff166149ab87600460008c6060015163ffffffff1663ffffffff16815260200190815260200160002060008c6020015160ff1660ff16815260200190815260200160002060000160089054906101000a900463ffffffff16600460008d6060015163ffffffff1663ffffffff16815260200190815260200160002060008d6020015160ff1660ff168152602001908152602001600020600001600c9054906101000a900463ffffffff166151a5565b63ffffffff1661418690919063ffffffff16565b87610100019063ffffffff16908163ffffffff1681525050614aae600a60009054906101000a900463ffffffff16614a9a88600460008c6060015163ffffffff1663ffffffff16815260200190815260200160002060008c6020015160ff1660ff16815260200190815260200160002060000160109054906101000a900463ffffffff16600460008d6060015163ffffffff1663ffffffff16815260200190815260200160002060008d6020015160ff1660ff16815260200190815260200160002060000160149054906101000a900463ffffffff166151a5565b63ffffffff1661418690919063ffffffff16565b87610120019063ffffffff16908163ffffffff1681525050614c87565b614b47600a60009054906101000a900463ffffffff16600460008a6060015163ffffffff1663ffffffff16815260200190815260200160002060008a6020015160ff1660ff16815260200190815260200160002060000160049054906101000a900463ffffffff1663ffffffff1661418690919063ffffffff16565b8760e0019063ffffffff16908163ffffffff1681525050614bda600a60009054906101000a900463ffffffff16600460008a6060015163ffffffff1663ffffffff16815260200190815260200160002060008a6020015160ff1660ff168152602001908152602001600020600001600c9054906101000a900463ffffffff1663ffffffff1661418690919063ffffffff16565b87610100019063ffffffff16908163ffffffff1681525050614c6e600a60009054906101000a900463ffffffff16600460008a6060015163ffffffff1663ffffffff16815260200190815260200160002060008a6020015160ff1660ff16815260200190815260200160002060000160149054906101000a900463ffffffff1663ffffffff1661418690919063ffffffff16565b87610120019063ffffffff16908163ffffffff16815250505b50505050505092915050565b6000614c9e3061520c565b15905090565b614cae82826136b0565b5050565b6000614cda836000018373ffffffffffffffffffffffffffffffffffffffff1660001b61521f565b905092915050565b6000614d0a836000018373ffffffffffffffffffffffffffffffffffffffff1660001b61528f565b905092915050565b614d1a6154c2565b600560009054906101000a900473ffffffffffffffffffffffffffffffffffffffff1673ffffffffffffffffffffffffffffffffffffffff1663abafa8f1846040518263ffffffff1660e01b8152600401808263ffffffff16815260200191505060606040518083038186803b158015614d9357600080fd5b505afa158015614da7573d6000803e3d6000fd5b505050506040513d6060811015614dbd57600080fd5b81019080805190602001909291908051906020019092919080519060200190929190505050846080018560a0018660c0018363ffffffff1663ffffffff168152508363ffffffff1663ffffffff168152508363ffffffff1663ffffffff1681525050505081905092915050565b600081836000018054905011614e8b576040517f08c379a00000000000000000000000000000000000000000000000000000000081526004018080602001828103825260228152602001806155966022913960400191505060405180910390fd5b826000018281548110614e9a57fe5b9060005260206000200154905092915050565b600080836001016000848152602001908152602001600020541415905092915050565b600081600001805490509050919050565b600082821115614f59576040517f08c379a000000000000000000000000000000000000000000000000000000000815260040180806020018281038252601e8152602001807f536166654d6174683a207375627472616374696f6e206f766572666c6f77000081525060200191505060405180910390fd5b818303905092915050565b6000808211614fdb576040517f08c379a00000000000000000000000000000000000000000000000000000000081526004018080602001828103825260188152602001807f536166654d6174683a206d6f64756c6f206279207a65726f000000000000000081525060200191505060405180910390fd5b818381614fe457fe5b06905092915050565b600080600090505b82518110156150355782818151811061500a57fe5b602002602001015163ffffffff168410156150285780915050615037565b8080600101915050614ff5565b505b92915050565b6000808284019050838110156150bb576040517f08c379a000000000000000000000000000000000000000000000000000000000815260040180806020018281038252601b8152602001807f536166654d6174683a206164646974696f6e206f766572666c6f77000000000081525060200191505060405180910390fd5b8091505092915050565b6000806000905060005b600260009054906101000a900463ffffffff1663ffffffff168163ffffffff16101561519b578363ffffffff16600360008363ffffffff1663ffffffff16815260200190815260200160002060000160049054906101000a900463ffffffff1663ffffffff16111580156151815750600360008263ffffffff1663ffffffff16815260200190815260200160002060000160009054906101000a900463ffffffff1663ffffffff168463ffffffff1611155b1561518e5780915061519b565b80806001019150506150cf565b5080915050919050565b600061520360016151f58463ffffffff166151e76151d2878963ffffffff1661537790919063ffffffff16565b63ffffffff1689614f6490919063ffffffff16565b61503d90919063ffffffff16565b61503d90919063ffffffff16565b90509392505050565b600080823b905060008111915050919050565b600061522b8383614ead565b615284578260000182908060018154018082558091505060019003906000526020600020016000909190919091505582600001805490508360010160008481526020019081526020016000208190555060019050615289565b600090505b92915050565b6000808360010160008481526020019081526020016000205490506000811461536b57600060018203905060006001866000018054905003905060008660000182815481106152da57fe5b90600052602060002001549050808760000184815481106152f757fe5b906000526020600020018190555060018301876001016000838152602001908152602001600020819055508660000180548061532f57fe5b60019003818190600052602060002001600090559055866001016000878152602001908152602001600020600090556001945050505050615371565b60009150505b92915050565b60008263ffffffff168263ffffffff1611156153fb576040517f08c379a000000000000000000000000000000000000000000000000000000000815260040180806020018281038252601e8152602001807f536166654d6174683a207375627472616374696f6e206f766572666c6f77000081525060200191505060405180910390fd5b600082840390508091505092915050565b828054828255906000526020600020906007016008900481019282156154b15791602002820160005b8382111561547f57833563ffffffff1683826101000a81548163ffffffff021916908363ffffffff1602179055509260200192600401602081600301049283019260010302615435565b80156154af5782816101000a81549063ffffffff021916905560040160208160030104928301926001030261547f565b505b5090506154be919061556a565b5090565b604051806101400160405280600060ff168152602001600060ff168152602001600060ff168152602001600063ffffffff168152602001600063ffffffff168152602001600063ffffffff168152602001600063ffffffff168152602001600063ffffffff168152602001600063ffffffff168152602001600063ffffffff1681525090565b6040518060800160405280600490602082028036833780820191505090505090565b5b8082111561559157600081816101000a81549063ffffffff02191690555060010161556b565b509056fe456e756d657261626c655365743a20696e646578206f7574206f6620626f756e6473416363657373436f6e74726f6c3a2073656e646572206d75737420626520616e2061646d696e20746f206772616e744e756d626572206f662043686573742073686f756c642067726561746572207468616e203020616e64206c657373207468616e2031314275726e6564204e46542073686f756c6420686176652073616d6520656c656d656e74465761724368617244656c65676174653a20596f752068617665206e6f207065726d697373696f6e4275726e6564204e46542073686f756c6420686176652073616d65206c6576656c416363657373436f6e74726f6c3a2073656e646572206d75737420626520616e2061646d696e20746f207265766f6b65496e697469616c697a61626c653a20636f6e747261637420697320616c726561647920696e697469616c697a6564465761724368617244656c65676174653a206d61696e204e46544964206572726f72536166654d6174683a206d756c7469706c69636174696f6e206f766572666c6f77465761724368617244656c65676174653a2043616e206e6f742063616c6c2066726f6d20636f6e74726163744275726e6564204e46542073686f756c642068617665206c6576656c203c3d206d61696e204e4654416363657373436f6e74726f6c3a2063616e206f6e6c792072656e6f756e636520726f6c657320666f722073656c66a2646970667358221220dec1c15666bc16f688bbb0fd0350ab21ac76697a1cbe38ee4ef31ee0c555639864736f6c634300060c0033",
  "immutableReferences": {},
  "source": "// SPDX-License-Identifier: MIT\npragma solidity 0.6.12;\n// pragma experimental ABIEncoderV2;\n\nimport \"@openzeppelin/contracts/token/ERC721/ERC721.sol\";\nimport \"@openzeppelin/contracts/token/ERC20/IERC20.sol\";\nimport \"@openzeppelin/contracts/token/ERC20/SafeERC20.sol\";\nimport \"@openzeppelin/contracts/access/AccessControl.sol\";\nimport \"@openzeppelin/contracts/proxy/Initializable.sol\";\nimport \"@openzeppelin/contracts/token/ERC721/ERC721Holder.sol\";\n\nimport \"./FwarCharStorage.sol\";\n\ninterface IFwarChar {\n    function mint(address _user, uint32 tokenId, uint8 _level, uint8 _rarity, uint8 _elementType, uint32 _teamId, \n        uint32 _attack, uint32 _defense, uint32 _health ) external;\n    function upgrade(uint32 _tokenId, uint8 _level, uint32 _attack, uint32 _defense, uint32 _health) external;\n    function totalSupply() external view returns (uint);\n    function getCharInfo(uint32 _id) external view returns (uint8 level, uint8 rarity, uint8 elementType, \n        uint32 teamId, uint32 attack, uint32 defense, uint32 health) ;\n    function getCharBaseInfo(uint32 _id) external view returns (uint32 baseAttack, uint32 baseDefense, uint32 baseHealth);\n    function burn(uint32 _tokenId) external;\n}\n\ninterface IFwarKey{\n    function burn(address _from, uint256 _amount) external;\n}\ninterface ISeed {\n    function getSeed() external returns(uint256);\n}\n\n\ncontract FwarCharDelegate is Initializable, AccessControl, ERC721Holder, FwarCharStorage {\n    using SafeERC20 for IERC20;\n\n\n    event OpenChest(address indexed _caller, address indexed _receiver, uint[4][] _openChestInfo, uint _number);\n\n    function initialize(address admin, address _fwarCharAddress,address _seedAddress, address _fwarKeyAddress) public payable initializer {\n        _setupRole(DEFAULT_ADMIN_ROLE, admin);\n\n        fwarCharAddress = _fwarCharAddress;\n        seedAddress = _seedAddress;\n        fwarKeyAddress = _fwarKeyAddress;\n\n        MULTIPLER = 1e3;\n    }\n\n    function setRarity(uint32[] calldata valuelist) external {\n        require(hasRole(DEFAULT_ADMIN_ROLE, _msgSender()), 'Admin role is required');\n        RARITY_MASK = valuelist;\n    }\n\n    function setElement(uint32[] calldata valuelist) external{\n        require(hasRole(DEFAULT_ADMIN_ROLE, _msgSender()), 'Admin role is required');\n        ELEMENT_MASK = valuelist;\n    }\n\n    function getRarity() external view returns (uint32[] memory ){\n        return RARITY_MASK;\n    }\n\n    function getElement() external view returns (uint32[] memory){\n        return ELEMENT_MASK;\n    }\n\n\n    function getTeamInfo(uint32 _teamId) public view returns (uint32 maxRandom, uint32 minRandom)\n    {\n        maxRandom = teamInfos[_teamId].maxRandom;\n        minRandom = teamInfos[_teamId].minRandom;\n        return (maxRandom, minRandom);\n    }\n\n\n    function addTeamInfo(uint32 _maxRandom, uint32 _minRandom) public \n    {\n        require(hasRole(DEFAULT_ADMIN_ROLE, _msgSender()), 'Admin role is required');\n        \n        uint32 teamId = TeamCount;\n        teamInfos[teamId].maxRandom   = _maxRandom;\n        teamInfos[teamId].minRandom   = _minRandom;\n\n        TeamCount = TeamCount.add(1);\n    }\n\n    function updateTeamInfo(uint32 _teamId, uint32 _maxRandom, uint32 _minRandom) public \n    {\n        require(hasRole(DEFAULT_ADMIN_ROLE, _msgSender()), 'Admin role is required');\n\n        teamInfos[_teamId].maxRandom   = _maxRandom;\n        teamInfos[_teamId].minRandom   = _minRandom;\n    }\n\n    function updateCharStat(uint32 _teamId, uint8 _rarity, uint32 _maxAttack,  uint32 _minAttack, \n        uint32 _maxDefense, uint32 _minDefense, uint32 _maxHealth, uint32 _minHealth) public \n    {\n        require(hasRole(DEFAULT_ADMIN_ROLE, _msgSender()), 'Admin role is required');\n\n        charStats[_teamId][_rarity].maxAttack = _maxAttack;\n        charStats[_teamId][_rarity].minAttack = _minAttack;\n        charStats[_teamId][_rarity].maxDefense = _maxDefense;\n        charStats[_teamId][_rarity].minDefense =_minDefense;\n        charStats[_teamId][_rarity].maxHealth = _maxHealth;\n        charStats[_teamId][_rarity].minHealth = _minHealth;\n\n    }\n\n    function getCharStat(uint32 _teamId, uint8 _rarity) public view returns \n        (uint32 maxAttack, uint32 minAttack, uint32 maxDefense, uint32 minDefense, uint32 maxHealth, uint32 minHealth)\n    {\n        maxAttack = charStats[_teamId][_rarity].maxAttack;\n        minAttack = charStats[_teamId][_rarity].minAttack;\n        maxDefense = charStats[_teamId][_rarity].maxDefense;\n        minDefense = charStats[_teamId][_rarity].minDefense;\n        maxHealth = charStats[_teamId][_rarity].maxHealth;\n        minHealth = charStats[_teamId][_rarity].minHealth;\n\n        return (maxAttack, minAttack, maxDefense, minDefense, maxHealth, minHealth);\n    }\n\n\n    function setSeedAddress(address _seedAddress) external {\n        require(hasRole(DEFAULT_ADMIN_ROLE, _msgSender()), 'Admin role is required');\n        seedAddress = _seedAddress;\n    }\n\n\n    function setFwarCharAddress(address _fwarCharAddress) external {\n        require(hasRole(DEFAULT_ADMIN_ROLE, _msgSender()), 'Admin role is required');\n        fwarCharAddress = _fwarCharAddress;\n    }\n\n    function setFwarKeyAddress(address _fwarKeyAddress) external {\n        require(hasRole(DEFAULT_ADMIN_ROLE, _msgSender()), 'Admin role is required');\n        fwarKeyAddress = _fwarKeyAddress;\n    }\n\n    function setBurnInfos(uint8 _ratity, uint8 _level, uint8 _junkAmount, uint8 _normalAmount,  uint8 _rareAmount, \n        uint8 _baseAmount, uint8 _percentConsume, uint8 _percentOnBase) external \n    {\n        require(hasRole(DEFAULT_ADMIN_ROLE, _msgSender()), 'Admin role is required');\n        require(_ratity >= 4, \"Rarity must greater than 3\");\n\n        burnInfos[_ratity][_level].junkAmount = _junkAmount;\n        burnInfos[_ratity][_level].normalAmount = _normalAmount;\n        burnInfos[_ratity][_level].rareAmount = _rareAmount;\n        burnInfos[_ratity][_level].baseAmount = _baseAmount;\n        burnInfos[_ratity][_level].percentConsume = _percentConsume;\n        burnInfos[_ratity][_level].percentOnBase = _percentOnBase;\n    }\n\n    function getBurnInfo(uint8 _ratity, uint8 _level) external view returns(uint8 junkAmount, uint8 normalAmount, uint8 rareAmount, uint8 baseAmount){\n        junkAmount = burnInfos[_ratity][_level].junkAmount;\n        normalAmount = burnInfos[_ratity][_level].normalAmount;\n        rareAmount = burnInfos[_ratity][_level].rareAmount;\n        baseAmount = burnInfos[_ratity][_level].baseAmount;\n\n        return (junkAmount , normalAmount, rareAmount, baseAmount);\n    }\n\n    function OpenItems(address user, uint number) external {\n        require(_msgSender() == tx.origin, \"can not call from contract\");\n        require(number > 0 && number < 11, \"Number of Chest should greater than 0 and less than 11\");\n        \n        //Burn Keys    \n        IERC20(fwarKeyAddress).transferFrom(_msgSender(), address(this), number.mul(1e18));\n        IFwarKey(fwarKeyAddress).burn(address(this),number.mul(1e18));\n\n        uint[4][] memory topenChestInfos = new uint[4][](number);\n        for(uint i = 0; i < number; i++)\n        {   \n            uint tokenId = ISeed(seedAddress).getSeed();\n            CharInfo memory charInfo = randomCharStats(user, tokenId);\n\n            IFwarChar(fwarCharAddress).mint(user, uint32(tokenId), charInfo.level, charInfo.rarity, charInfo.elementType,\n            charInfo.teamId, charInfo.attack, charInfo.defense, charInfo.health);\n\n            topenChestInfos[i][0] = uint32(tokenId);\n            topenChestInfos[i][1] = charInfo.rarity;\n            topenChestInfos[i][2] = charInfo.elementType;\n            topenChestInfos[i][3] = charInfo.teamId;\n        }\n\n        emit OpenChest(_msgSender(), user, topenChestInfos, number);\n    }\n\n    function randomCharStats(address _user, uint _seed) internal view returns (\n        CharInfo memory charInfo) \n    {\n        uint random1 = uint(keccak256(abi.encode(blockhash(block.number.sub(1)), _seed, _user)));\n        uint random2 = uint(keccak256(abi.encode(random1)));\n        uint random3 = uint(keccak256(abi.encode(random2)));\n        uint random4 = uint(keccak256(abi.encode(random3)));\n        uint random5 = uint(keccak256(abi.encode(random4)));\n        uint random6 = uint(keccak256(abi.encode(random5)));\n        \n        charInfo.level = 1;\n\n        charInfo.rarity = uint8(getMaskValue(random6.mod(1000), RARITY_MASK).add(1));\n        charInfo.elementType = uint8(getMaskValue(random5.mod(1000), ELEMENT_MASK).add(1));\n        charInfo.teamId = getTeamId(uint32(random4.mod(1000)));\n        if(charInfo.rarity >= 4){\n            charInfo.attack = randomStatistic(random3, charStats[charInfo.teamId][charInfo.rarity].maxAttack,charStats[charInfo.teamId][charInfo.rarity].minAttack).mul(MULTIPLER);\n            charInfo.defense = randomStatistic(random2, charStats[charInfo.teamId][charInfo.rarity].maxDefense,charStats[charInfo.teamId][charInfo.rarity].minDefense).mul(MULTIPLER);\n            charInfo.health = randomStatistic(random1, charStats[charInfo.teamId][charInfo.rarity].maxHealth,charStats[charInfo.teamId][charInfo.rarity].minHealth).mul(MULTIPLER);\n        }else{\n            charInfo.attack = charStats[charInfo.teamId][charInfo.rarity].minAttack.mul(MULTIPLER);\n            charInfo.defense = charStats[charInfo.teamId][charInfo.rarity].minDefense.mul(MULTIPLER);\n            charInfo.health = charStats[charInfo.teamId][charInfo.rarity].minHealth.mul(MULTIPLER);\n        }\n    }\n\n    function getTeamId (uint32 random) private view returns (uint32){\n        uint32 id = 0;\n\n        for(uint32 i=0; i< TeamCount; i++)\n        {\n            if(teamInfos[i].minRandom <= random && random <= teamInfos[i].maxRandom)\n            {\n                id = i;\n                break;\n            }\n        }\n        return id;\n    }\n\n    function getMaskValue(uint random, uint32[] memory mask) private pure returns (uint) {\n        for (uint i=0; i<mask.length; i++) {\n            if (random < mask[i]) {\n                return i;\n            }\n        }\n    }\n\n    function randomStatistic(uint random, uint32 max, uint32 min) private pure returns (uint32 value){\n        value = uint32(random.mod(max.sub(min)).add(min).add(1));\n        return value;\n    }\n\n    /// @dev upgrade is called by a user\n    /// @param _mainNFTId is the NFT Id of nft which want to upgrade\n    /// @param _burnedNfts is the array of nftId which use to burn for mainNFT\n\n    //Need check isSelling or Not\n    function upgrade(uint32 _mainNFTId, uint32[] calldata _burnedNfts) external\n    {\n        require(_msgSender() == tx.origin, \"FWarCharDelegate: Can not call from contract\");\n        require(_mainNFTId != 0, \"FWarCharDelegate: main NFTId error\");\n        require(IERC721(fwarCharAddress).ownerOf(_mainNFTId) == _msgSender(), \"FWarCharDelegate: You have no permission\");\n\n        CharInfo memory mainNFT = getCharInfo(_mainNFTId);\n\n        require(isUpgradable(mainNFT.rarity) == 1, 'NFT can not upgrade');\n\n        (uint32 totalAttack, uint32 totalDefense, uint32 totalHealth) = verifyBurnedNfts(mainNFT, _burnedNfts);\n\n        for (uint i = 0; i < _burnedNfts.length; i++) {\n            IFwarChar(fwarCharAddress).burn(_burnedNfts[i]);\n        }\n\n        uint8 percentConsume = burnInfos[mainNFT.rarity][mainNFT.level].percentConsume;\n        uint8 percentBase = burnInfos[mainNFT.rarity][mainNFT.level].percentConsume;\n\n        mainNFT.attack = mainNFT.attack.add(totalAttack.mul(percentConsume).div(MULTIPLER)).add(mainNFT.baseAttack.mul(percentBase).div(MULTIPLER));\n        mainNFT.defense = mainNFT.defense.add(totalDefense.mul(percentConsume).div(MULTIPLER)).add(mainNFT.baseDefense.mul(percentBase).div(MULTIPLER));\n        mainNFT.health = mainNFT.health.add(totalHealth.mul(percentConsume).div(MULTIPLER)).add(mainNFT.baseHealth.mul(percentBase).div(MULTIPLER));\n\n        IFwarChar(fwarCharAddress).upgrade(_mainNFTId, mainNFT.level.add(1), mainNFT.attack, mainNFT.defense, mainNFT.health);\n\n    }\n\n    /// @dev isUpgradable\n    /// @param _rarity is the rarity of NFT which want to check\n    function isUpgradable(uint _rarity) internal pure returns (uint returnVal){\n        if(_rarity >= 4) {\n            returnVal = 1;\n        }\n        return returnVal;\n    }\n\n    /// @dev getCharInfo\n    /// @param _nftId is the id of NFT\n    function getCharInfo(uint32 _nftId) internal view returns (CharInfo memory charInfo){\n        (charInfo.level, charInfo.rarity, charInfo.elementType, charInfo.teamId,\n            charInfo.attack, charInfo.defense, charInfo.health) = IFwarChar(fwarCharAddress).getCharInfo(_nftId);\n        charInfo = getCharBaseInfo(_nftId, charInfo);\n        return charInfo;\n    }\n\n    /// @dev getCharBaseInfo\n    /// @param _nftId is the id of NFT\n    /// @param _charInfo is the struct info will be fill\n    function getCharBaseInfo(uint32 _nftId, CharInfo memory _charInfo) internal view returns (CharInfo memory){\n        (_charInfo.baseAttack, _charInfo.baseDefense, _charInfo.baseHealth) = IFwarChar(fwarCharAddress).getCharBaseInfo(_nftId);\n        return _charInfo;\n    }\n\n    /// @dev verifyBurnedNfts\n    /// @param _burnedNfts is the id of NFT\n    function verifyBurnedNfts(CharInfo memory _mainNFT, uint32[] memory _burnedNfts) internal view\n        returns (uint32 totalAttack, uint32 totalDefense, uint32 totalHealth)\n    {\n        uint8 junkAmount;\n        uint8 normalAmount;\n        uint8 rareAmount;\n        uint8 baseAmount;\n\n        for (uint i = 0; i < _burnedNfts.length; i++) {\n            require(_burnedNfts[i] != 0, \"burned NFTId error\");\n            require(IERC721(fwarCharAddress).ownerOf(_burnedNfts[i]) == _msgSender(), \"FWarCharDelegate: You have no permission\");\n\n            CharInfo memory charInfo = getCharInfo(_burnedNfts[i]);\n\n            require(_mainNFT.teamId == charInfo.teamId, \"Burned NFT should have same team\");\n            require(_mainNFT.elementType == charInfo.elementType, \"Burned NFT should have same element\");         \n\n            totalAttack = totalAttack.add(charInfo.attack);\n            totalDefense = totalDefense.add(charInfo.defense);\n            totalHealth = totalHealth.add(charInfo.health);\n\n            if(charInfo.rarity == 1) {\n                junkAmount = junkAmount.add(1);\n            }\n            if(charInfo.rarity == 2) {\n                normalAmount = normalAmount.add(1);\n            }\n\n            if(charInfo.rarity == 3) {\n                rareAmount = rareAmount.add(1);\n            }\n\n            if(charInfo.rarity == _mainNFT.rarity) {\n                baseAmount = baseAmount.add(1);\n                if(_mainNFT.level<30){\n                    require(_mainNFT.level >= charInfo.level, 'Burned NFT should have level <= main NFT');\n                }else{\n                    require(_mainNFT.level == charInfo.level, 'Burned NFT should have same level');\n                }\n            }\n        }\n\n        require(burnInfos[_mainNFT.rarity][_mainNFT.level].junkAmount == junkAmount, \"amount of junk is incorrect\");\n        require(burnInfos[_mainNFT.rarity][_mainNFT.level].normalAmount == normalAmount, \"amount of normal is incorrect\");\n        require(burnInfos[_mainNFT.rarity][_mainNFT.level].rareAmount == rareAmount, \"amount of rare is incorrect\");\n        require(burnInfos[_mainNFT.rarity][_mainNFT.level].baseAmount == baseAmount, \"amount of base is incorrect\");\n    }\n}\n",
  "sourcePath": "/Users/badung1870/Working/Node/F-War-Project-Hungnd/SourceCode/SmartContracts/Fwar/FwarChar/contracts/FwarCharDelegate.sol",
  "compiler": {
    "name": "solc",
    "version": "0.6.12+commit.27d51765.Emscripten.clang"
  },
  "schemaVersion": "3.4.3",
  "updatedAt": "2021-09-30T18:56:10.251Z",
  "networkType": "ethereum",
  "devdoc": {
    "kind": "dev",
    "methods": {
      "getRoleAdmin(bytes32)": {
        "details": "Returns the admin role that controls `role`. See {grantRole} and {revokeRole}. To change a role's admin, use {_setRoleAdmin}."
      },
      "getRoleMember(bytes32,uint256)": {
        "details": "Returns one of the accounts that have `role`. `index` must be a value between 0 and {getRoleMemberCount}, non-inclusive. Role bearers are not sorted in any particular way, and their ordering may change at any point. WARNING: When using {getRoleMember} and {getRoleMemberCount}, make sure you perform all queries on the same block. See the following https://forum.openzeppelin.com/t/iterating-over-elements-on-enumerableset-in-openzeppelin-contracts/2296[forum post] for more information."
      },
      "getRoleMemberCount(bytes32)": {
        "details": "Returns the number of accounts that have `role`. Can be used together with {getRoleMember} to enumerate all bearers of a role."
      },
      "grantRole(bytes32,address)": {
        "details": "Grants `role` to `account`. If `account` had not been already granted `role`, emits a {RoleGranted} event. Requirements: - the caller must have ``role``'s admin role."
      },
      "hasRole(bytes32,address)": {
        "details": "Returns `true` if `account` has been granted `role`."
      },
      "onERC721Received(address,address,uint256,bytes)": {
        "details": "See {IERC721Receiver-onERC721Received}. Always returns `IERC721Receiver.onERC721Received.selector`."
      },
      "renounceRole(bytes32,address)": {
        "details": "Revokes `role` from the calling account. Roles are often managed via {grantRole} and {revokeRole}: this function's purpose is to provide a mechanism for accounts to lose their privileges if they are compromised (such as when a trusted device is misplaced). If the calling account had been granted `role`, emits a {RoleRevoked} event. Requirements: - the caller must be `account`."
      },
      "revokeRole(bytes32,address)": {
        "details": "Revokes `role` from `account`. If `account` had been granted `role`, emits a {RoleRevoked} event. Requirements: - the caller must have ``role``'s admin role."
      },
      "upgrade(uint32,uint32[])": {
        "details": "upgrade is called by a user",
        "params": {
          "_burnedNfts": "is the array of nftId which use to burn for mainNFT",
          "_mainNFTId": "is the NFT Id of nft which want to upgrade"
        }
      }
    },
    "version": 1
  },
  "userdoc": {
    "kind": "user",
    "methods": {},
    "version": 1
  }
}