{
  "contractName": "FwarCharStorage",
  "abi": [
    {
      "inputs": [
        {
          "internalType": "uint256",
          "name": "",
          "type": "uint256"
        }
      ],
      "name": "ELEMENT_MASK",
      "outputs": [
        {
          "internalType": "uint32",
          "name": "",
          "type": "uint32"
        }
      ],
      "stateMutability": "view",
      "type": "function"
    },
    {
      "inputs": [
        {
          "internalType": "uint256",
          "name": "",
          "type": "uint256"
        }
      ],
      "name": "RARITY_MASK",
      "outputs": [
        {
          "internalType": "uint32",
          "name": "",
          "type": "uint32"
        }
      ],
      "stateMutability": "view",
      "type": "function"
    },
    {
      "inputs": [],
      "name": "TeamCount",
      "outputs": [
        {
          "internalType": "uint32",
          "name": "",
          "type": "uint32"
        }
      ],
      "stateMutability": "view",
      "type": "function"
    },
    {
      "inputs": [
        {
          "internalType": "uint256",
          "name": "",
          "type": "uint256"
        },
        {
          "internalType": "uint256",
          "name": "",
          "type": "uint256"
        }
      ],
      "name": "burnInfos",
      "outputs": [
        {
          "internalType": "uint8",
          "name": "junkAmount",
          "type": "uint8"
        },
        {
          "internalType": "uint8",
          "name": "normalAmount",
          "type": "uint8"
        },
        {
          "internalType": "uint8",
          "name": "rareAmount",
          "type": "uint8"
        },
        {
          "internalType": "uint8",
          "name": "baseAmount",
          "type": "uint8"
        },
        {
          "internalType": "uint8",
          "name": "percentConsume",
          "type": "uint8"
        },
        {
          "internalType": "uint8",
          "name": "percentOnBase",
          "type": "uint8"
        }
      ],
      "stateMutability": "view",
      "type": "function"
    },
    {
      "inputs": [
        {
          "internalType": "uint32",
          "name": "",
          "type": "uint32"
        },
        {
          "internalType": "uint8",
          "name": "",
          "type": "uint8"
        }
      ],
      "name": "charStats",
      "outputs": [
        {
          "internalType": "uint32",
          "name": "maxAttack",
          "type": "uint32"
        },
        {
          "internalType": "uint32",
          "name": "minAttack",
          "type": "uint32"
        },
        {
          "internalType": "uint32",
          "name": "maxDefense",
          "type": "uint32"
        },
        {
          "internalType": "uint32",
          "name": "minDefense",
          "type": "uint32"
        },
        {
          "internalType": "uint32",
          "name": "maxHealth",
          "type": "uint32"
        },
        {
          "internalType": "uint32",
          "name": "minHealth",
          "type": "uint32"
        }
      ],
      "stateMutability": "view",
      "type": "function"
    },
    {
      "inputs": [],
      "name": "fwarCharAddress",
      "outputs": [
        {
          "internalType": "address",
          "name": "",
          "type": "address"
        }
      ],
      "stateMutability": "view",
      "type": "function"
    },
    {
      "inputs": [],
      "name": "fwarKeyAddress",
      "outputs": [
        {
          "internalType": "address",
          "name": "",
          "type": "address"
        }
      ],
      "stateMutability": "view",
      "type": "function"
    },
    {
      "inputs": [],
      "name": "seedAddress",
      "outputs": [
        {
          "internalType": "address",
          "name": "",
          "type": "address"
        }
      ],
      "stateMutability": "view",
      "type": "function"
    },
    {
      "inputs": [
        {
          "internalType": "uint32",
          "name": "",
          "type": "uint32"
        }
      ],
      "name": "teamInfos",
      "outputs": [
        {
          "internalType": "uint32",
          "name": "maxRandom",
          "type": "uint32"
        },
        {
          "internalType": "uint32",
          "name": "minRandom",
          "type": "uint32"
        }
      ],
      "stateMutability": "view",
      "type": "function"
    }
  ],
  "bytecode": "0x608060405234801561001057600080fd5b5061060e806100206000396000f3fe608060405234801561001057600080fd5b50600436106100935760003560e01c806354bda05e1161006657806354bda05e146101e757806382e9aa8e1461022f578063b3d371fa14610263578063d33f7978146102ab578063e8197595146102df57610093565b80630205fd221461009857806316b6224b146100f35780631dda884a1461011757806325ea85c5146101b3575b600080fd5b6100ca600480360360208110156100ae57600080fd5b81019080803563ffffffff169060200190929190505050610360565b604051808363ffffffff1681526020018263ffffffff1681526020019250505060405180910390f35b6100fb6103a4565b604051808263ffffffff16815260200191505060405180910390f35b6101566004803603604081101561012d57600080fd5b81019080803563ffffffff169060200190929190803560ff1690602001909291905050506103b8565b604051808763ffffffff1681526020018663ffffffff1681526020018563ffffffff1681526020018463ffffffff1681526020018363ffffffff1681526020018263ffffffff168152602001965050505050505060405180910390f35b6101bb610461565b604051808273ffffffffffffffffffffffffffffffffffffffff16815260200191505060405180910390f35b610213600480360360208110156101fd57600080fd5b8101908080359060200190929190505050610487565b604051808263ffffffff16815260200191505060405180910390f35b6102376104be565b604051808273ffffffffffffffffffffffffffffffffffffffff16815260200191505060405180910390f35b61028f6004803603602081101561027957600080fd5b81019080803590602001909291905050506104e4565b604051808263ffffffff16815260200191505060405180910390f35b6102b361051b565b604051808273ffffffffffffffffffffffffffffffffffffffff16815260200191505060405180910390f35b610315600480360360408110156102f557600080fd5b810190808035906020019092919080359060200190929190505050610541565b604051808760ff1681526020018660ff1681526020018560ff1681526020018460ff1681526020018360ff1681526020018260ff168152602001965050505050505060405180910390f35b60016020528060005260406000206000915090508060000160009054906101000a900463ffffffff16908060000160049054906101000a900463ffffffff16905082565b60008054906101000a900463ffffffff1681565b6002602052816000526040600020602052806000526040600020600091509150508060000160009054906101000a900463ffffffff16908060000160049054906101000a900463ffffffff16908060000160089054906101000a900463ffffffff169080600001600c9054906101000a900463ffffffff16908060000160109054906101000a900463ffffffff16908060000160149054906101000a900463ffffffff16905086565b600460009054906101000a900473ffffffffffffffffffffffffffffffffffffffff1681565b6007818154811061049457fe5b9060005260206000209060089182820401919006600402915054906101000a900463ffffffff1681565b600360009054906101000a900473ffffffffffffffffffffffffffffffffffffffff1681565b600681815481106104f157fe5b9060005260206000209060089182820401919006600402915054906101000a900463ffffffff1681565b600560009054906101000a900473ffffffffffffffffffffffffffffffffffffffff1681565b6009602052816000526040600020602052806000526040600020600091509150508060000160009054906101000a900460ff16908060000160019054906101000a900460ff16908060000160029054906101000a900460ff16908060000160039054906101000a900460ff16908060000160049054906101000a900460ff16908060000160059054906101000a900460ff1690508656fea2646970667358221220c62053295c97e7b5c7285a50dc5a23d7b0a0173940cfb519f994eca93d1bf81564736f6c634300060c0033",
  "immutableReferences": {},
  "source": "// SPDX-License-Identifier: MIT\npragma solidity 0.6.12;\n\nimport \"@openzeppelin/contracts/math/SafeMath.sol\";\nimport \"./SafeMath32.sol\";\nimport \"./SafeMath8.sol\";\n\ncontract FwarCharStorage {\n    using SafeMath for uint256;\n    using SafeMath32 for uint32;\n    using SafeMath8 for uint8;\n\n    //Character infomation\n    struct CharInfo {\n        uint8 level;\n        uint8 rarity;\n        uint8 elementType;\n        uint32 teamId;\n\n        uint32 baseAttack;\n        uint32 baseDefense;\n        uint32 baseHealth;\n\n        uint32 attack;\n        uint32 defense;\n        uint32 health;\n    }\n\n    //Burning information\n    struct BurnInfo {\n        //amount of Junk card to burn\n        uint8 junkAmount;\n        \n        //amount of Normal card to burn\n        uint8 normalAmount;\n        \n        //amount of Rare card to burn\n        uint8 rareAmount;\n\n        //amount of same upgrade card rarity to burn\n        uint8 baseAmount;\n\n        //percentage bonus on consume NFT\n        uint8 percentConsume;\n\n        //percentage bonus on base stat NFT\n        uint8 percentOnBase;\n    }\n\n    //Team information used to random state of character\n    struct TeamInfo{\n        uint32 maxRandom;\n        uint32 minRandom;\n    }\n\n    struct CharStat{\n        uint32 maxAttack;\n        uint32 minAttack;\n        uint32 maxDefense;\n        uint32 minDefense;\n        uint32 maxHealth;\n        uint32 minHealth;\n    }\n\n    //TeamCount\n    uint32 public TeamCount;\n\n    //TeamInfos\n    mapping(uint32 => TeamInfo) public teamInfos;\n\n    //TeamId => rarity => charStat\n    mapping(uint32 => mapping(uint8 => CharStat)) public charStats;\n\n    //FWC Address\n    address public fwarCharAddress;\n\n    //FWK Address\n    address public fwarKeyAddress;\n\n    //Seed Address\n    address public seedAddress;\n    \n        \n    uint32[] public RARITY_MASK; \n    uint32[] public ELEMENT_MASK;\n\n    uint32 internal  MULTIPLER; //1e3 use for stat of character\n\n    // rarity -> level -> BurnInfo\n    mapping(uint => mapping(uint => BurnInfo)) public burnInfos;\n}\n",
  "sourcePath": "/Users/badung1870/Working/Node/F-War-Project-Hungnd/SourceCode/SmartContracts/Fwar/FwarChar/contracts/FwarCharStorage.sol",
  "compiler": {
    "name": "solc",
    "version": "0.6.12+commit.27d51765.Emscripten.clang"
  },
  "schemaVersion": "3.4.3",
  "updatedAt": "2021-09-30T18:55:49.091Z",
  "devdoc": {
    "kind": "dev",
    "methods": {},
    "version": 1
  },
  "userdoc": {
    "kind": "user",
    "methods": {},
    "version": 1
  }
}