{
  "contractName": "FwarCharStorage",
  "abi": [
    {
      "inputs": [
        {
          "internalType": "uint256",
          "name": "",
          "type": "uint256"
        }
      ],
      "name": "ELEMENT_MASK",
      "outputs": [
        {
          "internalType": "uint256",
          "name": "",
          "type": "uint256"
        }
      ],
      "stateMutability": "view",
      "type": "function"
    },
    {
      "inputs": [
        {
          "internalType": "uint256",
          "name": "",
          "type": "uint256"
        }
      ],
      "name": "RARITY_MASK",
      "outputs": [
        {
          "internalType": "uint256",
          "name": "",
          "type": "uint256"
        }
      ],
      "stateMutability": "view",
      "type": "function"
    },
    {
      "inputs": [
        {
          "internalType": "uint256",
          "name": "",
          "type": "uint256"
        },
        {
          "internalType": "uint256",
          "name": "",
          "type": "uint256"
        }
      ],
      "name": "burnInfos",
      "outputs": [
        {
          "internalType": "uint8",
          "name": "junkAmount",
          "type": "uint8"
        },
        {
          "internalType": "uint8",
          "name": "normalAmount",
          "type": "uint8"
        },
        {
          "internalType": "uint8",
          "name": "rareAmount",
          "type": "uint8"
        },
        {
          "internalType": "uint8",
          "name": "baseAmount",
          "type": "uint8"
        },
        {
          "internalType": "uint8",
          "name": "percentConsume",
          "type": "uint8"
        },
        {
          "internalType": "uint8",
          "name": "percentOnBase",
          "type": "uint8"
        }
      ],
      "stateMutability": "view",
      "type": "function"
    },
    {
      "inputs": [],
      "name": "fwarCharAddress",
      "outputs": [
        {
          "internalType": "address",
          "name": "",
          "type": "address"
        }
      ],
      "stateMutability": "view",
      "type": "function"
    },
    {
      "inputs": [],
      "name": "fwarKeyAddress",
      "outputs": [
        {
          "internalType": "address",
          "name": "",
          "type": "address"
        }
      ],
      "stateMutability": "view",
      "type": "function"
    },
    {
      "inputs": [],
      "name": "seedAddress",
      "outputs": [
        {
          "internalType": "address",
          "name": "",
          "type": "address"
        }
      ],
      "stateMutability": "view",
      "type": "function"
    },
    {
      "inputs": [
        {
          "internalType": "uint256",
          "name": "",
          "type": "uint256"
        }
      ],
      "name": "teamIdList",
      "outputs": [
        {
          "internalType": "uint32",
          "name": "",
          "type": "uint32"
        }
      ],
      "stateMutability": "view",
      "type": "function"
    },
    {
      "inputs": [
        {
          "internalType": "uint256",
          "name": "",
          "type": "uint256"
        }
      ],
      "name": "teamInfos",
      "outputs": [
        {
          "internalType": "uint32",
          "name": "maxAttack",
          "type": "uint32"
        },
        {
          "internalType": "uint32",
          "name": "minAttack",
          "type": "uint32"
        },
        {
          "internalType": "uint32",
          "name": "maxDefend",
          "type": "uint32"
        },
        {
          "internalType": "uint32",
          "name": "minDefend",
          "type": "uint32"
        },
        {
          "internalType": "uint32",
          "name": "maxHealth",
          "type": "uint32"
        },
        {
          "internalType": "uint32",
          "name": "minHealth",
          "type": "uint32"
        },
        {
          "internalType": "uint32",
          "name": "listPointer",
          "type": "uint32"
        }
      ],
      "stateMutability": "view",
      "type": "function"
    }
  ],
  "bytecode": "0x608060405234801561001057600080fd5b50610576806100206000396000f3fe608060405234801561001057600080fd5b50600436106100885760003560e01c8063ac4d3e3e1161005b578063ac4d3e3e146101cd578063b3d371fa14610215578063d33f797814610257578063e81975951461028b57610088565b806325ea85c51461008d5780632dec29c1146100c157806354bda05e1461015757806382e9aa8e14610199575b600080fd5b61009561030c565b604051808273ffffffffffffffffffffffffffffffffffffffff16815260200191505060405180910390f35b6100ed600480360360208110156100d757600080fd5b8101908080359060200190929190505050610332565b604051808863ffffffff1681526020018763ffffffff1681526020018663ffffffff1681526020018563ffffffff1681526020018463ffffffff1681526020018363ffffffff1681526020018263ffffffff16815260200197505050505050505060405180910390f35b6101836004803603602081101561016d57600080fd5b81019080803590602001909291905050506103e4565b6040518082815260200191505060405180910390f35b6101a1610405565b604051808273ffffffffffffffffffffffffffffffffffffffff16815260200191505060405180910390f35b6101f9600480360360208110156101e357600080fd5b810190808035906020019092919050505061042b565b604051808263ffffffff16815260200191505060405180910390f35b6102416004803603602081101561022b57600080fd5b8101908080359060200190929190505050610462565b6040518082815260200191505060405180910390f35b61025f610483565b604051808273ffffffffffffffffffffffffffffffffffffffff16815260200191505060405180910390f35b6102c1600480360360408110156102a157600080fd5b8101908080359060200190929190803590602001909291905050506104a9565b604051808760ff1681526020018660ff1681526020018560ff1681526020018460ff1681526020018360ff1681526020018260ff168152602001965050505050505060405180910390f35b600360009054906101000a900473ffffffffffffffffffffffffffffffffffffffff1681565b60006020528060005260406000206000915090508060000160009054906101000a900463ffffffff16908060000160049054906101000a900463ffffffff16908060000160089054906101000a900463ffffffff169080600001600c9054906101000a900463ffffffff16908060000160109054906101000a900463ffffffff16908060000160149054906101000a900463ffffffff16908060000160189054906101000a900463ffffffff16905087565b600681815481106103f157fe5b906000526020600020016000915090505481565b600260009054906101000a900473ffffffffffffffffffffffffffffffffffffffff1681565b6001818154811061043857fe5b9060005260206000209060089182820401919006600402915054906101000a900463ffffffff1681565b6005818154811061046f57fe5b906000526020600020016000915090505481565b600460009054906101000a900473ffffffffffffffffffffffffffffffffffffffff1681565b6009602052816000526040600020602052806000526040600020600091509150508060000160009054906101000a900460ff16908060000160019054906101000a900460ff16908060000160029054906101000a900460ff16908060000160039054906101000a900460ff16908060000160049054906101000a900460ff16908060000160059054906101000a900460ff1690508656fea264697066735822122001c493ff76f340bdc0299e2f64264ee49616f6b79468d4a5e11165f3134de5bd64736f6c634300060c0033",
  "immutableReferences": {},
  "source": "// SPDX-License-Identifier: MIT\npragma solidity 0.6.12;\n\nimport \"@openzeppelin/contracts/math/SafeMath.sol\";\nimport \"./SafeMath32.sol\";\nimport \"./SafeMath8.sol\";\n\ncontract FwarCharStorage {\n    using SafeMath for uint256;\n    using SafeMath32 for uint32;\n    using SafeMath8 for uint8;\n\n    //Character infomation\n    struct CharInfo {\n        uint8 level;\n        \n        uint8 rarity;\n        \n        uint8 elementType;\n\n        uint32 teamId;\n\n        uint32 baseAttack;\n        uint32 baseDefend;\n        uint32 baseHealth;\n\n        uint32 attack;\n        uint32 defend;\n        uint32 health;\n    }\n\n    //Burning information\n    struct BurnInfo {\n        //amount of Junk card to burn\n        uint8 junkAmount;\n        \n        //amount of Normal card to burn\n        uint8 normalAmount;\n        \n        //amount of Rare card to burn\n        uint8 rareAmount;\n\n        //amount of same upgrade card rarity to burn\n        uint8 baseAmount;\n\n        //percentage bonus on consume NFT\n        uint8 percentConsume;\n\n        //percentage bonus on base stat NFT\n        uint8 percentOnBase;\n    }\n    //Team information used to random state of character\n    struct TeamInfo{\n        uint32 maxAttack;\n        uint32 minAttack;\n        uint32 maxDefend;\n        uint32 minDefend;\n        uint32 maxHealth;\n        uint32 minHealth;\n\n        //index stored in list\n        uint32 listPointer;\n    }\n\n    //TeamInfos\n    mapping(uint => TeamInfo) public teamInfos;\n    // List active team Id\n    uint32[] public teamIdList;\n\n    address public fwarCharAddress;\n\n    address public fwarKeyAddress;\n\n    address public seedAddress;\n    \n    uint[] public RARITY_MASK; // 55%, 27%, 15%, 3%\n\n    uint[] public ELEMENT_MASK; // 20%, 20%, 20%, 20%, 20%\n\n    uint256 burnInfoCount;\n\n    uint32 internal  MULTIPLER; //1e3 use for stat of character\n\n    // rarity -> level -> BurnInfo\n    mapping(uint => mapping(uint => BurnInfo)) public burnInfos;\n}\n",
  "sourcePath": "/Users/hungnguyen/Documents/GitHub/F-War-Project/SourceCode/SmartContracts/Fwar/FwarChar/contracts/FwarCharStorage.sol",
  "compiler": {
    "name": "solc",
    "version": "0.6.12+commit.27d51765.Emscripten.clang"
  },
  "schemaVersion": "3.4.3",
  "updatedAt": "2021-09-26T08:27:21.199Z",
  "devdoc": {
    "kind": "dev",
    "methods": {},
    "version": 1
  },
  "userdoc": {
    "kind": "user",
    "methods": {},
    "version": 1
  }
}