{
  "contractName": "Demo",
  "abi": [
    {
      "inputs": [
        {
          "internalType": "address",
          "name": "_masterChef",
          "type": "address"
        },
        {
          "internalType": "address",
          "name": "_lpAddress",
          "type": "address"
        }
      ],
      "stateMutability": "nonpayable",
      "type": "constructor"
    },
    {
      "inputs": [],
      "name": "lpAddress",
      "outputs": [
        {
          "internalType": "address",
          "name": "",
          "type": "address"
        }
      ],
      "stateMutability": "view",
      "type": "function"
    },
    {
      "inputs": [],
      "name": "masterChef",
      "outputs": [
        {
          "internalType": "address",
          "name": "",
          "type": "address"
        }
      ],
      "stateMutability": "view",
      "type": "function"
    },
    {
      "inputs": [
        {
          "internalType": "uint256",
          "name": "_pid",
          "type": "uint256"
        },
        {
          "internalType": "uint256",
          "name": "_amount",
          "type": "uint256"
        }
      ],
      "name": "pancakeStake",
      "outputs": [],
      "stateMutability": "nonpayable",
      "type": "function"
    },
    {
      "inputs": [
        {
          "internalType": "uint256",
          "name": "_amount",
          "type": "uint256"
        }
      ],
      "name": "deposit",
      "outputs": [],
      "stateMutability": "nonpayable",
      "type": "function"
    }
  ],
  "bytecode": "0x608060405234801561001057600080fd5b5060405161079c38038061079c8339818101604052604081101561003357600080fd5b810190808051906020019092919080519060200190929190505050816000806101000a81548173ffffffffffffffffffffffffffffffffffffffff021916908373ffffffffffffffffffffffffffffffffffffffff16021790555080600160006101000a81548173ffffffffffffffffffffffffffffffffffffffff021916908373ffffffffffffffffffffffffffffffffffffffff16021790555050506106bc806100e06000396000f3fe608060405234801561001057600080fd5b506004361061004c5760003560e01c8063575a86b2146100515780639b4dc8cc14610085578063b6b55f25146100b9578063bed025aa146100e7575b600080fd5b61005961011f565b604051808273ffffffffffffffffffffffffffffffffffffffff16815260200191505060405180910390f35b61008d610143565b604051808273ffffffffffffffffffffffffffffffffffffffff16815260200191505060405180910390f35b6100e5600480360360208110156100cf57600080fd5b8101908080359060200190929190505050610169565b005b61011d600480360360408110156100fd57600080fd5b810190808035906020019092919080359060200190929190505050610200565b005b60008054906101000a900473ffffffffffffffffffffffffffffffffffffffff1681565b600160009054906101000a900473ffffffffffffffffffffffffffffffffffffffff1681565b60008054906101000a900473ffffffffffffffffffffffffffffffffffffffff1673ffffffffffffffffffffffffffffffffffffffff1663e2bbb1586001836040518363ffffffff1660e01b81526004018083815260200182815260200192505050600060405180830381600087803b1580156101e557600080fd5b505af11580156101f9573d6000803e3d6000fd5b5050505050565b61022e600160009054906101000a900473ffffffffffffffffffffffffffffffffffffffff1633308461027f565b61027b600160009054906101000a900473ffffffffffffffffffffffffffffffffffffffff1660008054906101000a900473ffffffffffffffffffffffffffffffffffffffff1683610464565b5050565b600060608573ffffffffffffffffffffffffffffffffffffffff166323b872dd868686604051602401808473ffffffffffffffffffffffffffffffffffffffff1681526020018373ffffffffffffffffffffffffffffffffffffffff16815260200182815260200193505050506040516020818303038152906040529060e01b6020820180517bffffffffffffffffffffffffffffffffffffffffffffffffffffffff83818316178352505050506040518082805190602001908083835b60208310610360578051825260208201915060208101905060208303925061033d565b6001836020036101000a0380198251168184511680821785525050505050509050019150506000604051808303816000865af19150503d80600081146103c2576040519150601f19603f3d011682016040523d82523d6000602084013e6103c7565b606091505b5091509150818015610407575060008151148061040657508080602001905160208110156103f457600080fd5b81019080805190602001909291905050505b5b61045c576040517f08c379a000000000000000000000000000000000000000000000000000000000815260040180806020018281038252603181526020018061062b6031913960400191505060405180910390fd5b505050505050565b600060608473ffffffffffffffffffffffffffffffffffffffff1663095ea7b38585604051602401808373ffffffffffffffffffffffffffffffffffffffff168152602001828152602001925050506040516020818303038152906040529060e01b6020820180517bffffffffffffffffffffffffffffffffffffffffffffffffffffffff83818316178352505050506040518082805190602001908083835b602083106105275780518252602082019150602081019050602083039250610504565b6001836020036101000a0380198251168184511680821785525050505050509050019150506000604051808303816000865af19150503d8060008114610589576040519150601f19603f3d011682016040523d82523d6000602084013e61058e565b606091505b50915091508180156105ce57506000815114806105cd57508080602001905160208110156105bb57600080fd5b81019080805190602001909291905050505b5b610623576040517f08c379a000000000000000000000000000000000000000000000000000000000815260040180806020018281038252602b81526020018061065c602b913960400191505060405180910390fd5b505050505056fe5472616e7366657248656c7065723a3a7472616e7366657246726f6d3a207472616e7366657246726f6d206661696c65645472616e7366657248656c7065723a3a73616665417070726f76653a20617070726f7665206661696c6564a2646970667358221220ecb5a3aad53acce114b51843516ea2c56581d4b52744fc6001e52cab94b8915a64736f6c634300060c0033",
  "immutableReferences": {},
  "source": "//SPDX-License-Identifier: UNLICENSED\npragma solidity ^0.6.12;\n\n\ninterface IMasterChef {\n    function deposit(uint256 _pid, uint256 _amount) external;\n}\n\nlibrary TransferHelper {\n    function safeReward(\n        address token,\n        address to,\n        uint256 value\n    ) internal {\n        // bytes4(keccak256(bytes('reward(address,uint256)')));\n        (bool success, bytes memory data) = token.call(abi.encodeWithSelector(0x21670f22, to, value));\n        require(\n            success && (data.length == 0 || abi.decode(data, (bool))),\n            'TransferHelper::safeReward: reward failed'\n        );\n    }\n\n    function safeApprove(\n        address token,\n        address to,\n        uint256 value\n    ) internal {\n        // bytes4(keccak256(bytes('approve(address,uint256)')));\n        (bool success, bytes memory data) = token.call(abi.encodeWithSelector(0x095ea7b3, to, value));\n        require(\n            success && (data.length == 0 || abi.decode(data, (bool))),\n            'TransferHelper::safeApprove: approve failed'\n        );\n    }\n\n    function safeTransfer(\n        address token,\n        address to,\n        uint256 value\n    ) internal {\n        // bytes4(keccak256(bytes('transfer(address,uint256)')));\n        (bool success, bytes memory data) = token.call(abi.encodeWithSelector(0xa9059cbb, to, value));\n        require(\n            success && (data.length == 0 || abi.decode(data, (bool))),\n            'TransferHelper::safeTransfer: transfer failed'\n        );\n    }\n\n    function safeTransferFrom(\n        address token,\n        address from,\n        address to,\n        uint256 value\n    ) internal {\n        // bytes4(keccak256(bytes('transferFrom(address,address,uint256)')));\n        (bool success, bytes memory data) = token.call(abi.encodeWithSelector(0x23b872dd, from, to, value));\n        require(\n            success && (data.length == 0 || abi.decode(data, (bool))),\n            'TransferHelper::transferFrom: transferFrom failed'\n        );\n    }\n\n    function safeTransferBNB(address to, uint256 value) internal {\n        (bool success, ) = to.call{value: value}(new bytes(0));\n        require(success, 'TransferHelper::safeTransferBNB: BNB transfer failed');\n    }\n}\n\nlibrary PancakeHelper {\n    function safeDeposit(\n        address pancakeMasterChef,\n        uint256 pid,\n        uint256 amount\n    ) internal {\n        // bytes4(keccak256(bytes('deposit(uint256,uint256)')));\n        (bool success, bytes memory data) = pancakeMasterChef.call(abi.encodeWithSelector(0xe2bbb158, pid, amount));\n        require(\n            success && (data.length == 0 || abi.decode(data, (bool))),\n            'PancakeHelper::safeDeposit: deposit failed'\n        );\n    }\n\n    function safeWithdraw(\n        address pancakeMasterChef,\n        uint256 pid,\n        uint256 amount\n    ) internal {\n        // bytes4(keccak256(bytes('withdraw(uint256,uint256)')));\n        (bool success, bytes memory data) = pancakeMasterChef.call(abi.encodeWithSelector(0x441a3e70, pid, amount));\n        require(\n            success && (data.length == 0 || abi.decode(data, (bool))),\n            'PancakeHelper::safeWithdraw: withdraw failed'\n        );\n    }\n\n    function safeSwapExactTokensForTokens(\n        address pancakeSwap,\n        uint256 amountIn,\n        uint256 amountOutMin,\n        address[] calldata path,\n        address to,\n        uint256 deadline\n    ) internal returns(uint256[] memory amounts){\n        //really?\n        //bytes4(keccak256(bytes('swapExactTokensForTokens(uint256,uint256,address[],address,uint256)')));\n        (bool success, bytes memory data) = pancakeSwap.call(abi.encodeWithSelector(0x38ed1739, amountIn, amountOutMin, path, to, deadline));\n        require(\n            success,\n            'PancakeHelper::safeSwapExactTokensForTokens: swap failed'\n        );\n        amounts = abi.decode(data, (uint256[]));\n    }\n}\n\n\ncontract Demo {\n\n\taddress public masterChef;\n\taddress public lpAddress; \n\n\tconstructor(address _masterChef, address _lpAddress) public {\n\t\tmasterChef = _masterChef;\n\t\tlpAddress = _lpAddress;\n\t}\n\n\tfunction pancakeStake(uint256 _pid, uint256 _amount) public {\n\t\tTransferHelper.safeTransferFrom(lpAddress, msg.sender, address(this), _amount);\n        TransferHelper.safeApprove(lpAddress, masterChef, _amount);\n    }\n\n    function deposit(uint256 _amount) public{\n    \tIMasterChef(masterChef).deposit(1, _amount);\n    }\n\n}",
  "sourcePath": "/home/hieupv/Documents/F-farm/F-War-Project/SourceCode/SmartContracts/Fwar/FwarPool/contracts/Demo.sol",
  "compiler": {
    "name": "solc",
    "version": "0.6.12+commit.27d51765.Emscripten.clang"
  },
  "schemaVersion": "3.4.3",
  "updatedAt": "2021-09-20T18:47:09.152Z",
  "devdoc": {
    "kind": "dev",
    "methods": {},
    "version": 1
  },
  "userdoc": {
    "kind": "user",
    "methods": {},
    "version": 1
  }
}