{
  "contractName": "FwarOwnable",
  "abi": [
    {
      "anonymous": false,
      "inputs": [
        {
          "indexed": true,
          "internalType": "address",
          "name": "previousOwner",
          "type": "address"
        },
        {
          "indexed": true,
          "internalType": "address",
          "name": "newOwner",
          "type": "address"
        }
      ],
      "name": "OwnershipTransferred",
      "type": "event"
    },
    {
      "inputs": [],
      "name": "owner",
      "outputs": [
        {
          "internalType": "address",
          "name": "",
          "type": "address"
        }
      ],
      "stateMutability": "view",
      "type": "function"
    },
    {
      "inputs": [],
      "name": "renounceOwnership",
      "outputs": [],
      "stateMutability": "nonpayable",
      "type": "function"
    },
    {
      "inputs": [
        {
          "internalType": "address",
          "name": "newOwner",
          "type": "address"
        }
      ],
      "name": "transferOwnership",
      "outputs": [],
      "stateMutability": "nonpayable",
      "type": "function"
    }
  ],
  "bytecode": "0x608060405234801561001057600080fd5b506104f2806100206000396000f3fe608060405234801561001057600080fd5b50600436106100415760003560e01c8063715018a6146100465780638da5cb5b14610050578063f2fde38b14610084575b600080fd5b61004e6100c8565b005b61005861024e565b604051808273ffffffffffffffffffffffffffffffffffffffff16815260200191505060405180910390f35b6100c66004803603602081101561009a57600080fd5b81019080803573ffffffffffffffffffffffffffffffffffffffff169060200190929190505050610277565b005b6100d061034b565b73ffffffffffffffffffffffffffffffffffffffff1660008054906101000a900473ffffffffffffffffffffffffffffffffffffffff1673ffffffffffffffffffffffffffffffffffffffff1614610190576040517f08c379a00000000000000000000000000000000000000000000000000000000081526004018080602001828103825260208152602001807f4f776e61626c653a2063616c6c6572206973206e6f7420746865206f776e657281525060200191505060405180910390fd5b600073ffffffffffffffffffffffffffffffffffffffff1660008054906101000a900473ffffffffffffffffffffffffffffffffffffffff1673ffffffffffffffffffffffffffffffffffffffff167f8be0079c531659141344cd1fd0a4f28419497f9722a3daafe3b4186f6b6457e060405160405180910390a360008060006101000a81548173ffffffffffffffffffffffffffffffffffffffff021916908373ffffffffffffffffffffffffffffffffffffffff160217905550565b60008060009054906101000a900473ffffffffffffffffffffffffffffffffffffffff16905090565b61027f61034b565b73ffffffffffffffffffffffffffffffffffffffff1660008054906101000a900473ffffffffffffffffffffffffffffffffffffffff1673ffffffffffffffffffffffffffffffffffffffff161461033f576040517f08c379a00000000000000000000000000000000000000000000000000000000081526004018080602001828103825260208152602001807f4f776e61626c653a2063616c6c6572206973206e6f7420746865206f776e657281525060200191505060405180910390fd5b61034881610353565b50565b600033905090565b600073ffffffffffffffffffffffffffffffffffffffff168173ffffffffffffffffffffffffffffffffffffffff1614156103d9576040517f08c379a00000000000000000000000000000000000000000000000000000000081526004018080602001828103825260268152602001806104976026913960400191505060405180910390fd5b8073ffffffffffffffffffffffffffffffffffffffff1660008054906101000a900473ffffffffffffffffffffffffffffffffffffffff1673ffffffffffffffffffffffffffffffffffffffff167f8be0079c531659141344cd1fd0a4f28419497f9722a3daafe3b4186f6b6457e060405160405180910390a3806000806101000a81548173ffffffffffffffffffffffffffffffffffffffff021916908373ffffffffffffffffffffffffffffffffffffffff1602179055505056fe4f776e61626c653a206e6577206f776e657220697320746865207a65726f2061646472657373a2646970667358221220c8053a0338149254d7d5bba7acb183d4ec022419d10a4504cf7cb2b7e3eb6f5464736f6c634300060c0033",
  "immutableReferences": {},
  "source": "//SPDX-License-Identifier: UNLICENSED\n\npragma solidity 0.6.12;\n\nimport '@openzeppelin/contracts/utils/Context.sol';\nimport '@openzeppelin/contracts/utils/ReentrancyGuard.sol';\n\n// base on Ownable.sol\ncontract FwarOwnable is Context {\n    address internal _owner;\n\n    event OwnershipTransferred(address indexed previousOwner, address indexed newOwner);\n\n    /**\n     * @dev Returns the address of the current owner.\n     */\n    function owner() public view returns (address) {\n        return _owner;\n    }\n\n    /**\n     * @dev Throws if called by any account other than the owner.\n     */\n    modifier onlyOwner() {\n        require(_owner == _msgSender(), 'Ownable: caller is not the owner');\n        _;\n    }\n\n    /**\n     * @dev Leaves the contract without owner. It will not be possible to call\n     * `onlyOwner` functions anymore. Can only be called by the current owner.\n     *\n     * NOTE: Renouncing ownership will leave the contract without an owner,\n     * thereby removing any functionality that is only available to the owner.\n     */\n    function renounceOwnership() public onlyOwner {\n        emit OwnershipTransferred(_owner, address(0));\n        _owner = address(0);\n    }\n\n    /**\n     * @dev Transfers ownership of the contract to a new account (`newOwner`).\n     * Can only be called by the current owner.\n     */\n    function transferOwnership(address newOwner) public onlyOwner {\n        _transferOwnership(newOwner);\n    }\n\n    /**\n     * @dev Transfers ownership of the contract to a new account (`newOwner`).\n     */\n    function _transferOwnership(address newOwner) internal {\n        require(newOwner != address(0), 'Ownable: new owner is the zero address');\n        emit OwnershipTransferred(_owner, newOwner);\n        _owner = newOwner;\n    }\n}\n\nlibrary SafeMath {\n    /**\n     * @dev Returns the addition of two unsigned integers, reverting on\n     * overflow.\n     *\n     * Counterpart to Solidity's `+` operator.\n     *\n     * Requirements:\n     *\n     * - Addition cannot overflow.\n     */\n    function add(uint256 a, uint256 b) internal pure returns (uint256) {\n        uint256 c = a + b;\n        require(c >= a, 'SafeMath: addition overflow');\n\n        return c;\n    }\n\n    /**\n     * @dev Returns the subtraction of two unsigned integers, reverting on\n     * overflow (when the result is negative).\n     *\n     * Counterpart to Solidity's `-` operator.\n     *\n     * Requirements:\n     *\n     * - Subtraction cannot overflow.\n     */\n    function sub(uint256 a, uint256 b) internal pure returns (uint256) {\n        return sub(a, b, 'SafeMath: subtraction overflow');\n    }\n\n    /**\n     * @dev Returns the subtraction of two unsigned integers, reverting with custom message on\n     * overflow (when the result is negative).\n     *\n     * Counterpart to Solidity's `-` operator.\n     *\n     * Requirements:\n     *\n     * - Subtraction cannot overflow.\n     */\n    function sub(\n        uint256 a,\n        uint256 b,\n        string memory errorMessage\n    ) internal pure returns (uint256) {\n        require(b <= a, errorMessage);\n        uint256 c = a - b;\n\n        return c;\n    }\n\n    /**\n     * @dev Returns the multiplication of two unsigned integers, reverting on\n     * overflow.\n     *\n     * Counterpart to Solidity's `*` operator.\n     *\n     * Requirements:\n     *\n     * - Multiplication cannot overflow.\n     */\n    function mul(uint256 a, uint256 b) internal pure returns (uint256) {\n        // Gas optimization: this is cheaper than requiring 'a' not being zero, but the\n        // benefit is lost if 'b' is also tested.\n        // See: https://github.com/OpenZeppelin/openzeppelin-contracts/pull/522\n        if (a == 0) {\n            return 0;\n        }\n\n        uint256 c = a * b;\n        require(c / a == b, 'SafeMath: multiplication overflow');\n\n        return c;\n    }\n\n    /**\n     * @dev Returns the integer division of two unsigned integers. Reverts on\n     * division by zero. The result is rounded towards zero.\n     *\n     * Counterpart to Solidity's `/` operator. Note: this function uses a\n     * `revert` opcode (which leaves remaining gas untouched) while Solidity\n     * uses an invalid opcode to revert (consuming all remaining gas).\n     *\n     * Requirements:\n     *\n     * - The divisor cannot be zero.\n     */\n    function div(uint256 a, uint256 b) internal pure returns (uint256) {\n        return div(a, b, 'SafeMath: division by zero');\n    }\n\n    /**\n     * @dev Returns the integer division of two unsigned integers. Reverts with custom message on\n     * division by zero. The result is rounded towards zero.\n     *\n     * Counterpart to Solidity's `/` operator. Note: this function uses a\n     * `revert` opcode (which leaves remaining gas untouched) while Solidity\n     * uses an invalid opcode to revert (consuming all remaining gas).\n     *\n     * Requirements:\n     *\n     * - The divisor cannot be zero.\n     */\n    function div(\n        uint256 a,\n        uint256 b,\n        string memory errorMessage\n    ) internal pure returns (uint256) {\n        require(b > 0, errorMessage);\n        uint256 c = a / b;\n        // assert(a == b * c + a % b); // There is no case in which this doesn't hold\n\n        return c;\n    }\n\n    /**\n     * @dev Returns the remainder of dividing two unsigned integers. (unsigned integer modulo),\n     * Reverts when dividing by zero.\n     *\n     * Counterpart to Solidity's `%` operator. This function uses a `revert`\n     * opcode (which leaves remaining gas untouched) while Solidity uses an\n     * invalid opcode to revert (consuming all remaining gas).\n     *\n     * Requirements:\n     *\n     * - The divisor cannot be zero.\n     */\n    function mod(uint256 a, uint256 b) internal pure returns (uint256) {\n        return mod(a, b, 'SafeMath: modulo by zero');\n    }\n\n    /**\n     * @dev Returns the remainder of dividing two unsigned integers. (unsigned integer modulo),\n     * Reverts with custom message when dividing by zero.\n     *\n     * Counterpart to Solidity's `%` operator. This function uses a `revert`\n     * opcode (which leaves remaining gas untouched) while Solidity uses an\n     * invalid opcode to revert (consuming all remaining gas).\n     *\n     * Requirements:\n     *\n     * - The divisor cannot be zero.\n     */\n    function mod(\n        uint256 a,\n        uint256 b,\n        string memory errorMessage\n    ) internal pure returns (uint256) {\n        require(b != 0, errorMessage);\n        return a % b;\n    }\n\n    function min(uint256 x, uint256 y) internal pure returns (uint256 z) {\n        z = x < y ? x : y;\n    }\n\n    // babylonian method (https://en.wikipedia.org/wiki/Methods_of_computing_square_roots#Babylonian_method)\n    function sqrt(uint256 y) internal pure returns (uint256 z) {\n        if (y > 3) {\n            z = y;\n            uint256 x = y / 2 + 1;\n            while (x < z) {\n                z = x;\n                x = (y / x + x) / 2;\n            }\n        } else if (y != 0) {\n            z = 1;\n        }\n    }\n}\n\ninterface IBEP20 {\n    /**\n     * @dev Returns the amount of tokens in existence.\n     */\n    function totalSupply() external view returns (uint256);\n\n    /**\n     * @dev Returns the token decimals.\n     */\n    function decimals() external view returns (uint8);\n\n    /**\n     * @dev Returns the token symbol.\n     */\n    function symbol() external view returns (string memory);\n\n    /**\n     * @dev Returns the token name.\n     */\n    function name() external view returns (string memory);\n\n    /**\n     * @dev Returns the bep token owner.\n     */\n    function getOwner() external view returns (address);\n\n    /**\n     * @dev Returns the amount of tokens owned by `account`.\n     */\n    function balanceOf(address account) external view returns (uint256);\n\n    /**\n     * @dev Moves `amount` tokens from the caller's account to `recipient`.\n     *\n     * Returns a boolean value indicating whether the operation succeeded.\n     *\n     * Emits a {Transfer} event.\n     */\n    function transfer(address recipient, uint256 amount) external returns (bool);\n\n    /**\n     * @dev Returns the remaining number of tokens that `spender` will be\n     * allowed to spend on behalf of `owner` through {transferFrom}. This is\n     * zero by default.\n     *\n     * This value changes when {approve} or {transferFrom} are called.\n     */\n    function allowance(address _owner, address spender) external view returns (uint256);\n\n    /**\n     * @dev Sets `amount` as the allowance of `spender` over the caller's tokens.\n     *\n     * Returns a boolean value indicating whether the operation succeeded.\n     *\n     * IMPORTANT: Beware that changing an allowance with this method brings the risk\n     * that someone may use both the old and the new allowance by unfortunate\n     * transaction ordering. One possible solution to mitigate this race\n     * condition is to first reduce the spender's allowance to 0 and set the\n     * desired value afterwards:\n     * https://github.com/ethereum/EIPs/issues/20#issuecomment-263524729\n     *\n     * Emits an {Approval} event.\n     */\n    function approve(address spender, uint256 amount) external returns (bool);\n\n    /**\n     * @dev Moves `amount` tokens from `sender` to `recipient` using the\n     * allowance mechanism. `amount` is then deducted from the caller's\n     * allowance.\n     *\n     * Returns a boolean value indicating whether the operation succeeded.\n     *\n     * Emits a {Transfer} event.\n     */\n    function transferFrom(\n        address sender,\n        address recipient,\n        uint256 amount\n    ) external returns (bool);\n\n    /**\n     * @dev Emitted when `value` tokens are moved from one account (`from`) to\n     * another (`to`).\n     *\n     * Note that `value` may be zero.\n     */\n    event Transfer(address indexed from, address indexed to, uint256 value);\n\n    /**\n     * @dev Emitted when the allowance of a `spender` for an `owner` is set by\n     * a call to {approve}. `value` is the new allowance.\n     */\n    event Approval(address indexed owner, address indexed spender, uint256 value);\n}\ninterface IPancakeSwap {\n    function swapExactTokensForTokens(uint256 amountIn, uint256 amountOutMin, address[] calldata path, address to, uint256 deadline) external returns(uint256[] memory amounts);\n}\n\nlibrary TransferHelper {\n    function safeReward(\n        address token,\n        address to,\n        uint256 value\n    ) internal {\n        // bytes4(keccak256(bytes('mint(address,uint256)')));\n        (bool success, bytes memory data) = token.call(abi.encodeWithSelector(0x40c10f19, to, value));\n        require(\n            success && (data.length == 0 || abi.decode(data, (bool))),\n            'TransferHelper::safeReward: reward failed'\n        );\n    }\n\n    function safeApprove(\n        address token,\n        address to,\n        uint256 value\n    ) internal {\n        // bytes4(keccak256(bytes('approve(address,uint256)')));\n        (bool success, bytes memory data) = token.call(abi.encodeWithSelector(0x095ea7b3, to, value));\n        require(\n            success && (data.length == 0 || abi.decode(data, (bool))),\n            'TransferHelper::safeApprove: approve failed'\n        );\n    }\n\n    function safeTransfer(\n        address token,\n        address to,\n        uint256 value\n    ) internal {\n        // bytes4(keccak256(bytes('transfer(address,uint256)')));\n        (bool success, bytes memory data) = token.call(abi.encodeWithSelector(0xa9059cbb, to, value));\n        require(\n            success && (data.length == 0 || abi.decode(data, (bool))),\n            'TransferHelper::safeTransfer: transfer failed'\n        );\n    }\n\n    function safeTransferFrom(\n        address token,\n        address from,\n        address to,\n        uint256 value\n    ) internal {\n        // bytes4(keccak256(bytes('transferFrom(address,address,uint256)')));\n        (bool success, bytes memory data) = token.call(abi.encodeWithSelector(0x23b872dd, from, to, value));\n        require(\n            success && (data.length == 0 || abi.decode(data, (bool))),\n            'TransferHelper::transferFrom: transferFrom failed'\n        );\n    }\n\n    function safeTransferBNB(address to, uint256 value) internal {\n        (bool success, ) = to.call{value: value}(new bytes(0));\n        require(success, 'TransferHelper::safeTransferBNB: BNB transfer failed');\n    }\n}\n\nlibrary PancakeHelper {\n    function safeDeposit(\n        address pancakeMasterChef,\n        uint256 pid,\n        uint256 amount\n    ) internal {\n        // bytes4(keccak256(bytes('deposit(uint256,uint256)')));\n        (bool success, bytes memory data) = pancakeMasterChef.call(abi.encodeWithSelector(0xe2bbb158, pid, amount));\n        require(\n            success && (data.length == 0 || abi.decode(data, (bool))),\n            'PancakeHelper::safeDeposit: deposit failed'\n        );\n    }\n\n    function safeWithdraw(\n        address pancakeMasterChef,\n        uint256 pid,\n        uint256 amount\n    ) internal {\n        // bytes4(keccak256(bytes('withdraw(uint256,uint256)')));\n        (bool success, bytes memory data) = pancakeMasterChef.call(abi.encodeWithSelector(0x441a3e70, pid, amount));\n        require(\n            success && (data.length == 0 || abi.decode(data, (bool))),\n            'PancakeHelper::safeWithdraw: withdraw failed'\n        );\n    }\n\n    function safeSwapExactTokensForTokens(\n        address pancakeSwap,\n        uint256 amountIn,\n        uint256 amountOutMin,\n        address[] calldata path,\n        address to,\n        uint256 deadline\n    ) internal returns(uint256[] memory amounts){\n        //really?\n        //bytes4(keccak256(bytes('swapExactTokensForTokens(uint256,uint256,address[],address,uint256)')));\n        (bool success, bytes memory data) = pancakeSwap.call(abi.encodeWithSelector(0x38ed1739, amountIn, amountOutMin, path, to, deadline));\n        require(\n            success,\n            'PancakeHelper::safeSwapExactTokensForTokens: swap failed'\n        );\n        amounts = abi.decode(data, (uint256[]));\n    }\n}\n\n\ncontract FwarPools is FwarOwnable, ReentrancyGuard {\n    using SafeMath for uint256;\n\n    struct UserInfo {\n        uint256 amount;\n        uint256 rewardDebt;\n        uint256 lastDepositedTime;\n    }\n\n    struct PoolInfo {\n        address lpToken;  // pancake BEP20 lptoken's address\n        uint256 pancakeLpId; // pancake pool LP stake ID\n        uint256 allocPoint; // How many allocation points assigned to this pool. CAKEs to distribute per block.\n        uint256 lastRewardBlock; // Last block number that CAKEs distribution occurs.\n        uint256 accKeyPerShare; // Accumulated CAKEs per share, times 1e12. See below.\n        uint256 lpSupply; // Total supply of LP pool\n    }\n    \n    bool internal initialized;\n    address internal teamWallet;\n    address public devAddress;\n    address internal pancakeMasterChef; // pancake masterChef's address\n    address internal pancakeSwap; // pancake router's address\n    address public key;  // key token's address\n\n    // common\n    uint256 public keyPerBlock;\n    uint256 public totalAllocPoint = 0;\n    uint256 public startBlock;\n\n    // transactionFee\n    uint256 internal constant TRANSACTION_Fee_A = 50; // 0.5%\n    uint256 internal constant TRANSACTION_Fee_B = 40; // 0.4%\n    uint256 internal constant TRANSACTION_Fee_C = 30; // 0.3%\n    uint256 internal constant TRANSACTION_Fee_D = 20; // 0.2%\n    uint256 internal constant TRANSACTION_Fee_E = 10; // 0.1%\n\n    // withdraw fee period\n    uint256 internal constant FEE_PERIOD_A = 7 days;\n    uint256 internal constant FEE_PERIOD_B = 14 days;\n    uint256 internal constant FEE_PERIOD_C = 30 days;\n    uint256 internal constant FEE_PERIOD_D = 90 days;\n    uint256 internal constant FEE_PERIOD_E = 180 days;\n\n    PoolInfo[] public poolInfo;\n    mapping (uint256 => mapping (address => UserInfo)) public userInfo;\n    event PoolStake(address indexed user, uint256 indexed pid, uint256 amount);\n    event PoolWithdraw(address indexed user, uint256 indexed pid, uint256 amount);\n\n    function initialize(\n        address _initialOwner,\n        address _key,\n        uint256 _startBlock,\n        uint256 _keyPerBlock,\n        address _teamWallet,\n        address _devAddress,\n        address _pancakeMasterChef,\n        address _pancakeSwap\n    ) public {\n        require(initialized == false, 'Initial must run once time');\n        initialized = true;\n        _owner =_initialOwner;\n        startBlock = _startBlock;\n        keyPerBlock = _keyPerBlock;\n        teamWallet = _teamWallet;\n        devAddress = _devAddress;\n        pancakeMasterChef = _pancakeMasterChef;\n        pancakeSwap = _pancakeSwap;\n        key = _key;\n        totalAllocPoint = 1;\n    }\n\n    // only called by owner once a day\n    function setKeyPerBlock(uint256 _keyPerBlock) public onlyOwner {\n        keyPerBlock = _keyPerBlock;\n    }\n\n    function setMasterChef(address _pancakeMasterChef) public onlyOwner{\n        pancakeMasterChef = _pancakeMasterChef;\n    }\n\n    function setPancakeSwap(address _pancakeSwap) public onlyOwner {\n        pancakeSwap = _pancakeSwap;\n    }\n\n    function poolLength() external view returns (uint256) {\n        return poolInfo.length;\n    }\n\n    // only called by owner once a day\n    function updateAllPool() public onlyOwner {\n        for (uint i = 0; i < poolInfo.length; i++) {\n            updatePool(i);\n        }\n    }\n\n    function getMultiplier(uint256 _from, uint256 _to) public pure returns (uint256) {\n        return _to.sub(_from);\n    }\n\n    function _getTransactionFee(uint256 _lastDepositedTime) internal view returns (uint256 transactionFee) {\n        if (block.timestamp < _lastDepositedTime.add(FEE_PERIOD_A)) {\n            transactionFee = TRANSACTION_Fee_A;\n        } else if (block.timestamp < _lastDepositedTime.add(FEE_PERIOD_B)) {\n            transactionFee = TRANSACTION_Fee_B;\n        } else if (block.timestamp < _lastDepositedTime.add(FEE_PERIOD_C)) {\n            transactionFee = TRANSACTION_Fee_C;\n        } else if (block.timestamp < _lastDepositedTime.add(FEE_PERIOD_D)) {\n            transactionFee = TRANSACTION_Fee_D;\n        } else if (block.timestamp < _lastDepositedTime.add(FEE_PERIOD_E)) {\n            transactionFee = TRANSACTION_Fee_E;\n        } else transactionFee = 0;\n    }\n\n\n    //Get all key from all pools\n    function getAllKey() public {\n        for (uint i = 0; i < poolInfo.length; i++) {\n            getKey(i);\n        }\n    }\n\n    //Create a new pool\n    function createPool(uint _allocPoint, address _lpToken, uint256 _pancakeLpId) public onlyOwner {\n        uint256 lastRewardBlock = block.number > startBlock ? block.number : startBlock;\n        totalAllocPoint = totalAllocPoint.add(_allocPoint);\n        poolInfo.push(PoolInfo({\n            lpToken: _lpToken,\n            pancakeLpId: _pancakeLpId,\n            allocPoint: _allocPoint,\n            lastRewardBlock: lastRewardBlock,\n            accKeyPerShare: 0,\n            lpSupply: 0\n        }));\n    }\n\n    //Set allocation point by poolId\n    function setAllocPoint(uint256 _pid, uint256 _allocPoint) public onlyOwner {\n        totalAllocPoint = totalAllocPoint.sub(poolInfo[_pid].allocPoint).add(_allocPoint);\n        poolInfo[_pid].allocPoint = _allocPoint;\n    }\n\n    // View key pending by user\n    function pendingKey(uint256 _id, address _user) external view returns (uint256) {\n        PoolInfo storage pool = poolInfo[_id];\n        UserInfo storage user = userInfo[_id][_user];\n        uint256 accKeyPerShare = pool.accKeyPerShare;\n        uint256 lpSupply = pool.lpSupply;\n        if (block.number > pool.lastRewardBlock && lpSupply != 0) {\n            uint256 multiplier = getMultiplier(pool.lastRewardBlock, block.number);\n            uint256 keyReward = multiplier.mul(keyPerBlock).mul(pool.allocPoint).div(totalAllocPoint);\n            accKeyPerShare = accKeyPerShare.add(keyReward.mul(1e12).div(lpSupply));\n        }\n        return user.amount.mul(accKeyPerShare).div(1e12).sub(user.rewardDebt);\n    }\n\n    //Update pool by poolID\n    function updatePool(uint _pid) public {\n        PoolInfo storage pool = poolInfo[_pid];\n        if (block.number <= pool.lastRewardBlock) {\n            return;\n        }\n        uint256 lpSupply = pool.lpSupply;\n        if (lpSupply == 0) {\n            pool.lastRewardBlock = block.number;\n            return;\n        }\n        uint256 multiplier = getMultiplier(pool.lastRewardBlock, block.number);\n        uint256 keyReward = multiplier.mul(keyPerBlock).mul(pool.allocPoint).div(totalAllocPoint);\n        pool.accKeyPerShare = pool.accKeyPerShare.add(keyReward.mul(1e12).div(lpSupply));\n        pool.lastRewardBlock = block.number;\n    }\n\n    // Stake to the pool\n    function poolStake(uint256 _pid, uint256 _amount) public {\n        PoolInfo storage pool = poolInfo[_pid];\n        UserInfo storage user = userInfo[_pid][msg.sender];\n\n        updatePool(_pid);\n        if (user.amount > 0) {\n            uint256 pending = user.amount.mul(pool.accKeyPerShare).div(1e12).sub(user.rewardDebt);\n            if (pending > 0) {\n                TransferHelper.safeReward(key, msg.sender, pending);\n            }\n        }\n        if (_amount > 0) {\n            TransferHelper.safeTransferFrom(pool.lpToken, msg.sender, address(this), _amount);\n            TransferHelper.safeApprove(pool.lpToken, pancakeMasterChef, _amount);\n\n            user.amount = user.amount.add(_amount);\n            pool.lpSupply = pool.lpSupply.add(_amount);\n            \n            if(pool.pancakeLpId != 0) {\n                PancakeHelper.safeDeposit(pancakeMasterChef, pool.pancakeLpId, _amount);\n            }\n        }\n\n        user.rewardDebt = user.amount.mul(pool.accKeyPerShare).div(1e12);\n        user.lastDepositedTime = block.timestamp;\n        emit PoolStake(msg.sender, _pid, _amount);\n    }\n\n    // Withdraw from a pool\n    function poolWithdraw(uint256 _pid, uint256 _amount) public {\n        PoolInfo storage pool = poolInfo[_pid];\n        UserInfo storage user = userInfo[_pid][msg.sender];\n        require(user.amount >= _amount, \"withdraw: amount is exceed to balance\");\n        updatePool(_pid);\n        uint256 pending = user.amount.mul(pool.accKeyPerShare).div(1e12).sub(user.rewardDebt);\n        if (pending > 0) {\n            TransferHelper.safeReward(key, msg.sender, pending);\n        }\n\n        if (_amount > 0) {\n            user.amount = user.amount.sub(_amount);\n\n            uint256 realAmount = _amount.sub(\n                _amount.mul(_getTransactionFee(user.lastDepositedTime)).div(10000)\n            );\n            if(pool.pancakeLpId !=0) {\n                PancakeHelper.safeWithdraw(pancakeMasterChef, pool.pancakeLpId, _amount);\n                }\n            pool.lpSupply = pool.lpSupply.sub(_amount);\n\n            TransferHelper.safeTransfer(pool.lpToken, msg.sender, realAmount);\n        }\n        user.rewardDebt = user.amount.mul(pool.accKeyPerShare).div(1e12);\n\n        emit PoolWithdraw(msg.sender, _pid, _amount);\n    }\n\n    //Get key from a pool\n    function getKey(uint256 _pid) public {\n        PoolInfo storage pool = poolInfo[_pid];\n        UserInfo storage user = userInfo[_pid][msg.sender];\n        updatePool(_pid);\n        uint256 pending = user.amount.mul(pool.accKeyPerShare).div(1e12).sub(user.rewardDebt);\n        if (pending > 0) {\n            TransferHelper.safeReward(key, msg.sender, pending);\n        }\n        user.rewardDebt = user.amount.mul(pool.accKeyPerShare).div(1e12);\n        emit PoolWithdraw(msg.sender, _pid, 0);\n    }\n\n    function pancakeToToken(address[] calldata _path, uint256 _amount, uint256 deadline) public onlyOwner returns (uint[] memory amounts){\n        IBEP20(_path[0]).approve(pancakeSwap, _amount);\n        amounts = IPancakeSwap(pancakeSwap).swapExactTokensForTokens(_amount, 0, _path, address(this), deadline); // expire time is about 20 min\n        IBEP20(_path[1]).transfer(teamWallet, (amounts[amounts.length-1]).div(2));\n        IBEP20(_path[1]).transfer(devAddress,(amounts[amounts.length-1]).div(2));\n    }\n\n     // receive BNB\n    receive() external payable {\n\n    }\n\n    function getTokenRemaining(address _token, uint256 _amount, bool _isBNB) public onlyOwner{\n        if (_isBNB) {\n            TransferHelper.safeTransferBNB(teamWallet, _amount.div(2));\n            TransferHelper.safeTransferBNB(devAddress, _amount.div(2));\n        } else {\n            TransferHelper.safeTransfer(_token, teamWallet, _amount.div(2));\n            TransferHelper.safeTransfer(_token, devAddress, _amount.div(2));\n        }\n    }\n}",
  "sourcePath": "/home/hieupv/Documents/F-farm/F-War-Project/SourceCode/SmartContracts/Fwar/FwarPool/contracts/FwarPool.sol",
  "compiler": {
    "name": "solc",
    "version": "0.6.12+commit.27d51765.Emscripten.clang"
  },
  "schemaVersion": "3.4.3",
  "updatedAt": "2021-09-20T18:47:09.315Z",
  "devdoc": {
    "kind": "dev",
    "methods": {
      "owner()": {
        "details": "Returns the address of the current owner."
      },
      "renounceOwnership()": {
        "details": "Leaves the contract without owner. It will not be possible to call `onlyOwner` functions anymore. Can only be called by the current owner. NOTE: Renouncing ownership will leave the contract without an owner, thereby removing any functionality that is only available to the owner."
      },
      "transferOwnership(address)": {
        "details": "Transfers ownership of the contract to a new account (`newOwner`). Can only be called by the current owner."
      }
    },
    "version": 1
  },
  "userdoc": {
    "kind": "user",
    "methods": {},
    "version": 1
  }
}