{
  "contractName": "StakePools",
  "abi": [
    {
      "anonymous": false,
      "inputs": [
        {
          "indexed": true,
          "internalType": "address",
          "name": "previousOwner",
          "type": "address"
        },
        {
          "indexed": true,
          "internalType": "address",
          "name": "newOwner",
          "type": "address"
        }
      ],
      "name": "OwnershipTransferred",
      "type": "event"
    },
    {
      "anonymous": false,
      "inputs": [
        {
          "indexed": true,
          "internalType": "address",
          "name": "user",
          "type": "address"
        },
        {
          "indexed": true,
          "internalType": "uint256",
          "name": "pid",
          "type": "uint256"
        },
        {
          "indexed": false,
          "internalType": "uint256",
          "name": "amount",
          "type": "uint256"
        }
      ],
      "name": "PancakeStake",
      "type": "event"
    },
    {
      "anonymous": false,
      "inputs": [
        {
          "indexed": true,
          "internalType": "address",
          "name": "user",
          "type": "address"
        },
        {
          "indexed": true,
          "internalType": "uint256",
          "name": "pid",
          "type": "uint256"
        },
        {
          "indexed": false,
          "internalType": "uint256",
          "name": "amount",
          "type": "uint256"
        }
      ],
      "name": "PancakeWithdraw",
      "type": "event"
    },
    {
      "inputs": [],
      "name": "devaddr",
      "outputs": [
        {
          "internalType": "address",
          "name": "",
          "type": "address"
        }
      ],
      "stateMutability": "view",
      "type": "function",
      "constant": true
    },
    {
      "inputs": [],
      "name": "key",
      "outputs": [
        {
          "internalType": "address",
          "name": "",
          "type": "address"
        }
      ],
      "stateMutability": "view",
      "type": "function",
      "constant": true
    },
    {
      "inputs": [],
      "name": "keyPerBlock",
      "outputs": [
        {
          "internalType": "uint256",
          "name": "",
          "type": "uint256"
        }
      ],
      "stateMutability": "view",
      "type": "function",
      "constant": true
    },
    {
      "inputs": [],
      "name": "owner",
      "outputs": [
        {
          "internalType": "address",
          "name": "",
          "type": "address"
        }
      ],
      "stateMutability": "view",
      "type": "function",
      "constant": true
    },
    {
      "inputs": [
        {
          "internalType": "uint256",
          "name": "",
          "type": "uint256"
        }
      ],
      "name": "pancakePoolInfo",
      "outputs": [
        {
          "internalType": "address",
          "name": "lpToken",
          "type": "address"
        },
        {
          "internalType": "uint256",
          "name": "pancakeLpId",
          "type": "uint256"
        },
        {
          "internalType": "uint256",
          "name": "allocPoint",
          "type": "uint256"
        },
        {
          "internalType": "uint256",
          "name": "lastRewardBlock",
          "type": "uint256"
        },
        {
          "internalType": "uint256",
          "name": "accKeyPerShare",
          "type": "uint256"
        },
        {
          "internalType": "uint256",
          "name": "lpSupply",
          "type": "uint256"
        }
      ],
      "stateMutability": "view",
      "type": "function",
      "constant": true
    },
    {
      "inputs": [
        {
          "internalType": "uint256",
          "name": "",
          "type": "uint256"
        },
        {
          "internalType": "address",
          "name": "",
          "type": "address"
        }
      ],
      "name": "pancakeUserInfo",
      "outputs": [
        {
          "internalType": "uint256",
          "name": "amount",
          "type": "uint256"
        },
        {
          "internalType": "uint256",
          "name": "rewardDebt",
          "type": "uint256"
        },
        {
          "internalType": "uint256",
          "name": "lastDepositedTime",
          "type": "uint256"
        }
      ],
      "stateMutability": "view",
      "type": "function",
      "constant": true
    },
    {
      "inputs": [],
      "name": "renounceOwnership",
      "outputs": [],
      "stateMutability": "nonpayable",
      "type": "function"
    },
    {
      "inputs": [],
      "name": "startBlock",
      "outputs": [
        {
          "internalType": "uint256",
          "name": "",
          "type": "uint256"
        }
      ],
      "stateMutability": "view",
      "type": "function",
      "constant": true
    },
    {
      "inputs": [],
      "name": "totalAllocPoint",
      "outputs": [
        {
          "internalType": "uint256",
          "name": "",
          "type": "uint256"
        }
      ],
      "stateMutability": "view",
      "type": "function",
      "constant": true
    },
    {
      "inputs": [
        {
          "internalType": "address",
          "name": "newOwner",
          "type": "address"
        }
      ],
      "name": "transferOwnership",
      "outputs": [],
      "stateMutability": "nonpayable",
      "type": "function"
    },
    {
      "inputs": [
        {
          "internalType": "address",
          "name": "_initialOwner",
          "type": "address"
        },
        {
          "internalType": "address",
          "name": "_key",
          "type": "address"
        },
        {
          "internalType": "uint256",
          "name": "_startBlock",
          "type": "uint256"
        },
        {
          "internalType": "uint256",
          "name": "_keyPerBlock",
          "type": "uint256"
        },
        {
          "internalType": "address",
          "name": "_teamWallet",
          "type": "address"
        },
        {
          "internalType": "address",
          "name": "_devaddr",
          "type": "address"
        },
        {
          "internalType": "address",
          "name": "_pancakeMasterChef",
          "type": "address"
        },
        {
          "internalType": "address",
          "name": "_pancakeSwap",
          "type": "address"
        }
      ],
      "name": "initialize",
      "outputs": [],
      "stateMutability": "nonpayable",
      "type": "function"
    },
    {
      "inputs": [
        {
          "internalType": "uint256",
          "name": "_dollar",
          "type": "uint256"
        }
      ],
      "name": "updateKeyPerBlock",
      "outputs": [],
      "stateMutability": "nonpayable",
      "type": "function"
    },
    {
      "inputs": [
        {
          "internalType": "uint256",
          "name": "_from",
          "type": "uint256"
        },
        {
          "internalType": "uint256",
          "name": "_to",
          "type": "uint256"
        }
      ],
      "name": "getMultiplier",
      "outputs": [
        {
          "internalType": "uint256",
          "name": "",
          "type": "uint256"
        }
      ],
      "stateMutability": "pure",
      "type": "function",
      "constant": true
    },
    {
      "inputs": [],
      "name": "getAllKey",
      "outputs": [],
      "stateMutability": "nonpayable",
      "type": "function"
    },
    {
      "inputs": [
        {
          "internalType": "address",
          "name": "_pancakeMasterChef",
          "type": "address"
        }
      ],
      "name": "setMasterChef",
      "outputs": [],
      "stateMutability": "nonpayable",
      "type": "function"
    },
    {
      "inputs": [
        {
          "internalType": "address",
          "name": "_pancakeSwap",
          "type": "address"
        }
      ],
      "name": "setPancakeSwap",
      "outputs": [],
      "stateMutability": "nonpayable",
      "type": "function"
    },
    {
      "inputs": [],
      "name": "pancakePoolLength",
      "outputs": [
        {
          "internalType": "uint256",
          "name": "",
          "type": "uint256"
        }
      ],
      "stateMutability": "view",
      "type": "function",
      "constant": true
    },
    {
      "inputs": [
        {
          "internalType": "uint256",
          "name": "_allocPoint",
          "type": "uint256"
        },
        {
          "internalType": "address",
          "name": "_lpToken",
          "type": "address"
        },
        {
          "internalType": "uint256",
          "name": "_pancakeLpId",
          "type": "uint256"
        }
      ],
      "name": "pancakeAdd",
      "outputs": [],
      "stateMutability": "nonpayable",
      "type": "function"
    },
    {
      "inputs": [
        {
          "internalType": "uint256",
          "name": "_pid",
          "type": "uint256"
        },
        {
          "internalType": "uint256",
          "name": "_allocPoint",
          "type": "uint256"
        }
      ],
      "name": "setPancakePoint",
      "outputs": [],
      "stateMutability": "nonpayable",
      "type": "function"
    },
    {
      "inputs": [
        {
          "internalType": "uint256",
          "name": "_id",
          "type": "uint256"
        },
        {
          "internalType": "address",
          "name": "_user",
          "type": "address"
        }
      ],
      "name": "pendingPancakeKey",
      "outputs": [
        {
          "internalType": "uint256",
          "name": "",
          "type": "uint256"
        }
      ],
      "stateMutability": "view",
      "type": "function",
      "constant": true
    },
    {
      "inputs": [
        {
          "internalType": "uint256",
          "name": "_pid",
          "type": "uint256"
        }
      ],
      "name": "updatePancakePool",
      "outputs": [],
      "stateMutability": "nonpayable",
      "type": "function"
    },
    {
      "inputs": [
        {
          "internalType": "uint256",
          "name": "_pid",
          "type": "uint256"
        },
        {
          "internalType": "uint256",
          "name": "_amount",
          "type": "uint256"
        }
      ],
      "name": "pancakeStake",
      "outputs": [],
      "stateMutability": "nonpayable",
      "type": "function"
    },
    {
      "inputs": [
        {
          "internalType": "uint256",
          "name": "_pid",
          "type": "uint256"
        },
        {
          "internalType": "uint256",
          "name": "_amount",
          "type": "uint256"
        }
      ],
      "name": "pancakeWithdraw",
      "outputs": [],
      "stateMutability": "nonpayable",
      "type": "function"
    },
    {
      "inputs": [
        {
          "internalType": "uint256",
          "name": "_pid",
          "type": "uint256"
        }
      ],
      "name": "pancakeGetKey",
      "outputs": [],
      "stateMutability": "nonpayable",
      "type": "function"
    },
    {
      "inputs": [
        {
          "internalType": "address[]",
          "name": "_path",
          "type": "address[]"
        },
        {
          "internalType": "uint256",
          "name": "_amount",
          "type": "uint256"
        },
        {
          "internalType": "uint256",
          "name": "deadline",
          "type": "uint256"
        }
      ],
      "name": "pancakeToToken",
      "outputs": [
        {
          "internalType": "uint256[]",
          "name": "amounts",
          "type": "uint256[]"
        }
      ],
      "stateMutability": "nonpayable",
      "type": "function"
    }
  ],
  "bytecode": "0x6080604052600060085534801561001557600080fd5b50600180819055506136f68061002c6000396000f3fe608060405234801561001057600080fd5b50600436106101735760003560e01c806391f11360116100de578063b5ad0da911610097578063dbc50ed611610071578063dbc50ed61461071c578063ed46b0741461078c578063f2fde38b146107c4578063f6f27fc61461080857610173565b8063b5ad0da914610682578063bed025aa146106b0578063d49e77cd146106e857610173565b806391f11360146103e95780639b3ee16e14610417578063a2d9f4dc14610510578063a2ec889a14610554578063ac41e96a14610572578063ad29b8a2146105a057610173565b80636b5b4335116101305780636b5b4335146102825780636e56c6351461028c578063715018a6146103075780638a3802b2146103115780638da5cb5b146103695780638dbb1e3a1461039d57610173565b8063130068011461017857806317caf6f1146101bc5780633943380c146101da5780633f3629431461020e57806348cd4cb11461022c578063539b657c1461024a575b600080fd5b6101ba6004803603602081101561018e57600080fd5b81019080803573ffffffffffffffffffffffffffffffffffffffff16906020019092919050505061086a565b005b6101c4610976565b6040518082815260200191505060405180910390f35b6101e261097c565b604051808273ffffffffffffffffffffffffffffffffffffffff16815260200191505060405180910390f35b6102166109a2565b6040518082815260200191505060405180910390f35b6102346109af565b6040518082815260200191505060405180910390f35b6102806004803603604081101561026057600080fd5b8101908080359060200190929190803590602001909291905050506109b5565b005b61028a610aef565b005b6102b8600480360360208110156102a257600080fd5b8101908080359060200190929190505050610b18565b604051808773ffffffffffffffffffffffffffffffffffffffff168152602001868152602001858152602001848152602001838152602001828152602001965050505050505060405180910390f35b61030f610b81565b005b6103676004803603606081101561032757600080fd5b8101908080359060200190929190803573ffffffffffffffffffffffffffffffffffffffff16906020019092919080359060200190929190505050610d07565b005b610371610ef2565b604051808273ffffffffffffffffffffffffffffffffffffffff16815260200191505060405180910390f35b6103d3600480360360408110156103b357600080fd5b810190808035906020019092919080359060200190929190505050610f1b565b6040518082815260200191505060405180910390f35b610415600480360360208110156103ff57600080fd5b8101908080359060200190929190505050610f38565b005b61050e600480360361010081101561042e57600080fd5b81019080803573ffffffffffffffffffffffffffffffffffffffff169060200190929190803573ffffffffffffffffffffffffffffffffffffffff1690602001909291908035906020019092919080359060200190929190803573ffffffffffffffffffffffffffffffffffffffff169060200190929190803573ffffffffffffffffffffffffffffffffffffffff169060200190929190803573ffffffffffffffffffffffffffffffffffffffff169060200190929190803573ffffffffffffffffffffffffffffffffffffffff1690602001909291905050506110c7565b005b6105526004803603602081101561052657600080fd5b81019080803573ffffffffffffffffffffffffffffffffffffffff169060200190929190505050611310565b005b61055c61141c565b6040518082815260200191505060405180910390f35b61059e6004803603602081101561058857600080fd5b8101908080359060200190929190505050611422565b005b61062b600480360360608110156105b657600080fd5b81019080803590602001906401000000008111156105d357600080fd5b8201836020820111156105e557600080fd5b8035906020019184602083028401116401000000008311171561060757600080fd5b90919293919293908035906020019092919080359060200190929190505050611522565b6040518080602001828103825283818151815260200191508051906020019060200280838360005b8381101561066e578082015181840152602081019050610653565b505050509050019250505060405180910390f35b6106ae6004803603602081101561069857600080fd5b8101908080359060200190929190505050611ae2565b005b6106e6600480360360408110156106c657600080fd5b810190808035906020019092919080359060200190929190505050611d26565b005b6106f0611fd3565b604051808273ffffffffffffffffffffffffffffffffffffffff16815260200191505060405180910390f35b6107686004803603604081101561073257600080fd5b8101908080359060200190929190803573ffffffffffffffffffffffffffffffffffffffff169060200190929190505050611ff9565b60405180848152602001838152602001828152602001935050505060405180910390f35b6107c2600480360360408110156107a257600080fd5b810190808035906020019092919080359060200190929190505050612030565b005b610806600480360360208110156107da57600080fd5b81019080803573ffffffffffffffffffffffffffffffffffffffff16906020019092919050505061231b565b005b6108546004803603604081101561081e57600080fd5b8101908080359060200190929190803573ffffffffffffffffffffffffffffffffffffffff1690602001909291905050506123ef565b6040518082815260200191505060405180910390f35b610872612574565b73ffffffffffffffffffffffffffffffffffffffff1660008054906101000a900473ffffffffffffffffffffffffffffffffffffffff1673ffffffffffffffffffffffffffffffffffffffff1614610932576040517f08c379a00000000000000000000000000000000000000000000000000000000081526004018080602001828103825260208152602001807f4f776e61626c653a2063616c6c6572206973206e6f7420746865206f776e657281525060200191505060405180910390fd5b80600560006101000a81548173ffffffffffffffffffffffffffffffffffffffff021916908373ffffffffffffffffffffffffffffffffffffffff16021790555050565b60085481565b600660009054906101000a900473ffffffffffffffffffffffffffffffffffffffff1681565b6000600a80549050905090565b60095481565b6109bd612574565b73ffffffffffffffffffffffffffffffffffffffff1660008054906101000a900473ffffffffffffffffffffffffffffffffffffffff1673ffffffffffffffffffffffffffffffffffffffff1614610a7d576040517f08c379a00000000000000000000000000000000000000000000000000000000081526004018080602001828103825260208152602001807f4f776e61626c653a2063616c6c6572206973206e6f7420746865206f776e657281525060200191505060405180910390fd5b610ac281610ab4600a8581548110610a9157fe5b90600052602060002090600602016002015460085461257c90919063ffffffff16565b6125c690919063ffffffff16565b60088190555080600a8381548110610ad657fe5b9060005260206000209060060201600201819055505050565b60005b600a80549050811015610b1557610b0881610f38565b8080600101915050610af2565b50565b600a8181548110610b2557fe5b90600052602060002090600602016000915090508060000160009054906101000a900473ffffffffffffffffffffffffffffffffffffffff16908060010154908060020154908060030154908060040154908060050154905086565b610b89612574565b73ffffffffffffffffffffffffffffffffffffffff1660008054906101000a900473ffffffffffffffffffffffffffffffffffffffff1673ffffffffffffffffffffffffffffffffffffffff1614610c49576040517f08c379a00000000000000000000000000000000000000000000000000000000081526004018080602001828103825260208152602001807f4f776e61626c653a2063616c6c6572206973206e6f7420746865206f776e657281525060200191505060405180910390fd5b600073ffffffffffffffffffffffffffffffffffffffff1660008054906101000a900473ffffffffffffffffffffffffffffffffffffffff1673ffffffffffffffffffffffffffffffffffffffff167f8be0079c531659141344cd1fd0a4f28419497f9722a3daafe3b4186f6b6457e060405160405180910390a360008060006101000a81548173ffffffffffffffffffffffffffffffffffffffff021916908373ffffffffffffffffffffffffffffffffffffffff160217905550565b610d0f612574565b73ffffffffffffffffffffffffffffffffffffffff1660008054906101000a900473ffffffffffffffffffffffffffffffffffffffff1673ffffffffffffffffffffffffffffffffffffffff1614610dcf576040517f08c379a00000000000000000000000000000000000000000000000000000000081526004018080602001828103825260208152602001807f4f776e61626c653a2063616c6c6572206973206e6f7420746865206f776e657281525060200191505060405180910390fd5b60006009544311610de257600954610de4565b435b9050610dfb846008546125c690919063ffffffff16565b600881905550600a6040518060c001604052808573ffffffffffffffffffffffffffffffffffffffff168152602001848152602001868152602001838152602001600081526020016000815250908060018154018082558091505060019003906000526020600020906006020160009091909190915060008201518160000160006101000a81548173ffffffffffffffffffffffffffffffffffffffff021916908373ffffffffffffffffffffffffffffffffffffffff1602179055506020820151816001015560408201518160020155606082015181600301556080820151816004015560a08201518160050155505050505050565b60008060009054906101000a900473ffffffffffffffffffffffffffffffffffffffff16905090565b6000610f30838361257c90919063ffffffff16565b905092915050565b6000600a8281548110610f4757fe5b906000526020600020906006020190506000600b600084815260200190815260200160002060003373ffffffffffffffffffffffffffffffffffffffff1673ffffffffffffffffffffffffffffffffffffffff1681526020019081526020016000209050610fb483611422565b6000610ffe8260010154610ff064e8d4a51000610fe28760040154876000015461264e90919063ffffffff16565b6126d490919063ffffffff16565b61257c90919063ffffffff16565b9050600081111561103757611036600660009054906101000a900473ffffffffffffffffffffffffffffffffffffffff16338361271e565b5b61106964e8d4a5100061105b8560040154856000015461264e90919063ffffffff16565b6126d490919063ffffffff16565b8260010181905550833373ffffffffffffffffffffffffffffffffffffffff167fbe812825984983fe3ff8d4ba6032daef80383efb25b062bb89b58c0bff41742f60006040518082815260200191505060405180910390a350505050565b60001515600260009054906101000a900460ff16151514611150576040517f08c379a000000000000000000000000000000000000000000000000000000000815260040180806020018281038252601a8152602001807f496e697469616c206d7573742072756e206f6e63652074696d6500000000000081525060200191505060405180910390fd5b6001600260006101000a81548160ff021916908315150217905550876000806101000a81548173ffffffffffffffffffffffffffffffffffffffff021916908373ffffffffffffffffffffffffffffffffffffffff160217905550856009819055508460078190555083600260016101000a81548173ffffffffffffffffffffffffffffffffffffffff021916908373ffffffffffffffffffffffffffffffffffffffff16021790555082600360006101000a81548173ffffffffffffffffffffffffffffffffffffffff021916908373ffffffffffffffffffffffffffffffffffffffff16021790555081600460006101000a81548173ffffffffffffffffffffffffffffffffffffffff021916908373ffffffffffffffffffffffffffffffffffffffff16021790555080600560006101000a81548173ffffffffffffffffffffffffffffffffffffffff021916908373ffffffffffffffffffffffffffffffffffffffff16021790555086600660006101000a81548173ffffffffffffffffffffffffffffffffffffffff021916908373ffffffffffffffffffffffffffffffffffffffff16021790555060016008819055505050505050505050565b611318612574565b73ffffffffffffffffffffffffffffffffffffffff1660008054906101000a900473ffffffffffffffffffffffffffffffffffffffff1673ffffffffffffffffffffffffffffffffffffffff16146113d8576040517f08c379a00000000000000000000000000000000000000000000000000000000081526004018080602001828103825260208152602001807f4f776e61626c653a2063616c6c6572206973206e6f7420746865206f776e657281525060200191505060405180910390fd5b80600460006101000a81548173ffffffffffffffffffffffffffffffffffffffff021916908373ffffffffffffffffffffffffffffffffffffffff16021790555050565b60075481565b6000600a828154811061143157fe5b9060005260206000209060060201905080600301544311611452575061151f565b600081600501549050600081141561147457438260030181905550505061151f565b6000611484836003015443610f1b565b905060006114c76008546114b986600201546114ab6007548761264e90919063ffffffff16565b61264e90919063ffffffff16565b6126d490919063ffffffff16565b90506115096114f6846114e864e8d4a510008561264e90919063ffffffff16565b6126d490919063ffffffff16565b85600401546125c690919063ffffffff16565b8460040181905550438460030181905550505050505b50565b606061152c612574565b73ffffffffffffffffffffffffffffffffffffffff1660008054906101000a900473ffffffffffffffffffffffffffffffffffffffff1673ffffffffffffffffffffffffffffffffffffffff16146115ec576040517f08c379a00000000000000000000000000000000000000000000000000000000081526004018080602001828103825260208152602001807f4f776e61626c653a2063616c6c6572206973206e6f7420746865206f776e657281525060200191505060405180910390fd5b848460008181106115f957fe5b9050602002013573ffffffffffffffffffffffffffffffffffffffff1673ffffffffffffffffffffffffffffffffffffffff1663095ea7b3600560009054906101000a900473ffffffffffffffffffffffffffffffffffffffff16856040518363ffffffff1660e01b8152600401808373ffffffffffffffffffffffffffffffffffffffff16815260200182815260200192505050602060405180830381600087803b1580156116a857600080fd5b505af11580156116bc573d6000803e3d6000fd5b505050506040513d60208110156116d257600080fd5b810190808051906020019092919050505050600560009054906101000a900473ffffffffffffffffffffffffffffffffffffffff1673ffffffffffffffffffffffffffffffffffffffff166338ed1739846000888830886040518763ffffffff1660e01b815260040180878152602001868152602001806020018473ffffffffffffffffffffffffffffffffffffffff1681526020018381526020018281038252868682818152602001925060200280828437600081840152601f19601f820116905080830192505050975050505050505050600060405180830381600087803b1580156117bf57600080fd5b505af11580156117d3573d6000803e3d6000fd5b505050506040513d6000823e3d601f19601f8201168201806040525060208110156117fd57600080fd5b810190808051604051939291908464010000000082111561181d57600080fd5b8382019150602082018581111561183357600080fd5b825186602082028301116401000000008211171561185057600080fd5b8083526020830192505050908051906020019060200280838360005b8381101561188757808201518184015260208101905061186c565b505050509050016040525050509050848460018181106118a357fe5b9050602002013573ffffffffffffffffffffffffffffffffffffffff1673ffffffffffffffffffffffffffffffffffffffff1663a9059cbb600260019054906101000a900473ffffffffffffffffffffffffffffffffffffffff1661192960028560018751038151811061191357fe5b60200260200101516126d490919063ffffffff16565b6040518363ffffffff1660e01b8152600401808373ffffffffffffffffffffffffffffffffffffffff16815260200182815260200192505050602060405180830381600087803b15801561197c57600080fd5b505af1158015611990573d6000803e3d6000fd5b505050506040513d60208110156119a657600080fd5b810190808051906020019092919050505050848460018181106119c557fe5b9050602002013573ffffffffffffffffffffffffffffffffffffffff1673ffffffffffffffffffffffffffffffffffffffff1663a9059cbb600360009054906101000a900473ffffffffffffffffffffffffffffffffffffffff16611a4b600285600187510381518110611a3557fe5b60200260200101516126d490919063ffffffff16565b6040518363ffffffff1660e01b8152600401808373ffffffffffffffffffffffffffffffffffffffff16815260200182815260200192505050602060405180830381600087803b158015611a9e57600080fd5b505af1158015611ab2573d6000803e3d6000fd5b505050506040513d6020811015611ac857600080fd5b810190808051906020019092919050505050949350505050565b611aea612574565b73ffffffffffffffffffffffffffffffffffffffff1660008054906101000a900473ffffffffffffffffffffffffffffffffffffffff1673ffffffffffffffffffffffffffffffffffffffff1614611baa576040517f08c379a00000000000000000000000000000000000000000000000000000000081526004018080602001828103825260208152602001807f4f776e61626c653a2063616c6c6572206973206e6f7420746865206f776e657281525060200191505060405180910390fd5b60005b600a80549050811015611bd057611bc381611422565b8080600101915050611bad565b50621e8480811015611c0257611bf766038d7ea4c68000602361264e90919063ffffffff16565b600781905550611d23565b624c4b40811015611c3357611c2866038d7ea4c68000604661264e90919063ffffffff16565b600781905550611d22565b62989680811015611c6457611c5966038d7ea4c68000606961264e90919063ffffffff16565b600781905550611d21565b6301312d00811015611c9657611c8b66038d7ea4c6800060af61264e90919063ffffffff16565b600781905550611d20565b6301c9c380811015611cc857611cbd66038d7ea4c6800060d261264e90919063ffffffff16565b600781905550611d1f565b6302faf080811015611cfb57611cf066038d7ea4c6800061011861264e90919063ffffffff16565b600781905550611d1e565b611d1766038d7ea4c6800061015e61264e90919063ffffffff16565b6007819055505b5b5b5b5b5b50565b6000600a8381548110611d3557fe5b906000526020600020906006020190506000600b600085815260200190815260200160002060003373ffffffffffffffffffffffffffffffffffffffff1673ffffffffffffffffffffffffffffffffffffffff1681526020019081526020016000209050611da284611422565b600081600001541115611e34576000611df98260010154611deb64e8d4a51000611ddd8760040154876000015461264e90919063ffffffff16565b6126d490919063ffffffff16565b61257c90919063ffffffff16565b90506000811115611e3257611e31600660009054906101000a900473ffffffffffffffffffffffffffffffffffffffff16338361271e565b5b505b6000831115611f3b57611e6d8260000160009054906101000a900473ffffffffffffffffffffffffffffffffffffffff163330866128e4565b611ebe8260000160009054906101000a900473ffffffffffffffffffffffffffffffffffffffff16600460009054906101000a900473ffffffffffffffffffffffffffffffffffffffff1685612ac9565b611ed58382600001546125c690919063ffffffff16565b8160000181905550611ef48383600501546125c690919063ffffffff16565b82600501819055506000826001015414611f3a57611f39600460009054906101000a900473ffffffffffffffffffffffffffffffffffffffff16836001015485612c8f565b5b5b611f6d64e8d4a51000611f5f8460040154846000015461264e90919063ffffffff16565b6126d490919063ffffffff16565b8160010181905550428160020181905550833373ffffffffffffffffffffffffffffffffffffffff167f2c8f3d9605ea49080da7919cefa109097fc036a1d9d920c5fa3af6424fd518f1856040518082815260200191505060405180910390a350505050565b600360009054906101000a900473ffffffffffffffffffffffffffffffffffffffff1681565b600b602052816000526040600020602052806000526040600020600091509150508060000154908060010154908060020154905083565b6000600a838154811061203f57fe5b906000526020600020906006020190506000600b600085815260200190815260200160002060003373ffffffffffffffffffffffffffffffffffffffff1673ffffffffffffffffffffffffffffffffffffffff16815260200190815260200160002090508281600001541015612100576040517f08c379a00000000000000000000000000000000000000000000000000000000081526004018080602001828103825260258152602001806136236025913960400191505060405180910390fd5b61210984611422565b6000612153826001015461214564e8d4a510006121378760040154876000015461264e90919063ffffffff16565b6126d490919063ffffffff16565b61257c90919063ffffffff16565b9050600081111561218c5761218b600660009054906101000a900473ffffffffffffffffffffffffffffffffffffffff16338361271e565b5b600084111561228b576121ac84836000015461257c90919063ffffffff16565b826000018190555060006121fb6121ec6127106121de6121cf8760020154612e3f565b8961264e90919063ffffffff16565b6126d490919063ffffffff16565b8661257c90919063ffffffff16565b9050600084600101541461223b5761223a600460009054906101000a900473ffffffffffffffffffffffffffffffffffffffff16856001015487612f0d565b5b61225285856005015461257c90919063ffffffff16565b84600501819055506122898460000160009054906101000a900473ffffffffffffffffffffffffffffffffffffffff1633836130bd565b505b6122bd64e8d4a510006122af8560040154856000015461264e90919063ffffffff16565b6126d490919063ffffffff16565b8260010181905550843373ffffffffffffffffffffffffffffffffffffffff167fbe812825984983fe3ff8d4ba6032daef80383efb25b062bb89b58c0bff41742f866040518082815260200191505060405180910390a35050505050565b612323612574565b73ffffffffffffffffffffffffffffffffffffffff1660008054906101000a900473ffffffffffffffffffffffffffffffffffffffff1673ffffffffffffffffffffffffffffffffffffffff16146123e3576040517f08c379a00000000000000000000000000000000000000000000000000000000081526004018080602001828103825260208152602001807f4f776e61626c653a2063616c6c6572206973206e6f7420746865206f776e657281525060200191505060405180910390fd5b6123ec81613283565b50565b600080600a84815481106123ff57fe5b906000526020600020906006020190506000600b600086815260200190815260200160002060008573ffffffffffffffffffffffffffffffffffffffff1673ffffffffffffffffffffffffffffffffffffffff1681526020019081526020016000209050600082600401549050600083600501549050836003015443118015612489575060008114155b1561252457600061249e856003015443610f1b565b905060006124e16008546124d388600201546124c56007548761264e90919063ffffffff16565b61264e90919063ffffffff16565b6126d490919063ffffffff16565b905061251f6125108461250264e8d4a510008561264e90919063ffffffff16565b6126d490919063ffffffff16565b856125c690919063ffffffff16565b935050505b612568836001015461255a64e8d4a5100061254c86886000015461264e90919063ffffffff16565b6126d490919063ffffffff16565b61257c90919063ffffffff16565b94505050505092915050565b600033905090565b60006125be83836040518060400160405280601e81526020017f536166654d6174683a207375627472616374696f6e206f766572666c6f7700008152506133c6565b905092915050565b600080828401905083811015612644576040517f08c379a000000000000000000000000000000000000000000000000000000000815260040180806020018281038252601b8152602001807f536166654d6174683a206164646974696f6e206f766572666c6f77000000000081525060200191505060405180910390fd5b8091505092915050565b60008083141561266157600090506126ce565b600082840290508284828161267257fe5b04146126c9576040517f08c379a00000000000000000000000000000000000000000000000000000000081526004018080602001828103825260218152602001806136486021913960400191505060405180910390fd5b809150505b92915050565b600061271683836040518060400160405280601a81526020017f536166654d6174683a206469766973696f6e206279207a65726f000000000000815250613486565b905092915050565b600060608473ffffffffffffffffffffffffffffffffffffffff166340c10f198585604051602401808373ffffffffffffffffffffffffffffffffffffffff168152602001828152602001925050506040516020818303038152906040529060e01b6020820180517bffffffffffffffffffffffffffffffffffffffffffffffffffffffff83818316178352505050506040518082805190602001908083835b602083106127e157805182526020820191506020810190506020830392506127be565b6001836020036101000a0380198251168184511680821785525050505050509050019150506000604051808303816000865af19150503d8060008114612843576040519150601f19603f3d011682016040523d82523d6000602084013e612848565b606091505b50915091508180156128885750600081511480612887575080806020019051602081101561287557600080fd5b81019080805190602001909291905050505b5b6128dd576040517f08c379a000000000000000000000000000000000000000000000000000000000815260040180806020018281038252602981526020018061354d6029913960400191505060405180910390fd5b5050505050565b600060608573ffffffffffffffffffffffffffffffffffffffff166323b872dd868686604051602401808473ffffffffffffffffffffffffffffffffffffffff1681526020018373ffffffffffffffffffffffffffffffffffffffff16815260200182815260200193505050506040516020818303038152906040529060e01b6020820180517bffffffffffffffffffffffffffffffffffffffffffffffffffffffff83818316178352505050506040518082805190602001908083835b602083106129c557805182526020820191506020810190506020830392506129a2565b6001836020036101000a0380198251168184511680821785525050505050509050019150506000604051808303816000865af19150503d8060008114612a27576040519150601f19603f3d011682016040523d82523d6000602084013e612a2c565b606091505b5091509150818015612a6c5750600081511480612a6b5750808060200190516020811015612a5957600080fd5b81019080805190602001909291905050505b5b612ac1576040517f08c379a000000000000000000000000000000000000000000000000000000000815260040180806020018281038252603181526020018061359c6031913960400191505060405180910390fd5b505050505050565b600060608473ffffffffffffffffffffffffffffffffffffffff1663095ea7b38585604051602401808373ffffffffffffffffffffffffffffffffffffffff168152602001828152602001925050506040516020818303038152906040529060e01b6020820180517bffffffffffffffffffffffffffffffffffffffffffffffffffffffff83818316178352505050506040518082805190602001908083835b60208310612b8c5780518252602082019150602081019050602083039250612b69565b6001836020036101000a0380198251168184511680821785525050505050509050019150506000604051808303816000865af19150503d8060008114612bee576040519150601f19603f3d011682016040523d82523d6000602084013e612bf3565b606091505b5091509150818015612c335750600081511480612c325750808060200190516020811015612c2057600080fd5b81019080805190602001909291905050505b5b612c88576040517f08c379a000000000000000000000000000000000000000000000000000000000815260040180806020018281038252602b815260200180613669602b913960400191505060405180910390fd5b5050505050565b600060608473ffffffffffffffffffffffffffffffffffffffff1663e2bbb158858560405160240180838152602001828152602001925050506040516020818303038152906040529060e01b6020820180517bffffffffffffffffffffffffffffffffffffffffffffffffffffffff83818316178352505050506040518082805190602001908083835b60208310612d3c5780518252602082019150602081019050602083039250612d19565b6001836020036101000a0380198251168184511680821785525050505050509050019150506000604051808303816000865af19150503d8060008114612d9e576040519150601f19603f3d011682016040523d82523d6000602084013e612da3565b606091505b5091509150818015612de35750600081511480612de25750808060200190516020811015612dd057600080fd5b81019080805190602001909291905050505b5b612e38576040517f08c379a000000000000000000000000000000000000000000000000000000000815260040180806020018281038252602a8152602001806135cd602a913960400191505060405180910390fd5b5050505050565b6000612e5762093a80836125c690919063ffffffff16565b421015612e675760329050612f08565b612e7d62127500836125c690919063ffffffff16565b421015612e8d5760289050612f07565b612ea362278d00836125c690919063ffffffff16565b421015612eb357601e9050612f06565b612ec96276a700836125c690919063ffffffff16565b421015612ed95760149050612f05565b612eef62ed4e00836125c690919063ffffffff16565b421015612eff57600a9050612f04565b600090505b5b5b5b5b919050565b600060608473ffffffffffffffffffffffffffffffffffffffff1663441a3e70858560405160240180838152602001828152602001925050506040516020818303038152906040529060e01b6020820180517bffffffffffffffffffffffffffffffffffffffffffffffffffffffff83818316178352505050506040518082805190602001908083835b60208310612fba5780518252602082019150602081019050602083039250612f97565b6001836020036101000a0380198251168184511680821785525050505050509050019150506000604051808303816000865af19150503d806000811461301c576040519150601f19603f3d011682016040523d82523d6000602084013e613021565b606091505b50915091508180156130615750600081511480613060575080806020019051602081101561304e57600080fd5b81019080805190602001909291905050505b5b6130b6576040517f08c379a000000000000000000000000000000000000000000000000000000000815260040180806020018281038252602c8152602001806135f7602c913960400191505060405180910390fd5b5050505050565b600060608473ffffffffffffffffffffffffffffffffffffffff1663a9059cbb8585604051602401808373ffffffffffffffffffffffffffffffffffffffff168152602001828152602001925050506040516020818303038152906040529060e01b6020820180517bffffffffffffffffffffffffffffffffffffffffffffffffffffffff83818316178352505050506040518082805190602001908083835b60208310613180578051825260208201915060208101905060208303925061315d565b6001836020036101000a0380198251168184511680821785525050505050509050019150506000604051808303816000865af19150503d80600081146131e2576040519150601f19603f3d011682016040523d82523d6000602084013e6131e7565b606091505b50915091508180156132275750600081511480613226575080806020019051602081101561321457600080fd5b81019080805190602001909291905050505b5b61327c576040517f08c379a000000000000000000000000000000000000000000000000000000000815260040180806020018281038252602d815260200180613694602d913960400191505060405180910390fd5b5050505050565b600073ffffffffffffffffffffffffffffffffffffffff168173ffffffffffffffffffffffffffffffffffffffff161415613309576040517f08c379a00000000000000000000000000000000000000000000000000000000081526004018080602001828103825260268152602001806135766026913960400191505060405180910390fd5b8073ffffffffffffffffffffffffffffffffffffffff1660008054906101000a900473ffffffffffffffffffffffffffffffffffffffff1673ffffffffffffffffffffffffffffffffffffffff167f8be0079c531659141344cd1fd0a4f28419497f9722a3daafe3b4186f6b6457e060405160405180910390a3806000806101000a81548173ffffffffffffffffffffffffffffffffffffffff021916908373ffffffffffffffffffffffffffffffffffffffff16021790555050565b6000838311158290613473576040517f08c379a00000000000000000000000000000000000000000000000000000000081526004018080602001828103825283818151815260200191508051906020019080838360005b8381101561343857808201518184015260208101905061341d565b50505050905090810190601f1680156134655780820380516001836020036101000a031916815260200191505b509250505060405180910390fd5b5060008385039050809150509392505050565b60008083118290613532576040517f08c379a00000000000000000000000000000000000000000000000000000000081526004018080602001828103825283818151815260200191508051906020019080838360005b838110156134f75780820151818401526020810190506134dc565b50505050905090810190601f1680156135245780820380516001836020036101000a031916815260200191505b509250505060405180910390fd5b50600083858161353e57fe5b04905080915050939250505056fe5472616e7366657248656c7065723a3a736166655265776172643a20726577617264206661696c65644f776e61626c653a206e6577206f776e657220697320746865207a65726f20616464726573735472616e7366657248656c7065723a3a7472616e7366657246726f6d3a207472616e7366657246726f6d206661696c656450616e63616b6548656c7065723a3a736166654465706f7369743a206465706f736974206661696c656450616e63616b6548656c7065723a3a7361666557697468647261773a207769746864726177206661696c656477697468647261773a20616d6f756e742069732065786365656420746f2062616c616e6365536166654d6174683a206d756c7469706c69636174696f6e206f766572666c6f775472616e7366657248656c7065723a3a73616665417070726f76653a20617070726f7665206661696c65645472616e7366657248656c7065723a3a736166655472616e736665723a207472616e73666572206661696c6564a26469706673582212206b2e3ce2c7c702fa1c88b994afbe2740ac2989d6ad474649283b702fc5b4807464736f6c634300060c0033",
  "immutableReferences": {},
  "source": "//SPDX-License-Identifier: UNLICENSED\n\npragma solidity 0.6.12;\n\nimport '@openzeppelin/contracts/utils/Context.sol';\nimport '@openzeppelin/contracts/utils/ReentrancyGuard.sol';\n\n// base on Ownable.sol\ncontract FwarOwnable is Context {\n    address internal _owner;\n\n    event OwnershipTransferred(address indexed previousOwner, address indexed newOwner);\n\n    /**\n     * @dev Returns the address of the current owner.\n     */\n    function owner() public view returns (address) {\n        return _owner;\n    }\n\n    /**\n     * @dev Throws if called by any account other than the owner.\n     */\n    modifier onlyOwner() {\n        require(_owner == _msgSender(), 'Ownable: caller is not the owner');\n        _;\n    }\n\n    /**\n     * @dev Leaves the contract without owner. It will not be possible to call\n     * `onlyOwner` functions anymore. Can only be called by the current owner.\n     *\n     * NOTE: Renouncing ownership will leave the contract without an owner,\n     * thereby removing any functionality that is only available to the owner.\n     */\n    function renounceOwnership() public onlyOwner {\n        emit OwnershipTransferred(_owner, address(0));\n        _owner = address(0);\n    }\n\n    /**\n     * @dev Transfers ownership of the contract to a new account (`newOwner`).\n     * Can only be called by the current owner.\n     */\n    function transferOwnership(address newOwner) public onlyOwner {\n        _transferOwnership(newOwner);\n    }\n\n    /**\n     * @dev Transfers ownership of the contract to a new account (`newOwner`).\n     */\n    function _transferOwnership(address newOwner) internal {\n        require(newOwner != address(0), 'Ownable: new owner is the zero address');\n        emit OwnershipTransferred(_owner, newOwner);\n        _owner = newOwner;\n    }\n}\n\nlibrary SafeMath {\n    /**\n     * @dev Returns the addition of two unsigned integers, reverting on\n     * overflow.\n     *\n     * Counterpart to Solidity's `+` operator.\n     *\n     * Requirements:\n     *\n     * - Addition cannot overflow.\n     */\n    function add(uint256 a, uint256 b) internal pure returns (uint256) {\n        uint256 c = a + b;\n        require(c >= a, 'SafeMath: addition overflow');\n\n        return c;\n    }\n\n    /**\n     * @dev Returns the subtraction of two unsigned integers, reverting on\n     * overflow (when the result is negative).\n     *\n     * Counterpart to Solidity's `-` operator.\n     *\n     * Requirements:\n     *\n     * - Subtraction cannot overflow.\n     */\n    function sub(uint256 a, uint256 b) internal pure returns (uint256) {\n        return sub(a, b, 'SafeMath: subtraction overflow');\n    }\n\n    /**\n     * @dev Returns the subtraction of two unsigned integers, reverting with custom message on\n     * overflow (when the result is negative).\n     *\n     * Counterpart to Solidity's `-` operator.\n     *\n     * Requirements:\n     *\n     * - Subtraction cannot overflow.\n     */\n    function sub(\n        uint256 a,\n        uint256 b,\n        string memory errorMessage\n    ) internal pure returns (uint256) {\n        require(b <= a, errorMessage);\n        uint256 c = a - b;\n\n        return c;\n    }\n\n    /**\n     * @dev Returns the multiplication of two unsigned integers, reverting on\n     * overflow.\n     *\n     * Counterpart to Solidity's `*` operator.\n     *\n     * Requirements:\n     *\n     * - Multiplication cannot overflow.\n     */\n    function mul(uint256 a, uint256 b) internal pure returns (uint256) {\n        // Gas optimization: this is cheaper than requiring 'a' not being zero, but the\n        // benefit is lost if 'b' is also tested.\n        // See: https://github.com/OpenZeppelin/openzeppelin-contracts/pull/522\n        if (a == 0) {\n            return 0;\n        }\n\n        uint256 c = a * b;\n        require(c / a == b, 'SafeMath: multiplication overflow');\n\n        return c;\n    }\n\n    /**\n     * @dev Returns the integer division of two unsigned integers. Reverts on\n     * division by zero. The result is rounded towards zero.\n     *\n     * Counterpart to Solidity's `/` operator. Note: this function uses a\n     * `revert` opcode (which leaves remaining gas untouched) while Solidity\n     * uses an invalid opcode to revert (consuming all remaining gas).\n     *\n     * Requirements:\n     *\n     * - The divisor cannot be zero.\n     */\n    function div(uint256 a, uint256 b) internal pure returns (uint256) {\n        return div(a, b, 'SafeMath: division by zero');\n    }\n\n    /**\n     * @dev Returns the integer division of two unsigned integers. Reverts with custom message on\n     * division by zero. The result is rounded towards zero.\n     *\n     * Counterpart to Solidity's `/` operator. Note: this function uses a\n     * `revert` opcode (which leaves remaining gas untouched) while Solidity\n     * uses an invalid opcode to revert (consuming all remaining gas).\n     *\n     * Requirements:\n     *\n     * - The divisor cannot be zero.\n     */\n    function div(\n        uint256 a,\n        uint256 b,\n        string memory errorMessage\n    ) internal pure returns (uint256) {\n        require(b > 0, errorMessage);\n        uint256 c = a / b;\n        // assert(a == b * c + a % b); // There is no case in which this doesn't hold\n\n        return c;\n    }\n\n    /**\n     * @dev Returns the remainder of dividing two unsigned integers. (unsigned integer modulo),\n     * Reverts when dividing by zero.\n     *\n     * Counterpart to Solidity's `%` operator. This function uses a `revert`\n     * opcode (which leaves remaining gas untouched) while Solidity uses an\n     * invalid opcode to revert (consuming all remaining gas).\n     *\n     * Requirements:\n     *\n     * - The divisor cannot be zero.\n     */\n    function mod(uint256 a, uint256 b) internal pure returns (uint256) {\n        return mod(a, b, 'SafeMath: modulo by zero');\n    }\n\n    /**\n     * @dev Returns the remainder of dividing two unsigned integers. (unsigned integer modulo),\n     * Reverts with custom message when dividing by zero.\n     *\n     * Counterpart to Solidity's `%` operator. This function uses a `revert`\n     * opcode (which leaves remaining gas untouched) while Solidity uses an\n     * invalid opcode to revert (consuming all remaining gas).\n     *\n     * Requirements:\n     *\n     * - The divisor cannot be zero.\n     */\n    function mod(\n        uint256 a,\n        uint256 b,\n        string memory errorMessage\n    ) internal pure returns (uint256) {\n        require(b != 0, errorMessage);\n        return a % b;\n    }\n\n    function min(uint256 x, uint256 y) internal pure returns (uint256 z) {\n        z = x < y ? x : y;\n    }\n\n    // babylonian method (https://en.wikipedia.org/wiki/Methods_of_computing_square_roots#Babylonian_method)\n    function sqrt(uint256 y) internal pure returns (uint256 z) {\n        if (y > 3) {\n            z = y;\n            uint256 x = y / 2 + 1;\n            while (x < z) {\n                z = x;\n                x = (y / x + x) / 2;\n            }\n        } else if (y != 0) {\n            z = 1;\n        }\n    }\n}\n\ninterface IBEP20 {\n    /**\n     * @dev Returns the amount of tokens in existence.\n     */\n    function totalSupply() external view returns (uint256);\n\n    /**\n     * @dev Returns the token decimals.\n     */\n    function decimals() external view returns (uint8);\n\n    /**\n     * @dev Returns the token symbol.\n     */\n    function symbol() external view returns (string memory);\n\n    /**\n     * @dev Returns the token name.\n     */\n    function name() external view returns (string memory);\n\n    /**\n     * @dev Returns the bep token owner.\n     */\n    function getOwner() external view returns (address);\n\n    /**\n     * @dev Returns the amount of tokens owned by `account`.\n     */\n    function balanceOf(address account) external view returns (uint256);\n\n    /**\n     * @dev Moves `amount` tokens from the caller's account to `recipient`.\n     *\n     * Returns a boolean value indicating whether the operation succeeded.\n     *\n     * Emits a {Transfer} event.\n     */\n    function transfer(address recipient, uint256 amount) external returns (bool);\n\n    /**\n     * @dev Returns the remaining number of tokens that `spender` will be\n     * allowed to spend on behalf of `owner` through {transferFrom}. This is\n     * zero by default.\n     *\n     * This value changes when {approve} or {transferFrom} are called.\n     */\n    function allowance(address _owner, address spender) external view returns (uint256);\n\n    /**\n     * @dev Sets `amount` as the allowance of `spender` over the caller's tokens.\n     *\n     * Returns a boolean value indicating whether the operation succeeded.\n     *\n     * IMPORTANT: Beware that changing an allowance with this method brings the risk\n     * that someone may use both the old and the new allowance by unfortunate\n     * transaction ordering. One possible solution to mitigate this race\n     * condition is to first reduce the spender's allowance to 0 and set the\n     * desired value afterwards:\n     * https://github.com/ethereum/EIPs/issues/20#issuecomment-263524729\n     *\n     * Emits an {Approval} event.\n     */\n    function approve(address spender, uint256 amount) external returns (bool);\n\n    /**\n     * @dev Moves `amount` tokens from `sender` to `recipient` using the\n     * allowance mechanism. `amount` is then deducted from the caller's\n     * allowance.\n     *\n     * Returns a boolean value indicating whether the operation succeeded.\n     *\n     * Emits a {Transfer} event.\n     */\n    function transferFrom(\n        address sender,\n        address recipient,\n        uint256 amount\n    ) external returns (bool);\n\n    /**\n     * @dev Emitted when `value` tokens are moved from one account (`from`) to\n     * another (`to`).\n     *\n     * Note that `value` may be zero.\n     */\n    event Transfer(address indexed from, address indexed to, uint256 value);\n\n    /**\n     * @dev Emitted when the allowance of a `spender` for an `owner` is set by\n     * a call to {approve}. `value` is the new allowance.\n     */\n    event Approval(address indexed owner, address indexed spender, uint256 value);\n}\ninterface IPancakeSwap {\n    function swapExactTokensForTokens(uint256 amountIn, uint256 amountOutMin, address[] calldata path, address to, uint256 deadline) external returns(uint256[] memory amounts);\n}\n\nlibrary TransferHelper {\n    function safeReward(\n        address token,\n        address to,\n        uint256 value\n    ) internal {\n        // bytes4(keccak256(bytes('mint(address,uint256)')));\n        (bool success, bytes memory data) = token.call(abi.encodeWithSelector(0x40c10f19, to, value));\n        require(\n            success && (data.length == 0 || abi.decode(data, (bool))),\n            'TransferHelper::safeReward: reward failed'\n        );\n    }\n\n    function safeApprove(\n        address token,\n        address to,\n        uint256 value\n    ) internal {\n        // bytes4(keccak256(bytes('approve(address,uint256)')));\n        (bool success, bytes memory data) = token.call(abi.encodeWithSelector(0x095ea7b3, to, value));\n        require(\n            success && (data.length == 0 || abi.decode(data, (bool))),\n            'TransferHelper::safeApprove: approve failed'\n        );\n    }\n\n    function safeTransfer(\n        address token,\n        address to,\n        uint256 value\n    ) internal {\n        // bytes4(keccak256(bytes('transfer(address,uint256)')));\n        (bool success, bytes memory data) = token.call(abi.encodeWithSelector(0xa9059cbb, to, value));\n        require(\n            success && (data.length == 0 || abi.decode(data, (bool))),\n            'TransferHelper::safeTransfer: transfer failed'\n        );\n    }\n\n    function safeTransferFrom(\n        address token,\n        address from,\n        address to,\n        uint256 value\n    ) internal {\n        // bytes4(keccak256(bytes('transferFrom(address,address,uint256)')));\n        (bool success, bytes memory data) = token.call(abi.encodeWithSelector(0x23b872dd, from, to, value));\n        require(\n            success && (data.length == 0 || abi.decode(data, (bool))),\n            'TransferHelper::transferFrom: transferFrom failed'\n        );\n    }\n\n    function safeTransferBNB(address to, uint256 value) internal {\n        (bool success, ) = to.call{value: value}(new bytes(0));\n        require(success, 'TransferHelper::safeTransferBNB: BNB transfer failed');\n    }\n}\n\nlibrary PancakeHelper {\n    function safeDeposit(\n        address pancakeMasterChef,\n        uint256 pid,\n        uint256 amount\n    ) internal {\n        // bytes4(keccak256(bytes('deposit(uint256,uint256)')));\n        (bool success, bytes memory data) = pancakeMasterChef.call(abi.encodeWithSelector(0xe2bbb158, pid, amount));\n        require(\n            success && (data.length == 0 || abi.decode(data, (bool))),\n            'PancakeHelper::safeDeposit: deposit failed'\n        );\n    }\n\n    function safeWithdraw(\n        address pancakeMasterChef,\n        uint256 pid,\n        uint256 amount\n    ) internal {\n        // bytes4(keccak256(bytes('withdraw(uint256,uint256)')));\n        (bool success, bytes memory data) = pancakeMasterChef.call(abi.encodeWithSelector(0x441a3e70, pid, amount));\n        require(\n            success && (data.length == 0 || abi.decode(data, (bool))),\n            'PancakeHelper::safeWithdraw: withdraw failed'\n        );\n    }\n\n    function safeSwapExactTokensForTokens(\n        address pancakeSwap,\n        uint256 amountIn,\n        uint256 amountOutMin,\n        address[] calldata path,\n        address to,\n        uint256 deadline\n    ) internal returns(uint256[] memory amounts){\n        //really?\n        //bytes4(keccak256(bytes('swapExactTokensForTokens(uint256,uint256,address[],address,uint256)')));\n        (bool success, bytes memory data) = pancakeSwap.call(abi.encodeWithSelector(0x38ed1739, amountIn, amountOutMin, path, to, deadline));\n        require(\n            success,\n            'PancakeHelper::safeSwapExactTokensForTokens: swap failed'\n        );\n        amounts = abi.decode(data, (uint256[]));\n    }\n}\n\n\ncontract StakePools is FwarOwnable, ReentrancyGuard {\n    using SafeMath for uint256;\n\n    struct UserInfo {\n        uint256 amount;\n        uint256 rewardDebt;\n        uint256 lastDepositedTime;\n    }\n\n    struct PancakePoolInfo {\n        address lpToken;  // pancake BEP20 lptoken's address\n        uint256 pancakeLpId; // pancake pool LP stake ID\n        uint256 allocPoint; // How many allocation points assigned to this pool. CAKEs to distribute per block.\n        uint256 lastRewardBlock; // Last block number that CAKEs distribution occurs.\n        uint256 accKeyPerShare; // Accumulated CAKEs per share, times 1e12. See below.\n        uint256 lpSupply; // Total supply of LP pool\n    }\n    \n    bool internal initialized;\n    address internal teamWallet;\n    address public devaddr;\n    address internal pancakeMasterChef; // pancake masterChef's address\n    address internal pancakeSwap; // pancake swap's address\n    address public key;  // key token's address\n\n    // common\n    uint256 public keyPerBlock;\n    uint256 public totalAllocPoint = 0;\n    uint256 public startBlock;\n\n    // transactionFee\n    uint256 internal constant TRANSACTION_Fee_A = 50; // 0.5%\n    uint256 internal constant TRANSACTION_Fee_B = 40; // 0.4%\n    uint256 internal constant TRANSACTION_Fee_C = 30; // 0.3%\n    uint256 internal constant TRANSACTION_Fee_D = 20; // 0.2%\n    uint256 internal constant TRANSACTION_Fee_E = 10; // 0.1%\n\n    // withdraw fee period\n    uint256 internal constant FEE_PERIOD_A = 7 days;\n    uint256 internal constant FEE_PERIOD_B = 14 days;\n    uint256 internal constant FEE_PERIOD_C = 30 days;\n    uint256 internal constant FEE_PERIOD_D = 90 days;\n    uint256 internal constant FEE_PERIOD_E = 180 days;\n\n    // pancake\n    PancakePoolInfo[] public pancakePoolInfo;\n    mapping (uint256 => mapping (address => UserInfo)) public pancakeUserInfo;\n    event PancakeStake(address indexed user, uint256 indexed pid, uint256 amount);\n    event PancakeWithdraw(address indexed user, uint256 indexed pid, uint256 amount);\n\n    function initialize(\n        address _initialOwner,\n        address _key,\n        uint256 _startBlock,\n        uint256 _keyPerBlock,\n        address _teamWallet,\n        address _devaddr,\n        address _pancakeMasterChef,\n        address _pancakeSwap\n    ) public {\n        require(initialized == false, 'Initial must run once time');\n        initialized = true;\n        _owner =_initialOwner;\n        startBlock = _startBlock;\n        keyPerBlock = _keyPerBlock;\n        teamWallet = _teamWallet;\n        devaddr = _devaddr;\n        pancakeMasterChef = _pancakeMasterChef;\n        pancakeSwap = _pancakeSwap;\n        key = _key;\n        totalAllocPoint = 1;\n    }\n\n    // only called by owner once a day\n    function updateKeyPerBlock(uint256 _dollar) public onlyOwner {\n        for (uint i = 0; i < pancakePoolInfo.length; i++) {\n            updatePancakePool(i);\n        }\n        \n        if (_dollar < 2000000) {\n            keyPerBlock = uint(35).mul(1e15);\n        } else if (_dollar < 5000000) {\n            keyPerBlock = uint(70).mul(1e15);\n        } else if (_dollar < 10000000) {\n            keyPerBlock = uint(105).mul(1e15);\n        } else if (_dollar < 20000000) {\n            keyPerBlock = uint(175).mul(1e15);\n        } else if (_dollar < 30000000){\n            keyPerBlock = uint(210).mul(1e15);\n        } else if (_dollar < 50000000) {\n            keyPerBlock = uint(280).mul(1e15);\n        } else {\n            keyPerBlock = uint(350).mul(1e15);\n        }\n    }\n\n    function getMultiplier(uint256 _from, uint256 _to) public pure returns (uint256) {\n        return _to.sub(_from);\n    }\n\n    function _getTransactionFee(uint256 _lastDepositedTime) internal view returns (uint256 transactionFee) {\n        if (block.timestamp < _lastDepositedTime.add(FEE_PERIOD_A)) {\n            transactionFee = TRANSACTION_Fee_A;\n        } else if (block.timestamp < _lastDepositedTime.add(FEE_PERIOD_B)) {\n            transactionFee = TRANSACTION_Fee_B;\n        } else if (block.timestamp < _lastDepositedTime.add(FEE_PERIOD_C)) {\n            transactionFee = TRANSACTION_Fee_C;\n        } else if (block.timestamp < _lastDepositedTime.add(FEE_PERIOD_D)) {\n            transactionFee = TRANSACTION_Fee_D;\n        } else if (block.timestamp < _lastDepositedTime.add(FEE_PERIOD_E)) {\n            transactionFee = TRANSACTION_Fee_E;\n        } else transactionFee = 0;\n    }\n\n\n    function getAllKey() public {\n        for (uint i = 0; i < pancakePoolInfo.length; i++) {\n            pancakeGetKey(i);\n        }\n    }\n    \n\n    // -------------------- pancake --------------------\n    function setMasterChef(address _pancakeMasterChef) public onlyOwner{\n        pancakeMasterChef = _pancakeMasterChef;\n    }\n\n    function setPancakeSwap(address _pancakeSwap) public onlyOwner {\n        pancakeSwap = _pancakeSwap;\n    }\n\n    function pancakePoolLength() external view returns (uint256) {\n        return pancakePoolInfo.length;\n    }\n\n    function pancakeAdd(uint _allocPoint, address _lpToken, uint256 _pancakeLpId) public onlyOwner {\n        uint256 lastRewardBlock = block.number > startBlock ? block.number : startBlock;\n        totalAllocPoint = totalAllocPoint.add(_allocPoint);\n        pancakePoolInfo.push(PancakePoolInfo({\n        lpToken: _lpToken,\n        pancakeLpId: _pancakeLpId,\n        allocPoint: _allocPoint,\n        lastRewardBlock: lastRewardBlock,\n        accKeyPerShare: 0,\n        lpSupply: 0\n        }));\n    }\n\n    function setPancakePoint(uint256 _pid, uint256 _allocPoint) public onlyOwner {\n        totalAllocPoint = totalAllocPoint.sub(pancakePoolInfo[_pid].allocPoint).add(_allocPoint);\n        pancakePoolInfo[_pid].allocPoint = _allocPoint;\n    }\n\n    function pendingPancakeKey(uint256 _id, address _user) external view returns (uint256) {\n        PancakePoolInfo storage pancakePool = pancakePoolInfo[_id];\n        UserInfo storage user = pancakeUserInfo[_id][_user];\n        uint256 accKeyPerShare = pancakePool.accKeyPerShare;\n        uint256 lpSupply = pancakePool.lpSupply;\n        if (block.number > pancakePool.lastRewardBlock && lpSupply != 0) {\n            uint256 multiplier = getMultiplier(pancakePool.lastRewardBlock, block.number);\n            uint256 keyReward = multiplier.mul(keyPerBlock).mul(pancakePool.allocPoint).div(totalAllocPoint);\n            accKeyPerShare = accKeyPerShare.add(keyReward.mul(1e12).div(lpSupply));\n        }\n        return user.amount.mul(accKeyPerShare).div(1e12).sub(user.rewardDebt);\n    }\n\n    function updatePancakePool(uint _pid) public {\n        PancakePoolInfo storage pancakePool = pancakePoolInfo[_pid];\n        if (block.number <= pancakePool.lastRewardBlock) {\n            return;\n        }\n        uint256 lpSupply = pancakePool.lpSupply;\n        if (lpSupply == 0) {\n            pancakePool.lastRewardBlock = block.number;\n            return;\n        }\n        uint256 multiplier = getMultiplier(pancakePool.lastRewardBlock, block.number);\n        uint256 keyReward = multiplier.mul(keyPerBlock).mul(pancakePool.allocPoint).div(totalAllocPoint);\n        pancakePool.accKeyPerShare = pancakePool.accKeyPerShare.add(keyReward.mul(1e12).div(lpSupply));\n        pancakePool.lastRewardBlock = block.number;\n    }\n\n    function pancakeStake(uint256 _pid, uint256 _amount) public {\n        PancakePoolInfo storage pancakePool = pancakePoolInfo[_pid];\n        UserInfo storage user = pancakeUserInfo[_pid][msg.sender];\n\n        updatePancakePool(_pid);\n        if (user.amount > 0) {\n            uint256 pending = user.amount.mul(pancakePool.accKeyPerShare).div(1e12).sub(user.rewardDebt);\n            if (pending > 0) {\n                TransferHelper.safeReward(key, msg.sender, pending);\n            }\n        }\n        if (_amount > 0) {\n            TransferHelper.safeTransferFrom(pancakePool.lpToken, msg.sender, address(this), _amount);\n            TransferHelper.safeApprove(pancakePool.lpToken, pancakeMasterChef, _amount);\n\n            user.amount = user.amount.add(_amount);\n            pancakePool.lpSupply = pancakePool.lpSupply.add(_amount);\n            \n            if(pancakePool.pancakeLpId != 0) {\n                PancakeHelper.safeDeposit(pancakeMasterChef, pancakePool.pancakeLpId, _amount);\n            }\n        }\n\n        user.rewardDebt = user.amount.mul(pancakePool.accKeyPerShare).div(1e12);\n        user.lastDepositedTime = block.timestamp;\n        emit PancakeStake(msg.sender, _pid, _amount);\n    }\n\n    function pancakeWithdraw(uint256 _pid, uint256 _amount) public {\n        PancakePoolInfo storage pancakePool = pancakePoolInfo[_pid];\n        UserInfo storage user = pancakeUserInfo[_pid][msg.sender];\n        require(user.amount >= _amount, \"withdraw: amount is exceed to balance\");\n        updatePancakePool(_pid);\n        uint256 pending = user.amount.mul(pancakePool.accKeyPerShare).div(1e12).sub(user.rewardDebt);\n        if (pending > 0) {\n            TransferHelper.safeReward(key, msg.sender, pending);\n        }\n\n        if (_amount > 0) {\n            user.amount = user.amount.sub(_amount);\n\n            uint256 realAmount = _amount.sub(\n                _amount.mul(_getTransactionFee(user.lastDepositedTime)).div(10000)\n            );\n            if(pancakePool.pancakeLpId !=0) {\n                PancakeHelper.safeWithdraw(pancakeMasterChef, pancakePool.pancakeLpId, _amount);\n                }\n            pancakePool.lpSupply = pancakePool.lpSupply.sub(_amount);\n\n            TransferHelper.safeTransfer(pancakePool.lpToken, msg.sender, realAmount);\n        }\n        user.rewardDebt = user.amount.mul(pancakePool.accKeyPerShare).div(1e12);\n\n        emit PancakeWithdraw(msg.sender, _pid, _amount);\n    }\n\n    function pancakeGetKey(uint256 _pid) public {\n        PancakePoolInfo storage pancakePool = pancakePoolInfo[_pid];\n        UserInfo storage user = pancakeUserInfo[_pid][msg.sender];\n        updatePancakePool(_pid);\n        uint256 pending = user.amount.mul(pancakePool.accKeyPerShare).div(1e12).sub(user.rewardDebt);\n        if (pending > 0) {\n            TransferHelper.safeReward(key, msg.sender, pending);\n        }\n        user.rewardDebt = user.amount.mul(pancakePool.accKeyPerShare).div(1e12);\n        emit PancakeWithdraw(msg.sender, _pid, 0);\n    }\n\n    function pancakeToToken(address[] calldata _path, uint256 _amount, uint256 deadline) public onlyOwner returns (uint[] memory amounts){\n        IBEP20(_path[0]).approve(pancakeSwap, _amount);\n        amounts = IPancakeSwap(pancakeSwap).swapExactTokensForTokens(_amount, 0, _path, address(this), deadline); // expire time is about 20 min\n        IBEP20(_path[1]).transfer(teamWallet, (amounts[amounts.length-1]).div(2));\n        IBEP20(_path[1]).transfer(devaddr,(amounts[amounts.length-1]).div(2));\n    }\n\n    // -------------------- pancake --------------------\n}",
  "sourcePath": "/Users/badung1870/Working/Node/Fwar/FwarPool/contracts/FwarPool.sol",
  "compiler": {
    "name": "solc",
    "version": "0.6.12+commit.27d51765.Emscripten.clang"
  },
  "schemaVersion": "3.4.3",
  "updatedAt": "2021-09-19T07:12:23.002Z",
  "networkType": "ethereum",
  "devdoc": {
    "kind": "dev",
    "methods": {
      "owner()": {
        "details": "Returns the address of the current owner."
      },
      "renounceOwnership()": {
        "details": "Leaves the contract without owner. It will not be possible to call `onlyOwner` functions anymore. Can only be called by the current owner. NOTE: Renouncing ownership will leave the contract without an owner, thereby removing any functionality that is only available to the owner."
      },
      "transferOwnership(address)": {
        "details": "Transfers ownership of the contract to a new account (`newOwner`). Can only be called by the current owner."
      }
    },
    "version": 1
  },
  "userdoc": {
    "kind": "user",
    "methods": {},
    "version": 1
  }
}